:020000040800F2
:10000000E80400209D01000839030008F1020008FF
:1000100035030008110200089708000800000000DE
:10002000000000000000000000000000F5040008CF
:100030001502000800000000C90300080D060008B2
:10004000B7010008B7010008B7010008B7010008B0
:10005000B7010008B7010008B7010008B7010008A0
:10006000B7010008B7010008B7010008B701000890
:10007000B7010008B7010008B7010008B701000880
:10008000B7010008B7010008B7010008B701000870
:10009000B7010008B7010008B7010008B701000860
:1000A000B7010008B7010008B7010008B701000850
:1000B000B7010008B7010008B7010008B701000840
:1000C000B7010008B7010008B7010008B701000830
:1000D000B701000879060008B7010008B701000859
:1000E000B7010008B7010008B7010008B701000810
:1000F000B7010008B7010008B7010008B701000800
:10010000B7010008B7010008B7010008B7010008EF
:10011000B7010008B7010008B7010008B7010008DF
:10012000B7010008B7010008B7010008B7010008CF
:10013000B7010008B7010008B7010008B7010008BF
:10014000B7010008B7010008B7010008B7010008AF
:10015000B7010008B7010008B7010008B70100089F
:10016000B7010008B7010008B7010008B70100088F
:10017000B7010008B7010008B7010008B70100087F
:10018000B7010008B7010008DFF80CD000F02EF826
:1001900000480047E90A0008E804002006488047B4
:1001A00006480047FEE7FEE7FEE7FEE7FEE7FEE75C
:1001B000FEE7FEE7FEE7FEE71106000889010008FA
:1001C00030B50B46014600202022012409E021FA27
:1001D00002F59D4205D303FA02F5491B04FA02F524
:1001E0002844151EA2F10102F1DC30BD064C074D7A
:1001F00006E0E06840F0010394E8070098471034F7
:10020000AC42F6D3FFF7C4FF080C0008280C000826
:1002100000BFFEE77047F0B50A4600210023002426
:1002200000BF3DE0012505FA01F3156805EA030466
:100230009C4234D105684F000326BE40B54305609B
:1002400015794E00B5400668354305601579012DD6
:1002500002D01579022D16D185684F000326BE40C5
:10026000B543856055794E00B54086683543856055
:10027000456801268E40B5434560456896798E40B5
:10028000B6B235434560C5684F000326BE40B5434E
:10029000C560D5794E00B540C6683543C560491C78
:1002A0001029BFD3F0BDF0B5002300244D07ED0E9B
:1002B00002FA05F3CE1000F1200555F826504E073E
:1002C000F70E0F26BE40B543CF1000F1200646F8CA
:1002D0002750CE1000F1200555F8265045EA0304BA
:1002E000CE1000F1200545F82640F0BD018370478F
:1002F00000BFFEE71CB50121202000F067F84FF495
:10030000C060009001208DF8040000208DF80600E8
:1003100003208DF8050001208DF807006946044888
:10032000FFF779FF4FF4C0610148FFF7DFFF1CBD05
:100330000014024000BFFEE77047000070B50021C6
:1003400000230F22C4781CB3174C246804F4E06423
:10035000C4F5E064C4F30721C1F10404E3B20A4127
:1003600044789C40E1B28478144021430C07210E6C
:100370000E4C05786155047804F01F050124AC404B
:1003800005786D11AD0005F1E025C5F8004109E0E3
:10039000047804F01F050124AC40054D0678761161
:1003A00045F8264070BD00000CED00E000E400E0E0
:1003B00080E100E002490143024A116070470000F9
:1003C0000000FA050CED00E07047000029B1064A74
:1003D00012680243044B1A6004E0034A1268824325
:1003E000014B1A60704700003038024029B1064ABC
:1003F00012680243044B1A6004E0034A1268824305
:10040000014B1A607047000044380240F0B50021EB
:1004100000220024022500260223324F3F6807F005
:100420000C0121B1042905D0082937D105E02E4F50
:10043000076036E02D4F076033E02A4F3F1F3F68CB
:10044000C7F38056274F3F1F3F6807F03F036EB149
:10045000264FB7FBF3F7DFF88CC0ACF1040CDCF8E7
:1004600000C0CCF3881C07FB0CF40CE01E4FB7FB5C
:10047000F3F7DFF870C0ACF1040CDCF800C0CCF38B
:10048000881C07FB0CF4174F3F1F3F68C7F3014759
:100490007F1C7D00B4FBF5F7076002E0124F076098
:1004A00000BF00BF0F4F3F6807F0F0010909104F70
:1004B0007A5C0768D74047600A4F3F6807F4E0510D
:1004C000890A0B4F7A5C4768D7408760054F3F68C1
:1004D00007F46041490B064F7A5C4768D740C76014
:1004E000F0BD0000083802400024F40000127A0039
:1004F0000A000020704700000CB500200190009019
:100500003448006840F480303249086000BF314808
:10051000006800F4003000900198401C01900098A1
:1005200018B90198B0F5A04FF1D12A48006800F43D
:10053000003010B10120009001E0002000900098F0
:10054000012846D123484030006840F080502149BE
:10055000403108602048006840F440401E4908606F
:100560001C48083000681B490831086008460068CC
:1005700040F4004008600846006840F4A05008605D
:100580001648091F0860081F006840F08070091FA6
:10059000086000BF0F48006800F000700028F9D024
:1005A00040F205700E4908600A480830006820F0E3
:1005B00003000849083108600846006840F002005E
:1005C000086000BF03480830006800F00C000828ED
:1005D000F8D10CBD003802400070004008544007BC
:1005E000003C0240042808D14FF0E021096941F0A5
:1005F00004014FF0E022116107E04FF0E0210969AA
:1006000021F004014FF0E0221161704770470000B3
:1006100010B51548006840F470001349086013488D
:10062000006840F001001149086000200F490831BE
:1006300008600E4800680E4908400C4908600D48E3
:10064000091D0860081F006820F48020091F086049
:10065000002006490C310860FFF74EFF4FF00060A4
:1006600001498039086010BD88ED00E00038024083
:10067000FFFFF6FE1030002410B540F225511D4852
:1006800000F04AF810B31B4800F000F9C4B21A4851
:10069000008800F40040C8B91748008800F4804082
:1006A00060B10A2C03D000201349088020E01248D2
:1006B000008840F400401049088019E00D2C06D154
:1006C0000D48008840F480400B49088010E00A483B
:1006D0000088C0F30D0009490C5407480088401CED
:1006E0000549088008460088C72801DD00200880E9
:1006F00010BD000000100140080000201C00002078
:1007000021B1828942F40052828104E082894DF64F
:10071000FF731A408281704770B50246002400239F
:100720000025002040F66A16B14200D100BFC1F397
:10073000421501F01F03012606FA03F3012D02D131
:100740009689334006E0022D02D1168A334001E03B
:10075000968A33400C12012606FA04F416883440B7
:1007600013B10CB1012000E0002070BDF0B50346CC
:10077000002400260025002040F66A17B94200D167
:1007800000BF1846C1F3421401F01F06012707FA03
:1007900006F5012C01D10C3004E0022C01D11030FF
:1007A00000E014301AB107682F43076002E00768C1
:1007B000AF430760F0BD00002DE9FF4705460E4638
:1007C0000024A14600BFA046B08900B100BF2C8A1A
:1007D00024F44054F08804432C82AC8941F20C602C
:1007E0008443B08831890843718908430443AC814C
:1007F000AC8A24F44074B0890443AC826846FFF7A5
:1008000005FE2048854202D01F48854202D1DDF80E
:100810000C9001E0DDF80890A88900F4004040B198
:1008200009EBC90000EB091031684900B0FBF1F792
:1008300007E009EBC90000EB091031688900B0FB43
:10084000F1F76420B7FBF0F004012009642101FBFB
:100850001078A88900F4004040B1322000EBC800B5
:10086000B0FBF1F000F00700044308E0322000EB99
:1008700008106421B0FBF1F000F00F0004432C815C
:10088000BDE8FF8700100140001401400146888840
:10089000C0F30800704700BFFEE700000FB4054B2F
:1008A00010B503A9044A029800F018F810BC5DF8CE
:1008B00014FB0000CD0A00080400002002E008C874
:1008C000121F08C1002AFAD170477047002001E0CA
:1008D00001C1121F002AFBD1704700002DE9FF4F14
:1008E00089B09B460446002506E025280BD05A46D1
:1008F0000B999047641C6D1C20780028F5D10DB031
:100900002846BDE8F08F0027B8460122474900E09D
:10091000074314F8013F203B02FA03F00842F7D1E5
:1009200020782E2819D114F8010F47F004072A283F
:100930000ED06FF02F022078A0F1300109290CD8D9
:1009400008EB880102EB410100EB0108641CF2E7AF
:100950000A98641C50F8048B0A9020780028CED0A6
:10096000642808D0692806D075281ED05A460B99ED
:1009700090476D1C58E00A994FF00A0901C90A9185
:10098000002802DA40422D2102E0390504D52B214E
:100990008DF82010012103E0F90704D02021F7E7AA
:1009A0008A4608AE0DE00021FAE70A994FF00A09DD
:1009B00001C90A91F7E74946FFF702FC303106F812
:1009C000011D0028F7D1ADEB060000F120097807E2
:1009D00001D44FF00108C84502DDA8EB090000E092
:1009E00000208046002706E008A85A46C05D0B9903
:1009F00090476D1C7F1C5745F6DB04E030205A46BB
:100A00000B9990476D1CB8F10001A8F10108F5DCC5
:100A100005E016F8010B5A460B9990476D1CB9F189
:100A20000001A9F10109F4DC641C65E70928010053
:100A3000F0B502460B4699101046154611E050F8E5
:100A4000044B04F0803C4FEAFC164FF0000CCCFA4B
:100A500016F724EA070C45F804CBA1F1010C1FFAA4
:100A60008CF10029EBD103F003010DE090F900C0F7
:100A7000BCF1000F03DA4FF0000C80F800C0401CFE
:100A8000A1F1010C1FFA8CF10029EFD1F0BD00009B
:100A900010B504466FF00400FFF7A4FDE11704EB66
:100AA0005171C1F3C701074A11701046007800EB7D
:100AB0004001C1EBC0104FF6FF7101EAC0000249CE
:100AC000088010BD000000200200002000BF054A81
:100AD000128802F04002002AF9D0C2B2014B9A807B
:100AE00070470000001001401CB518A103C9CDE9F2
:100AF00000014FF4A060FFF75DFCA820FFF7C8FFDE
:100B00004FF4E13000F02AF8FFF7F4FB002405E091
:100B10001DF904100FA0FFF7C1FE641C052CF7DBC4
:100B20000DA0FFF7BBFE05216846FFF781FF0024FB
:100B300005E01DF9041007A0FFF7B0FE641C052CAA
:100B4000F7DB05A0FFF7AAFE00201CBD9CFE0002FB
:100B50006400000025642C000D0A000010B588B068
:100B6000044601210846FFF731FC01211020FFF760
:100B70003DFC072209212248FFF795FB07220A21A5
:100B80001F48FFF790FB4FF4C060069002208DF8DD
:100B90001C008DF81D0000208DF81E0001208DF82E
:100BA0001F0006A91648FFF736FB02940020ADF897
:100BB0000C00ADF80E00ADF81000ADF814000C20DC
:100BC000ADF8120002A90F48FFF7F6FD01210D480C
:100BD000FFF796FD012240F225510A48FFF7C6FDB6
:100BE00025208DF8040003208DF805008DF80600FF
:100BF00001208DF8070001A8FFF7A0FB08B010BD89
:100C00000000024000100140280C000800000020F5
:100C10001C000000BC080008440C00081C00002058
:100C2000CC040000CC080008000000000000000018
:100C30000000000000000102030401020304060793
:040C4000080900009F
:040000050800018965
:00000001FF
