:020000040800F2
:10000000C8970020DD01000885090008C706000820
:1000100081090008F9020008C10E00080000000074
:100020000000000000000000000000004501000882
:100030009505000800000000890100080D0C00086B
:10004000F7010008F7010008F7010008F7010008B0
:10005000F7010008F7010008F7010008F7010008A0
:10006000F7010008F7010008F7010008F701000890
:10007000F7010008F7010008F7010008F701000880
:10008000F7010008F7010008F7010008F701000870
:10009000F7010008F7010008F7010008F701000860
:1000A000F7010008F7010008F7010008F701000850
:1000B000F7010008F7010008F7010008F701000840
:1000C000F7010008F7010008F7010008F701000830
:1000D000F7010008F7010008F7010008F701000820
:1000E000F7010008F7010008F7010008F701000810
:1000F000F7010008F7010008F7010008F701000800
:10010000F7010008F7010008F7010008F7010008EF
:10011000F7010008F7010008F7010008F7010008DF
:10012000F7010008F7010008F7010008F7010008CF
:10013000DFF80CD000F07AF80048004735110008CD
:10014000C8970020224B19680868B0E8F00F80F3C8
:100150000988BFF36F8F4FF0000080F311884EF0D5
:100160000D0E70470000000006480068006880F32C
:10017000088862B661B6BFF34F8FBFF36F8F00DFA1
:1001800000BF00BF08ED00E0EFF30980BFF36F8F01
:100190000F4B1A6820E9F00F106008B54FF05000BF
:1001A00080F31188BFF34F8FBFF36F8F01F048FDCD
:1001B0004FF0000080F31188BDE808401968086816
:1001C000B0E8F00F80F30988BFF36F8F704700BF6E
:1001D00040000020EFF3058070470000064880478C
:1001E00006480047FEE7FEE7FEE7FEE7FEE7FEE71C
:1001F000FEE7FEE7FEE7FEE7410C000831010008DC
:1002000030B50B46014600202022012409E021FAE6
:1002100002F59D4205D303FA02F5491B04FA02F5E3
:100220002844151EA2F10102F1DC30BD064C074D39
:1002300006E0E06840F0010394E8070098471034B6
:10024000AC42F6D3FFF778FFC8200008E82000088A
:100250007CB50546012401F0F1FA13480121002381
:100260004A02CDE9001011A1124801F0A9FD04468F
:10027000012C02D110A000F025FE1448012100231A
:100280004A02CDE9001012A1144801F099FD04467C
:10029000012C02D112A000F015FE1648006801F0F2
:1002A000EBFB01F00DFB7CBD2C0000204B6579546D
:1002B00061736B0009090008B4B4BDA84B65795F90
:1002C0005461736BB3C9B9A60D0A00003000002059
:1002D000546573745461736B00000000A10C000836
:1002E000B4B4BDA8546573745F5461736BB3C9B97A
:1002F000A60D0A002800002000BFFEE7074800689E
:1003000040F08070054908600020054948600846B3
:10031000006840F00100086070470000FCED00E05C
:10032000001000E00148406870470000001000E045
:1003300031B50024FFF7E2FF104800681049B0FB18
:10034000F1F0009900FB01F500BFFFF7EBFF03465A
:1003500011E0FFF7E7FF02469A420CD09A4202D919
:10036000D01A044403E0C3F1FF30104404441346A0
:10037000AC4200D300E0ECE700BF38BD0000002035
:1003800040420F0000B585B00121042000F050FB71
:100390000121880300F04CFB4FF40070ADF8100011
:1003A00018208DF8130003208DF8120004A91748B7
:1003B00000F0F1F84FF48060ADF8100004208DF8E3
:1003C000130004A9114800F0E6F84FF4E130009062
:1003D0000020ADF80400ADF80600ADF80800ADF857
:1003E0000C000C20ADF80A006946094800F0F8FC42
:1003F00000F0C9FA012240F22551054800F0CBFC7B
:100400000121034800F0AEFC05B000BD000801402A
:100410000038014008B50121402000F009FB4020D0
:10042000ADF8000010208DF8030003208DF80200C5
:100430006946024800F0AFF808BD0000001801400E
:1004400010B5FFF7E7FF4021014800F03AF910BD71
:100450000018014008B54020ADF8000048208DF894
:1004600003006946014800F096F808BD00180140F5
:1004700008B54020ADF8000010208DF803000320DF
:100480008DF802006946024800F085F808BD0000BA
:100490000018014070B50025002424E000BF402171
:1004A000134800F003F90028F9D0282000F006FED8
:1004B00040210F4800F0FAF801280DD100BF40217B
:1004C0000B4800F0F3F80128F9D0C4F1070101202E
:1004D0008840C0B2054304E0C4F107010120884010
:1004E0008543601CC4B2082CD8DB284670BD0000D0
:1004F0000018014010B50446FFF7BAFF4021244818
:1005000000F0DDF8122001F07BFA4021204800F0D5
:10051000D8F81E2000F0D2FDFFF79CFF40211C48B8
:1005200000F0C4F880BB00BF4021194800F0BEF8BD
:100530000028F9D000BF4021154800F0B7F8012885
:10054000F9D0FFF7A7FF2070FFF7A4FF6070FFF757
:10055000A1FFA070FFF79EFFE070FFF79BFF2071E7
:10056000FFF786FF40210A4800F0ABF82078617859
:100570000844A1780844E17808442179884201D1EF
:10058000012010BD0020FCE7FFE70020F9E7000094
:100590000018014070472DE9F04102460025002671
:1005A000002000230024002791F803C00CF00F0561
:1005B00091F803C00CF0100CBCF1000F03D091F8BF
:1005C00002C04CEA050591F800C0BCF1000F31D023
:1005D000146800202BE04FF0010C0CFA00F3B1F886
:1005E00000C00CEA03069E4220D183004FF00F0C9E
:1005F0000CFA03F7BC4305FA03FC4CEA040491F837
:1006000003C0BCF1280F06D14FF0010C0CFA00FC1E
:10061000C2F814C00AE091F803C0BCF1480F05D13C
:100620004FF0010C0CFA00FCC2F810C0401C082866
:10063000D1D31460B1F800C0BCF1FF0F34DD5468B1
:1006400000202EE000F1080C4FF0010808FA0CF32E
:10065000B1F800C00CEA03069E4221D183004FF09E
:100660000F0C0CFA03F7BC4305FA03FC4CEA040434
:1006700091F803C0BCF1280F05D100F1080C08FA6D
:100680000CF8C2F8148091F803C0BCF1480F07D1F0
:1006900000F1080C4FF0010808FA0CF8C2F81080BD
:1006A000401C0828CED35460BDE8F08102460020EB
:1006B00093680B400BB1012000E0002070474161BE
:1006C00070470161704700BFFEE7000010B50121CF
:1006D0000348FFF7EBFF012800D110BD0020FCE725
:1006E0000008014010B54FF400510448FFF7DEFF49
:1006F000012800D110BD0020FCE7000000100140DF
:1007000010B54FF400510448FFF7D0FF012800D185
:1007100010BD0020FCE700000010014070B5054648
:10072000304800EB05142068804700283ED020792F
:100730000A2802DA0A20207152E02079142803DA0C
:100740002079401C20714BE0A07A38B90120A072BA
:1007500005EB4501491CC8B200F094F82089002837
:100760003EDDE088218988420DDAE088401C80B2B5
:10077000E0802189884233D105EB4501C91CC8B20C
:1007800000F080F82CE0E07A002829DD207B401C76
:10079000C0B22073E17A884222DB0020207305EB8F
:1007A0004501491CC8B200F06DF819E020790A280B
:1007B00002DD0A20207110E0207918B12079401E56
:1007C00020710AE0A07A012807D10020A07205EB71
:1007D0004501891CC8B200F055F80020E080207364
:1007E00070BD0000A40000200B48807A0A4AD27A2B
:1007F000904201D1002070470748807A064A115C78
:100800001046807A401CC0B290720A2801DB00209A
:1008100090720846EFE70000D40000200021144A3F
:100820009172D172002018E0C821124A02EB001226
:10083000118105210F4A02EB0012117100210D4AAE
:1008400002EB001291720B4A02EB0012D172094ABC
:1008500002EB00121173411CC8B20328E4DB064905
:10086000044A116005491161054911627047000091
:10087000D4000020A4000020CD060008E5060008F2
:10088000010700080649C97A054A50541146C97A39
:10089000491CC9B2D1720A2901DB0021D17270470B
:1008A000D400002008B50121142000F0C1F8042074
:1008B0008DF803000120ADF8000069460A48FFF7F3
:1008C0006AFE4FF40050ADF8000069460748FFF794
:1008D00062FE4FF40050ADF8000069460348FFF790
:1008E0005AFEFFF79BFF08BD0008014000100140C1
:1008F00010B5002404E02046FFF710FF601CC4B2CE
:10090000032CF8DB10BD000021E0FFF76DFF04466B
:10091000D4B1012C06D0032C08D0042C0AD0062C0C
:1009200010D10BE00AA000F0CDFA0CE00BA000F013
:10093000C9FA08E00CA000F0C5FA04E00DA000F030
:10094000C1FA00E000BF00BF142001F059F8DCE755
:100950006B65793120646F776E0D0A006B657931B4
:10096000206C6F6E670D0A006B65793220646F77BB
:100970006E0D0A006B657932206C6F6E670D0A0090
:1009800000BFFEE7704708B54FF4A06000F046F8DE
:1009900025208DF8000001208DF801008DF802005F
:1009A0008DF80300684600F001F808BD70B500211D
:1009B00000230F22C47804B3154C246804F4E064C7
:1009C000C4F5E064210AC1F10403CA40447804FA82
:1009D00003F184781440214309010E4C0678A15597
:1009E000047804F01F050124AC4005786D11AD00BA
:1009F00005F1E025C5F8004109E0047804F01F0581
:100A00000124AC40044D0678761145F8264070BDAF
:100A10000CED00E000E400E080E100E00249014369
:100A2000024A1160704700000000FA050CED00E07A
:100A300029B1064A92690243044B9A6104E0034AD1
:100A400092698243014B9A61704700000010024096
:100A500030B500210022002400232D4D6D6805F0E3
:100A60000C0121B1042905D0082923D105E0294D25
:100A7000056022E0274D05601FE0254D6D6805F4F7
:100A80007012234D6D6805F48034022505EB924207
:100A90001CB9214D554305600BE01D4D6D6805F4F3
:100AA00000351DB11C4D5543056002E0194D5543FD
:100AB000056002E0174D056000BF00BF144D6D6872
:100AC00005F0F0010909154D6B5C0568DD404560D6
:100AD0000F4D6D6805F4E061090A104D6B5C4568C7
:100AE000DD4085600A4D6D6805F46051C90A0B4D03
:100AF0006B5C4568DD40C560054D6D6805F440419F
:100B0000890B074D6B5CC568B5FBF3F5056130BD1E
:100B10000010024000127A0000093D00140000207D
:100B20002400002010B500F001F810BD0CB5002025
:100B3000019000903348006840F4803031490860EB
:100B400000BF3048006800F4003000900198401C5D
:100B50000190009818B90198B0F5A06FF1D129481B
:100B6000006800F4003010B10120009001E0002086
:100B700000900098012843D12348006840F01000FD
:100B8000214908600846006820F003000860084614
:100B9000006840F0020008601A484068194948603F
:100BA0000846406848600846406840F480604860F5
:100BB0000846406820F47C1048600846406840F4CD
:100BC000E81048600846006840F08070086000BF88
:100BD0000C48006800F000700028F9D0094840680F
:100BE00020F00300074948600846406840F00200D2
:100BF000486000BF0348406800F00C000828F9D1A5
:100C00000CBD0000001002400020024010B50B484F
:100C10000068042805D209480068401C074908609C
:100C200004E000200549086000F088F801F0F8F8B9
:100C3000012801D001F0AAF810BD00003400002006
:100C400010B51348006840F00100114908600846DB
:100C50004068104908400E494860084600680E493F
:100C600008400B4908600846006820F480200860AE
:100C70000846406820F4FE0048604FF41F0088607A
:100C8000FFF750FF4FF000600449086010BD0000FE
:100C9000001002400000FFF8FFFFF6FE08ED00E044
:100CA0000EB51FE010A000F00DF94FF47A70FFF7B9
:100CB0003FFB01A8FFF71EFC01280CD19DF807009F
:100CC00000909DF806309DF805209DF8041007A0BF
:100CD00000F0F8F802E014A000F0F4F84FF4FA6025
:100CE00000F08EFEDEE70000310D0A000D0AB6C1ED
:100CF000C8A14448543131B3C9B9A6210D0A0D0A1F
:100D0000CAAAB6C8CEAA25642E256420A3A5524837
:100D100020A3ACCEC2B6C8CEAA2025642E2564A1DD
:100D2000E6200D0A0000000052656164204448542A
:100D30003131204552524F52210D0A0010B508485A
:100D40000088012805DA06480088401C044908800C
:100D500004E0002002490880FFF7CAFD10BD000032
:100D60003C00002021B1828942F40052828104E0DB
:100D700082894DF6FF731A40828170470246002037
:100D8000B1F5007F00D100BF13880B400BB10120EB
:100D900000E000207047F0B503460024002600253F
:100DA000002040F66A17B94200D100BF1846C1F3CF
:100DB000421401F01F06012707FA06F5012C01D1A4
:100DC0000C3004E0022C01D1103000E014301AB1D4
:100DD00007682F43076002E00768AF430760F0BD74
:100DE0002DE9F04786B005460E460024A24600BF16
:100DF000A1460027B08900B100BF2F462C8A4CF6CF
:100E0000FF700440F08804432C82AC894EF6F31046
:100E10000440B08831890843718908430443AC8198
:100E2000AC8A4FF6FF400440B0890443AC8201A86D
:100E3000FFF70EFE1F48874202D1DDF810A001E047
:100E4000DDF80CA0A88900F4004040B10AEBCA000C
:100E500000EB0A1031684900B0FBF1F807E00AEB3B
:100E6000CA0000EB0A1031688900B0FBF1F8642079
:100E7000B8FBF0F004012009642101FB1089A88966
:100E800000F4004040B1322000EBC900B0FBF1F0AB
:100E900000F00700044308E0322000EB0910642151
:100EA000B0FBF1F000F00F0004432C8106B0BDE868
:100EB000F087000000380140C1F3080282807047CB
:100EC00000BFFEE70FB4054B10B503A9044A029812
:100ED00000F018F810BC5DF814FB000011110008B8
:100EE000A000002002E008C8121F08C1002AFAD1A1
:100EF00070477047002001E001C1121F002AFBD19A
:100F0000704700002DE9FF4F8BB09A460F4605460B
:100F1000002606E025280BD052460D9990476D1CFF
:100F2000761C28780028F5D10FB03046BDE8F08F48
:100F30000024A0460122604900E0044315F8013F67
:100F4000203B02FA03F00842F7D128782E2817D167
:100F500015F8010F44F004042A280ED06FF02F0278
:100F60002878A0F1300109290AD808EB880102EBA2
:100F7000410100EB01086D1CF2E757F8048B6D1C72
:100F8000287869283ED006DC0028CDD063280BD015
:100F9000642804D136E0732810D075284BD052460F
:100FA0000D999047761C85E017F8040B8DF800002A
:100FB00000208DF80100E946012003E057F8049B6A
:100FC0004FF0FF3061074FF0000401D40AE0641CC9
:100FD00044450DDA8442FADB19F804100029F6D1F1
:100FE00006E0641C8442FCDB19F804100029F8D1E7
:100FF000264404E019F8010B52460D999047641EEF
:10100000F8D257E001CF4FF00A0B002802DA404235
:101010002D2102E0210504D52B218DF8241001217A
:1010200003E0E10705D02021F7E70DF12009089141
:101030000CE00021F9E701CF4FF00A0BF9E7594620
:10104000FFF7DEF801F1300209F8012D0028F6D192
:10105000ADEB090000F1200B600701D44FF001084F
:10106000D84502DDA8EB0B0000E0002080460024FC
:1010700006E009A85246005D0D999047641C761C55
:1010800008988442F5DB04E0302052460D999047E1
:10109000761CB8F10001A8F10108F5DC05E019F8AB
:1010A000010B52460D999047761CBBF10001ABF144
:1010B000010BF4DC6D1C34E709280100F0B5034690
:1010C00000224FF0E02675690F4E36680F4FB6FBD1
:1010D000F7F606FB03F44FF0E026B16910E04FF09D
:1010E000E026B06988420BD0884202D20E1A324400
:1010F00002E02E1A0E4432440146A24200D300E020
:10110000EDE700BFF0BD00000000002040420F00EE
:1011100070B504460D46E1B20548FFF7CDFE00BFAD
:1011200080210348FFF72AFE0028F9D0204670BD31
:10113000003801401CB50124FFF724F9FFF7B2FB8A
:10114000FFF77EF90BA0FFF7BDFE0D48012100233C
:101150004A02CDE900100BA10E4800F031FE044612
:10116000012C02D100F010FD02E04FF0FF301CBD59
:1011700000BFFEE74672656552544F530D0A0000EA
:10118000280000204170705461736B437265617474
:1011900065000000510200082DE9F04105460E46A9
:1011A0001C4807681C480068001D00F0FDFA50B993
:1011B0001948006890F82C100120884017490968E8
:1011C000814316480160681C38B936B1124801687D
:1011D000091D134800F026FB1AE07C190E48006830
:1011E0004460BC4207D20C480168091D0D480068E4
:1011F00000F0FEFA0CE008480168091D0A48006882
:1012000000F0F6FA09480068844201D207480460F9
:10121000BDE8F0815400002040000020580000206C
:10122000B00300204800002044000020700000208F
:1012300010B5044600F002FB23480068401C224918
:1012400008602248006840B92048046008460068E9
:1012500001280DD100F036F90AE01D48006838B9C0
:101260001A480068C06AE16A884201D817480460D9
:1012700018480068401C1749086094F82C10012099
:10128000884015490968084313490860E16A01EB81
:101290008101124A02EB8100211D00F0C3FA00F027
:1012A0000FFB0B48006868B108480068C06AE16A33
:1012B000884207D24FF0805009490860BFF34F8F32
:1012C000BFF36F8F10BD00005000002040000020D1
:1012D0005C0000206C00002058000020E00000208E
:1012E00004ED00E070B523E000F0A2FC13480068B4
:1012F00008B9012000E00020054600F053FEBDB90A
:1013000000F09CFA0D48C068C468201D00F04CFA3B
:101310000B480068401E0A4908600A480068401EE1
:101320000849086000F0CCFA204600F00DF800BF34
:10133000044800680028D7D170BD00009C0300203D
:10134000500000204C00002010B50446206B00F037
:10135000EDFA204600F0EAFA10BD000030B54FF477
:101360001043174800F007042CB1C01D20F00700FF
:10137000134C041B1B1B0246124C22600024114D0F
:101380006C60D018083820F007000F4C2060002453
:101390000D4D2D686C600C4D2D682C601146441A63
:1013A0004C60094C24680C60084D4C682C60084D5A
:1013B0004C682C604FF00044064D2C6030BD00009E
:1013C000C40300207C000020840000208C0000204A
:1013D000880000209000002000BFFFF783FF064830
:1013E00000680128F9D94FF0805004490860BFF324
:1013F0004F8FBFF36F8FF0E7E000002004ED00E0B7
:101400002DE9FF5F81460E469246DDE90E7B109C7A
:10141000AAF10100216B01EB800828F0070808F011
:10142000070008B9012000E0002028B940F22B3263
:101430001AA120A0FFF746FD002507E0715D04F129
:1014400034004155705D00B902E06D1C102DF5D3DC
:1014500000BF002143200155202F00D31F27E76242
:10146000201D00F0C2F904F1180000F0BEF924615B
:10147000C7F12000A06164620020606484F8480025
:1014800049464046039A00F07DF92060BBF1000F09
:1014900001D0CBF80040BDE8FF9F00002E2E5C4637
:1014A00072656552544F535C7372635C7461736B05
:1014B000732E63004572726F723A25732C25640D8A
:1014C0000A00000010B5002407E004EB84010F4A75
:1014D00002EB810000F07CF9641C202CF5D30C4851
:1014E00000F076F90B4800F073F90B4800F070F942
:1014F0000A4800F06DF90A4800F06AF90448094901
:10150000086004480849086010BD0000E0000020A1
:101510006003002074030020880300209C03002047
:10152000B0030020440000204800002010B5014610
:10153000164800E0006803688B42FBD3024643680C
:1015400013448B4204D143684C68234443600146F2
:101550000A464B6813440468A34211D10C4C03683B
:101560002468A34208D04B680468646823444B6035
:1015700003681B680B6005E0054B1B680B6001E00E
:1015800003680B60884200D0016010BD7C00002021
:10159000840000200A490968096809B9012100E0AE
:1015A000002121B14FF0FF31064A116006E00449E5
:1015B0000968C968C868034A41681160704700003B
:1015C00044000020700000200B480068401C08B94F
:1015D000012000E0002020B9F42208A111A0FFF7AB
:1015E00071FC00BF502080F31188BFF34F8FBFF311
:1015F0006F8F00BF00BFFEE7940000202E2E5C46D8
:1016000072656552544F535C706F72745C525644ED
:10161000535C41524D5F434D335C706F72742E6367
:10162000000000004572726F723A25732C25640D1C
:101630000A0000002DE9F04104464FF0000800F0D8
:10164000F7FA3E48006808B9FFF788FE3C48006892
:10165000204000285FD1A4B1083404F0070080B115
:1016600004F00700C0F10800044404F0070008B9C2
:10167000012000E0002020B9BF2232A13AA0FFF7EC
:1016800021FC002C47D03C480068844243D83B4EA4
:101690003046056801E02E462D686868A04202D2F7
:1016A00028680028F7D125480068854233D0306883
:1016B00000F10808286830606868001B102813D9FA
:1016C0002F1907F0070008B9012000E0002020B919
:1016D000EC221CA124A0FFF7F5FB6868001B7860D2
:1016E0006C603846FFF722FF234968680968081ACA
:1016F000214908600846006821490968884203D2E8
:101700001D4800681E4908600D496868096808435B
:1017100068600020286000F045FC08F0070008B968
:10172000012000E0002028B94FF4967205A10EA018
:10173000FFF7C8FB4046BDE8F081000084000020B0
:10174000900000202E2E5C4672656552544F535C0B
:10175000706F72745C4D656D4D616E675C6865613C
:10176000705F342E630000004572726F723A257309
:101770002C25640D0A000000880000207C00002059
:101780008C000020001F4FF080730360001F21F0C9
:1017900001030360001F034B03601438026020380C
:1017A00070470000C915000801460A69D1E90130F7
:1017B0009860D1E9010358605068884201D1886877
:1017C0005060002008611068401E1060106870476B
:1017D00000F1080141604FF0FF31816000F1080124
:1017E000C160016100210160704700210161704703
:1017F00010B502460B685C1C0CB9106907E002F1D9
:10180000080000E04068446824689C42FAD94468B3
:101810004C604C68A160886041600A611468641C77
:10182000146010BD42684A6093688B609368596089
:101830009160086103685B1C0360704710B500BFCE
:10184000502080F31188BFF34F8FBFF36F8F00BF1D
:101850000B480068401C0A490860084600680128D7
:101860000DD108480068C0B208B9012000E000208E
:1018700028B94FF4BD7204A10DA0FFF723FB10BDE2
:101880009400002004ED00E02E2E5C467265655247
:10189000544F535C706F72745C525644535C4152A7
:1018A0004D5F434D335C706F72742E630000000017
:1018B0004572726F723A25732C25640D0A00000080
:1018C00010B50B48006828B940F2811209A113A095
:1018D000FFF7F8FA06480068401E05490860084608
:1018E000006820B9002080F3118800BF00BF10BD40
:1018F000940000202E2E5C4672656552544F535C56
:10190000706F72745C525644535C41524D5F434D4C
:10191000335C706F72742E63000000004572726F4A
:10192000723A25732C25640D0A00000070B5064636
:101930003546002E35D0083D2C461A4960680968A6
:10194000084008B1012000E0002028B94FF4A0723F
:1019500015A11EA0FFF7B6FA206808B9012000E023
:10196000002028B940F241120FA118A0FFF7AAFAEF
:101970000C4960680968084098B1206888B909492D
:10198000606809688843606000F052F91349606834
:1019900009680844114908602046FFF7C7FD00F0B8
:1019A00001FB70BD900000202E2E5C4672656552D2
:1019B000544F535C706F72745C4D656D4D616E6712
:1019C0005C686561705F342E630000004572726F61
:1019D000723A25732C25640D0A000000880000204F
:1019E000064800684FF47A71B0FBF1F0401E4FF0EA
:1019F000E0214861072008617047000000000020D6
:101A000070B504460025ACB10F48006808B9012044
:101A100000E0002028B940F2CF420CA111A0FFF74E
:101A200051FA00F005F900212046FFF7B5FB00F060
:101A3000B9FA05463DB94FF080500E490860BFF332
:101A40004F8FBFF36F8F70BD780000202E2E5C4645
:101A500072656552544F535C7372635C7461736B4F
:101A6000732E63004572726F723A25732C25640DD4
:101A70000A00000004ED00E070B50546FFF7DEFE49
:101A800015B92D48006800E028460446201DFFF7E0
:101A90008BFE78B9E06A00EB8000284951F82000FD
:101AA00040B994F82C1001208840254909688143E9
:101AB00023480160A06A18B104F11800FFF774FE12
:101AC00020480068401C1F4908601B480068844289
:101AD00009D1211D1C48FFF7A5FE1C480068401CC9
:101AE0001A49086009E01A480068401E1849086051
:101AF0002046FFF729FCFFF74DFDFFF7E1FE1548F3
:101B00000068C0B10C480068844214D112480068D3
:101B100008B9012000E0002028B940F265420FA179
:101B200014A0FFF7CFF94FF0805016490860BFF3BB
:101B30004F8FBFF36F8F70BD40000020E00000208A
:101B4000580000206C0000209C0300204C00002066
:101B5000500000205C000020780000202E2E5C4603
:101B600072656552544F535C7372635C7461736B3E
:101B7000732E63004572726F723A25732C25640DC3
:101B80000A00000004ED00E01CB5184800210B46D7
:101B90008022CDE9001016A1174800F011F9044683
:101BA000012C15D100BF502080F31188BFF34F8F57
:101BB000BFF36F8F00BF4FF0FF3010490860012066
:101BC0000F49086000200F49086000F08FF80BE013
:101BD000601C08B1012000E0002028B940F28472A6
:101BE00009A10FA0FFF76EF91CBD000074000020D2
:101BF00049444C4500000000D91300087000002043
:101C00005C000020540000202E2E5C467265655258
:101C1000544F535C7372635C7461736B732E630017
:101C20004572726F723A25732C25640D0A0000000C
:101C300002480068401C0149086070477800002095
:101C400010B51B48006818B101201A4908602DE042
:101C500000201849086018480068B0FA80F0C0F108
:101C60001F0404EB8400154951F8200008B101203D
:101C700000E0002028B940F6F62211A116A0FFF7D7
:101C800021F904EB84010D4A02EB810041684968A7
:101C9000416000F1080142688A4202D14168496806
:101CA00041604168C968104A116000BF10BD000062
:101CB000780000206400002058000020E000002090
:101CC0002E2E5C4672656552544F535C7372635C92
:101CD0007461736B732E63004572726F723A257371
:101CE0002C25640D0A000000400000201CB522488D
:101CF000014609780191FF210246117001460978D9
:101D000000919DF8001001F050011C4A117007214C
:101D10001B4A116009E01A490968491E184A1160F6
:101D20009DF800104906090E00919DF8001001F081
:101D300080018029EFD0124909680902104A116018
:101D40001146098801F4E06111600B4A0199117094
:101D50000C48006840F470000A49086008460068B2
:101D600040F070400860FFF73BFE00200649086025
:101D7000FEF7FAF900201CBD00E400E09800002006
:101D80009C00002020ED00E09400002010B500BF72
:101D9000502080F31188BFF34F8FBFF36F8F00BFC8
:101DA00000F04EF818B14FF080500449086000BFB1
:101DB000002080F3118800BF10BD000004ED00E09A
:101DC0002DE9FF4F85B0804689461746DDE912AB05
:101DD000B800FFF72FFC064656B14C20FFF72AFC4F
:101DE00004460CB1266304E03046FFF79FFD00E097
:101DF00000247CB10020CDE900ABCDE902403A4699
:101E000049464046089BFFF7FBFA2046FFF710FAC9
:101E1000012501E04FF0FF35284609B0BDE8F08FFD
:101E20000549096809B9012005E00449096809B9AB
:101E3000022000E0002070475C00002078000020B5
:101E40002DE9F0414FF0000841480068002872D1A8
:101E500040480068451C3F480560EDB93E480068B1
:101E6000006808B9012000E0002028B940F6D91226
:101E70003AA140A0FFF726F83748076841480068B4
:101E8000354908603F4807603F480068401C3E49AC
:101E90000860FFF77FFB00BF3C48006885423CD3E9
:101EA00000BF2D480068006808B9012000E000204C
:101EB00020B14FF0FF30354908602DE0264800681A
:101EC000C068C4686668B54202D23048066023E044
:101ED000201DFFF769FCA06A18B104F11800FFF794
:101EE00063FC94F82C1001208840294909680843B4
:101EF00027490860E16A01EB8101264A02EB810073
:101F0000211DFFF78FFC2449E06A0968C96A8842ED
:101F1000C7D34FF00108C4E700BF1F480068C06A7C
:101F200000EB80001B4951F82000012801D94FF037
:101F3000010805E0FFE719480068401C17490860E0
:101F40001748006808B14FF001084046BDE8F0812D
:101F50007800002054000020440000202E2E5C4613
:101F600072656552544F535C7372635C7461736B3A
:101F7000732E63004572726F723A25732C25640DBF
:101F80000A000000480000206800002070000020C7
:101F900058000020E00000204000002060000020E9
:101FA0006400002070B5002400263448006828B979
:101FB0004FF4FD6232A138A0FEF784FFFFF73EFC2C
:101FC0002E480068401E2D49086008460068002819
:101FD0004FD13548006800284BD024E03348C06812
:101FE000C46804F11800FFF7DFFB201DFFF7DCFBDE
:101FF00094F82C10012088402D49096808432C4989
:102000000860E16A01EB81012A4A02EB8100211D8F
:10201000FFF708FC2849E06A0968C96A884202D3C8
:102020000120264908602148006808B9012000E025
:1020300000200028D2D00CB1FFF7ACFA2048056888
:1020400065B100BFFFF7FCFE10B101201B4908601D
:102050006D1E002DF6D10020194908601748006850
:1020600038B10126300717490860BFF34F8FBFF31F
:102070006F8FFFF725FC304670BD00007800002010
:102080002E2E5C4672656552544F535C7372635CCE
:102090007461736B732E63004572726F723A2573AD
:1020A0002C25640D0A000000500000208803002049
:1020B00058000020E00000204000002064000020C4
:1020C0006000002004ED00E0E8200008000000208F
:1020D000A4000000E40E00088C210008A4000020E9
:1020E00024970000F40E000800A24A04000000003B
:1020F00000000000010203040607080900000000B8
:102100000102030401020304060708090204060889
:1021100000000000000000000000000000000000BF
:1021200000000000000000000000000000000000AF
:10213000000000000000000000000000000000009F
:10214000000000000000000000000000000000008F
:10215000000000000000000000000000000000007F
:10216000000000000000000000000000000000006F
:10217000000000000000000000000000AAAAAAAAB7
:0C21800000000000000000000000000053
:0400000508000131BD
:00000001FF
