:020000040800F2
:10000000E0970020DD010008E5170008F71400085C
:10001000E11700080D0E0008B120000800000000E4
:100020000000000000000000000000004501000882
:10003000351300080000000089010008E11A0008DB
:10004000F7010008F7010008F7010008F7010008B0
:10005000F7010008F7010008F7010008F7010008A0
:10006000F7010008F7010008F7010008F701000890
:10007000F7010008F7010008F7010008F701000880
:10008000F7010008F7010008F7010008F701000870
:10009000F7010008F7010008F7010008F701000860
:1000A000F7010008F7010008F7010008F701000850
:1000B000F7010008F7010008F7010008F701000840
:1000C000F7010008F7010008F7010008F701000830
:1000D000F7010008F7010008F7010008F701000820
:1000E000F7010008F7010008F7010008F701000810
:1000F000F7010008F7010008F7010008F701000800
:10010000F7010008F7010008F7010008F7010008EF
:10011000F7010008F7010008F7010008F7010008DF
:10012000F7010008F7010008F7010008F7010008CF
:10013000DFF80CD000F07CFB00480047CD29000818
:10014000E0970020224B19680868B0E8F00F80F3B0
:100150000988BFF36F8F4FF0000080F311884EF0D5
:100160000D0E70470000000006480068006880F32C
:10017000088862B661B6BFF34F8FBFF36F8F00DFA1
:1001800000BF00BF08ED00E0EFF30980BFF36F8F01
:100190000F4B1A6820E9F00F106008B54FF05000BF
:1001A00080F31188BFF34F8FBFF36F8F03F0ACFA6A
:1001B0004FF0000080F31188BDE808401968086816
:1001C000B0E8F00F80F30988BFF36F8F704700BF6E
:1001D00058000020EFF30580704700000648804774
:1001E00006480047FEE7FEE7FEE7FEE7FEE7FEE71C
:1001F000FEE7FEE7FEE7FEE7491B000831010008C5
:1002000040EA01039B0703D009E008C9121F08C098
:10021000042AFAD203E011F8013B00F8013B521E18
:10022000F9D2704730B480EA010202F0004530F0A4
:10023000004221F0004013D090B1C30DD40DC2F3A1
:100240001601C0F31600E41A41F4000140F4000264
:100250007D34914201D3641C00E04900002C02DA95
:1002600030BC002070474FF400000023914201D3BE
:10027000891A034340084FEA4101F7D151B1914235
:1002800002D14FF0004105E002D24FF0010101E040
:100290006FF0010103EBC450284430BC00F0EDB80E
:1002A0002DE9FE4F81EA030404F0004421F00041EF
:1002B00000944FF0000B23F0004350EA01045ED09D
:1002C00052EA03045BD0C3F30A54C1F30A552C4429
:1002D000A4F2F3340194A0FB0254C1F3130141F4DE
:1002E0008011C3F3130343F4801301FB024400FBAA
:1002F000034E840A970A44EA815447EA8357A4FBD1
:10030000076802958D0A05FB07854FEA932C04FBCD
:100310000C542705029D4FEA065847EA1637B5EBFD
:1003200008056EEB070C870E920E47EA811742EA2A
:100330008312A7FB0201B6EB0B0164EB00042B0D4B
:1003400043EA0C335E1844EB1C50DA465146E7FB97
:100350000201C5F313044FEA0B3343EA14534FEA87
:100360000432019C43EA0603A4F10C040294009CAD
:10037000CDE900B400F0C7F803B0BDE8F08F00206D
:100380000146F9E796230022114600F07FB800F0FD
:10039000004230F000400AD0C10D01F56071C0F399
:1003A000160042EA0151C20840071143704700207D
:1003B0000146704701F0004330B421F0004150EA9B
:1003C000010206D00A0DA2F56072C1F31301002AE2
:1003D00002DC30BC00207047440F44EAC104C10075
:1003E000E01830BC00EBC25000F047B830B50B4607
:1003F000014600202022012409E021FA02F59D4255
:1004000005D303FA02F5491B04FA02F52844151E28
:10041000A2F10102F1DC30BD2DE9F05F05460020BC
:1004200092469B4688460646814640241BE0284665
:1004300041464746224600F01CFA53465A46C01A27
:10044000914110D311461846224600F003FA2D1AA6
:1004500067EB01084F4622460120002100F0FAF91F
:1004600017EB00094E41201EA4F10104DFDC4846D1
:1004700031462A464346BDE8F09F0029A8BF704791
:10048000401C490008BF20F00100704710B4B0FACA
:1004900080FC00FA0CF050EA010404BF10BC704765
:1004A00049B1CCF1200421FA04F411FA0CF118BF7F
:1004B000012121430843A3EB0C01CB1D4FEA00614E
:1004C0004FEA102042BF002010BC704700EBC35021
:1004D00010440029A4BF10BC7047401C490008BF4D
:1004E00020F0010010BC704710B5141E73F1000419
:1004F00008DA401C41F1000192185B411A4301D116
:1005000020F0010010BD2DE9F04D92469B4611B13F
:10051000B1FA81F202E0B0FA80F22032904600F0A7
:1005200099F904460F4640EA0A0041EA0B01534696
:100530005A46084313D0114653EA010019D0C8F1B6
:100540004002504600F095F905460E465046594681
:10055000424600F07FF9084305D0012004E0204620
:100560003946BDE8F08D0020054346EAE0762C438D
:1005700037430A986305E40AA0EB08000022FD0A4D
:1005800044EA47540A3002D500200146E9E7010554
:1005900010196941DDE9084500196941BDE8F04DD0
:1005A000A2E72DE9FE4F804681EA0300C00F0C460A
:1005B000009021F0004123F00045B8EB0200A94172
:1005C00005D24046214690461C460B46024623F083
:1005D0000040104347D0270DC7F30A00C3F30A5168
:1005E0000290401A019040286BDAC3F3130040F4E4
:1005F000801B0098924620B10023D2EB030A63EBE4
:100600000B0B01985946C0F14002504600F022F908
:1006100006460D4650465946019A00F03AF910EB4D
:1006200008006141002487EA115284EAE7731A4303
:1006300040D0009A62B3019A012A4FEA075215DCB2
:10064000001B61EB02014FF0004202EA0752CDE9C4
:100650000042001C41F5801132462B46FFF753FF44
:1006600003B0BDE8F08F40462146F9E7001B61EB7F
:100670000201001C41F5801300185B412018A2F50F
:10068000001747EB030140EAD570B6196D4111E040
:100690006D084FEA360645EAC0754FEA0752001B5F
:1006A00061EB0201001C41F5801149084FEA30005E
:1006B0000019514132462B4603B0BDE8F04FFFF719
:1006C00013BF0098012240000023D0EB020263EB2D
:1006D000E073009821464FEAE074B8EB000061EB4C
:1006E0000401E9E783F000435BE781F0004158E74C
:1006F0002DE9F04D81EA030404F0004B21F00045A0
:1007000014464FF0000A23F0004150EA050220D0C1
:1007100054EA01021DD0C5F30A570246C5F313037C
:10072000C1F31300C1F30A5640F4801543F480135B
:10073000A7EB0608101BD64608F2FD3873EB050040
:1007400002D308F1010801E092185B41B8F1000FF3
:1007500003DA00200146BDE8F08D00204FF480113F
:10076000064684460EE0171B73EB050705D3121BE4
:1007700063EB050306434CEA010C49084FEA3000DD
:1007800092185B4150EA0107EDD152EA030012D002
:1007900082EA040083EA0501084305D0101BAB413F
:1007A00006D20122002306E000224FF0004302E0BF
:1007B0006FF0010253101AEB06004CEB085110EBDE
:1007C0000A0041EB0B01BDE8F04DFFF78DBEC1F310
:1007D0000A52C1F3130140F2FF3341F480119A42EF
:1007E00002DA00200146704740F233439A42A2F2F7
:1007F000334202DC524200F03CB800F02BB800005B
:1008000030B5041E71F1000404DB4FF00044404297
:1008100064EB0101141E73F1000405DB1C464FF06C
:100820000043524263EB0403994208BF904230BD3B
:10083000064C074D06E0E06840F0010394E807002D
:1008400098471034AC42F6D3FFF776FCC841000855
:10085000E8410008202A04DB203A00FA02F10020D7
:1008600070479140C2F1200320FA03F319439040EE
:100870007047202A04DB203A21FA02F00021704759
:1008800021FA02F3D040C2F12002914008431946F8
:100890007047202A06DBCB17203A41FA02F043EAE0
:1008A000E07306E041FA02F3D040C2F12002914029
:1008B00008431946704721B1826842F00102826004
:1008C00003E0826822F001028260704721B18268F1
:1008D00042F48072826003E0826822F48072826057
:1008E0007047014600208A6802F004020AB1012024
:1008F00000E000207047014600208A6802F00802EC
:100900000AB1012000E000207047000030B5024627
:100910000020002350680F4C20400D790C6844EAF9
:1009200005242043506090680B4C2040D1E90254CC
:100930002C434D7944EA450420439060D06A20F46A
:1009400070000C7C641EE4B2234340EA0350D06282
:1009500030BD0000FFFEF0FFFDF7F1FFF0B50446EB
:100960000D4600200021092D11DDE068A5F10A06E1
:1009700006EB4607072606FA07F18843A5F10A06A3
:1009800006EB460603FA06F10843E0600CE0206936
:1009900005EB4507072606FA07F1884305EB4506F0
:1009A00003FA06F108432061072A0FDA606B561E2E
:1009B00006EB86071F2606FA07F18843561E06EB4C
:1009C000860605FA06F10843606322E00D2A0FDA75
:1009D000206BD61F06EB86071F2606FA07F1884311
:1009E000D61F06EB860605FA06F10843206310E0E1
:1009F000E06AA2F10D0606EB86071F2606FA07F14C
:100A00008843A2F10D0606EB860605FA06F10843B7
:100A1000E062F0BD816841F008018160704721B15A
:100A2000826842F4A002826003E0826822F4A0029D
:100A300082607047816841F0040181607047000066
:100A400027E014480088FFF79DFC82464FF08B4159
:100A5000FFF7E8FB8146FFF79AFC07464FF0663246
:100A60000D4BFFF71DFC0546FFF7A4FC04460948A3
:100A700001880AA001F01EFB2046FFF788FC05460E
:100A80002A460B460EA001F015FB4FF47A7002F0D7
:100A9000C1FCD6E75600002066660A400D0A2054C5
:100AA00068652063757272656E74204144207661BA
:100AB0006C7565203D20307825303458200D0A00B3
:100AC0000D0A205468652063757272656E7420414A
:100AD000442076616C7565203D2025662056200DEA
:100AE0000A00000008B50121102000F0FDFE0220E0
:100AF000ADF8000000208DF803006946014800F0C1
:100B00001AFC08BD0010014010B5FFF7EBFF00F024
:100B100001F810BD00B591B00121084600F0C4FEF7
:100B20000121480200F0E0FE334800F03FFB33486B
:100B3000069033480790002008900120099000207B
:100B40000A900B904FF480700C9080000D90202044
:100B50000E9000020F900020109006A9264800F089
:100B6000CBFB0121244800F015FB002001908DF8FB
:100B7000080001208DF809004FF460200390002048
:100B8000049001208DF8140001A91C484C38FFF78F
:100B9000BDFE4FF4404000F07BFE052301220B21F7
:100BA00016484C38FFF7DAFE012114484C38FFF79D
:100BB0008DFE012111484C38FFF77DFE0F484C385F
:100BC000FFF728FF00BF0D484C38FFF794FE0028C0
:100BD000F9D10A484C38FFF72DFF00BF07484C38C1
:100BE000FFF77FFE0028F9D1012104484C38FFF7B8
:100BF00016FF11B000BD0000080002404C24014067
:100C0000560000207CB50546012402F021FB00229D
:100C10000121042002F038FE2F49086008460068D0
:100C200010B12EA001F046FA3948012100234A02F2
:100C3000CDE9001037A1394803F0BAF80446012C79
:100C400002D137A001F036FA3D48012100234A02C3
:100C5000CDE900103BA13E4803F0AAF80446012C60
:100C600002D13CA001F026FA4248012100234A02A9
:100C7000CDE9001040A1424803F09AF80446012C47
:100C800002D140A001F016FA4648012100234A0291
:100C9000CDE9001044A1464803F08AF80446012C2F
:100CA00002D144A001F006FA4A48012100234A0279
:100CB000CDE9001048A14B4803F07AF80446012C16
:100CC00002D149A001F0F6F94F48006802F0DEFBBE
:100CD00002F000FB7CBD000044000020EFBFBDEF30
:100CE000BFBDEFBFBDEFBFBD546573745F51756588
:100CF0007565EFBFBDEFBFBDCFA2EFBFBDEFBFBDFD
:100D0000EFBFBDD0B3C9B9EFBFBD0D0A00000000F1
:100D1000300000204B65795461736B00391700086F
:100D2000EFBFBDEFBFBDEFBFBDEFBFBD4B65795F8F
:100D30005461736BEFBFBDC9B9EFBFBD0D0A0000B1
:100D400034000020546573745461736B000000001C
:100D5000C91E0008EFBFBDEFBFBDEFBFBDEFBFBDF8
:100D6000546573745F5461736BEFBFBDC9B9EFBF56
:100D7000BD0D0A00380000204144435461736B00EC
:100D8000410A0008EFBFBDEFBFBDEFBFBDEFBFBD64
:100D90004144435F5461736BEFBFBDC9B9EFBFBD41
:100DA0000D0A00003C0000204C45445461736B0068
:100DB00065170008EFBFBDEFBFBDEFBFBDEFBFBD03
:100DC0004C45445F5461736BEFBFBDC9B9EFBFBD04
:100DD0000D0A00004000002054494D455461736BDA
:100DE00000000000A91B0008EFBFBDEFBFBDEFBFB3
:100DF000BDEFBFBD54494D455F5461736BEFBFBD3F
:100E0000C9B9EFBFBD0D0A002C00002000BFFEE7EE
:100E100008B50121092000F067FD01210F4800F00D
:100E200015FB2020ADF8000018208DF803000320EA
:100E30008DF8020069460A4800F07DFA0120ADF8FD
:100E400000006946064800F076FA0220ADF800007E
:100E50006946034800F06FFA08BD000000081A0058
:100E6000000C014010B5FFF7D3FF00F001F810BDF2
:100E700000B587B00121022000F026FDFF20ADF86B
:100E800014004FF47A60ADF810000020ADF81600A1
:100E9000ADF8120004A9184800F0C4FF6020ADF8B6
:100EA00000000120ADF802000020ADF8060002208D
:100EB000ADF808006946104800F0AEFE08210E4863
:100EC00000F0FCFE69460C4800F006FF08210A48C5
:100ED00000F052FF6946084800F058FF0821064814
:100EE00000F092FF0121044800F07EFE012102483B
:100EF00000F086FE07B000BD00040040074800680F
:100F000040F08070054908600020054948600846A7
:100F1000006840F00100086070470000FCED00E050
:100F2000001000E00148406870470000001000E039
:100F300031B50024FFF7E2FF104800681049B0FB0C
:100F4000F1F0009900FB01F500BFFFF7EBFF03464E
:100F500011E0FFF7E7FF02469A420CD09A4202D90D
:100F6000D01A044403E0C3F1FF3010440444134694
:100F7000AC4200D300E0ECE700BF38BD0000002029
:100F800040420F0000B585B00121042000F0ACFC08
:100F90000121880300F0A8FC4FF40070ADF81000A8
:100FA00018208DF8130003208DF8120004A91748AB
:100FB00000F0C1F94FF48060ADF8100004208DF806
:100FC000130004A9114800F0B6F94FF4E130009085
:100FD0000020ADF80400ADF80600ADF80800ADF84B
:100FE0000C000C20ADF80A006946094800F0F0FF3B
:100FF00000F0F9FB012240F22551054800F0C3FF43
:101000000121034800F0A6FF05B000BD0008014023
:101010000038014008B50121402000F065FC402067
:10102000ADF8000010208DF8030003208DF80200B9
:101030006946024800F07FF908BD00000018014031
:1010400010B5FFF7E7FF4021014800F052FA10BD4C
:101050000018014008B54020ADF8000048208DF888
:1010600003006946014800F066F908BD0018014018
:1010700008B54020ADF8000010208DF803000320D3
:101080008DF802006946024800F055F908BD0000DD
:101090000018014070B50025002424E000BF402165
:1010A000134800F01BFA0028F9D02820FFF740FF72
:1010B00040210F4800F012FA01280DD100BF402155
:1010C0000B4800F00BFA0128F9D0C4F10701012008
:1010D0008840C0B2054304E0C4F107010120884004
:1010E0008543601CC4B2082CD8DB284670BD0000C4
:1010F0000018014010B50446FFF7BAFF402124480C
:1011000000F0F5F944F25060FFF712FF402120484B
:1011100000F0EFF91E20FFF70BFFFFF79BFF4021C8
:101120001B4800F0DBF970BB00BF4021184800F0FD
:10113000D5F90028F9D000BF4021154800F0CEF9BC
:101140000128F9D0FFF7A6FF2070FFF7A3FF60701A
:10115000FFF7A0FFA070FFF79DFFE070FFF79AFF79
:101160002071FFF785FF4021094800F0C2F920787F
:1011700061780844A1780844E178084421798842DC
:1011800002D1012010BD01E00020FBE70020F9E7BB
:101190000018014021B1026842F00102026004E03F
:1011A00002684FF6FE731A400260704701684FF6FE
:1011B000FE72114001600021016041608160C160E8
:1011C0004B49884208D14A490839496841F00F0122
:1011D000474A083A51608AE045491431884208D1AB
:1011E00043490839496841F0F001414A083A5160E1
:1011F0007DE03F492831884208D13D490839496896
:1012000041F470613A4A083A516070E038493C3123
:10121000884208D136490839496841F47041344A56
:10122000083A516063E032495031884208D1304970
:101230000839496841F470212D4A083A516056E056
:101240002B496431884208D129490839496841F459
:101250007001274A083A516049E0254978318842AF
:1012600008D123490839496841F07061204A083A99
:1012700051603CE01F49884206D1011F096841F0D6
:101280000F01021F116032E01A491431884208D15F
:101290001849091F096841F0F001164A121F116030
:1012A00025E014492831884208D11249091F0968EC
:1012B00041F470610F4A121F116018E00D493C3172
:1012C000884208D10B49091F096841F47041094A55
:1012D000121F11600BE007495031884207D10549C0
:1012E000091F096841F47021024A121F11607047FA
:1012F000080002400804024010B50022026847F6C8
:10130000F0739A430C6A8B6823430C6923434C693E
:1013100023438C692343CC6923434C6A23438C6A5F
:1013200023431A430260CB6843600B6883604B68B9
:10133000C36010BD70472DE9F0410246002500262C
:10134000002000230024002791F803C00CF00F05B3
:1013500091F803C00CF0100CBCF1000F03D091F811
:1013600002C04CEA050591F800C0BCF1000F31D075
:10137000146800202BE04FF0010C0CFA00F3B1F8D8
:1013800000C00CEA03069E4220D183004FF00F0CF0
:101390000CFA03F7BC4305FA03FC4CEA040491F889
:1013A00003C0BCF1280F06D14FF0010C0CFA00FC71
:1013B000C2F814C00AE091F803C0BCF1480F05D18F
:1013C0004FF0010C0CFA00FCC2F810C0401C0828B9
:1013D000D1D31460B1F800C0BCF1FF0F34DD546804
:1013E00000202EE000F1080C4FF0010808FA0CF381
:1013F000B1F800C00CEA03069E4221D183004FF0F1
:101400000F0C0CFA03F7BC4305FA03FC4CEA040486
:1014100091F803C0BCF1280F05D100F1080C08FABF
:101420000CF8C2F8148091F803C0BCF1480F07D142
:1014300000F1080C4FF0010808FA0CF8C2F810800F
:10144000401C0828CED35460BDE8F081F0B50A46B0
:10145000002300240021002500F00046B6F1004FD3
:1014600002D11D4EF16901E01B4E7168C0F30345C6
:1014700083B200F44016B6F5401F08D121F0706128
:10148000154E766826F07066134F7E6012E000F409
:101490008016B6F5801F06D1032606FA05F4A1438F
:1014A00041F0706106E0460D360103FA06F6B143DD
:1014B00041F0706122B1460D360103FA06F6314360
:1014C00000F00046B6F1004F02D1034EF16101E099
:1014D000014E7160F0BD0000000001400246002096
:1014E00093680B400BB1012000E000207047416180
:1014F00070470161704700BFFEE7000010B5012191
:101500000348FFF7EBFF012800D110BD0020FCE7E6
:101510000008014010B54FF400510448FFF7DEFF0A
:10152000012800D110BD0020FCE7000000100140A0
:1015300010B54FF400510448FFF7D0FF012800D147
:1015400010BD0020FCE700000010014070B505460A
:10155000304800EB05142068804700283ED02079F1
:101560000A2802DA0A20207152E02079142803DACE
:101570002079401C20714BE0A07A38B90120A0727C
:1015800005EB4501491CC8B200F094F820890028F9
:101590003EDDE088218988420DDAE088401C80B277
:1015A000E0802189884233D105EB4501C91CC8B2CE
:1015B00000F080F82CE0E07A002829DD207B401C38
:1015C000C0B22073E17A884222DB0020207305EB51
:1015D0004501491CC8B200F06DF819E020790A28CD
:1015E00002DD0A20207110E0207918B12079401E18
:1015F00020710AE0A07A012807D10020A07205EB33
:101600004501891CC8B200F055F80020E080207325
:1016100070BD0000BC0000200B48807A0A4AD27AD4
:10162000904201D1002070470748807A064A115C39
:101630001046807A401CC0B290720A2801DB00205C
:1016400090720846EFE70000EC0000200021144AE9
:101650009172D172002018E0C821124A02EB0012E8
:10166000118105210F4A02EB0012117100210D4A70
:1016700002EB001291720B4A02EB0012D172094A7E
:1016800002EB00121173411CC8B20328E4DB0649C7
:10169000044A116005491161054911627047000053
:1016A000EC000020BC000020FD1400081515000807
:1016B000311500080649C97A054A50541146C97ABD
:1016C000491CC9B2D1720A2901DB0021D1727047CD
:1016D000EC00002008B50121142000F005F90420D9
:1016E0008DF803000120ADF8000069460A48FFF7B5
:1016F00022FE4FF40050ADF8000069460748FFF79E
:101700001AFE4FF40050ADF8000069460348FFF799
:1017100012FEFFF79BFF08BD0008014000100140CA
:1017200010B5002404E02046FFF710FF601CC4B28F
:10173000032CF8DB10BD000008B500BF0FE0FFF779
:101740006BFF00909DF8000030B100231A466946F7
:101750000348006802F006FA022001F05BFEEEE7A3
:101760004400002008B5012420E000235A1E6946E9
:101770000F48006802F0C4F80446012C12D19DF80D
:101780000000012804D10B490870FF2000F026F961
:101790009DF80000022809D100200649087000F0D9
:1017A0001DF903E0214604A000F084FCDDE7000001
:1017B0004400002028000020EFBFBDEFBFBDEFBFF9
:1017C000BDDDBDEFBFBDEFBFBDD5B3EFBFBDEFBF4B
:1017D000BDEFBFBD203078256C780D0A00000000F9
:1017E00000BFFEE7704708B54FF4A06000F046F870
:1017F00025208DF8000001208DF801008DF80200F1
:101800008DF80300684600F001F808BD70B50021AE
:1018100000230F22C47804B3154C246804F4E06458
:10182000C4F5E064210AC1F10403CA40447804FA13
:1018300003F184781440214309010E4C0678A15528
:10184000047804F01F050124AC4005786D11AD004B
:1018500005F1E025C5F8004109E0047804F01F0512
:101860000124AC40044D0678761145F8264070BD41
:101870000CED00E000E400E080E100E002490143FB
:10188000024A1160704700000000FA050CED00E00C
:1018900001460020034A506820F44040084350604D
:1018A000704700000010024029B1064A5269024305
:1018B000044B5A6104E0034A52698243014B5A6166
:1018C000704700000010024029B1064AD269024365
:1018D000044BDA6104E0034AD2698243014BDA61C6
:1018E000704700000010024029B1064A9269024385
:1018F000044B9A6104E0034A92698243014B9A6166
:10190000704700000010024030B500210022002482
:1019100000232D4D6D6805F00C0121B1042905D07F
:10192000082923D105E0294D056022E0274D0560F7
:101930001FE0254D6D6805F47012234D6D6805F4A8
:101940008034022505EB92421CB9214D55430560B8
:101950000BE01D4D6D6805F400351DB11C4D554360
:10196000056002E0194D5543056002E0174D056022
:1019700000BF00BF144D6D6805F0F0010909154D59
:101980006B5C0568DD4045600F4D6D6805F4E061F6
:10199000090A104D6B5C4568DD4085600A4D6D6835
:1019A00005F46051C90A0B4D6B5C4568DD40C560AC
:1019B000054D6D6805F44041890B074D6B5CC568AA
:1019C000B5FBF3F5056130BD0010024000127A004E
:1019D00000093D001400002024000020C0F307414E
:1019E000044A1180C0F30721121D1180C1B2121DDB
:1019F000118070473804004010B500F001F810BDA8
:101A00000CB50020019000903348006840F480300D
:101A10003149086000BF3048006800F40030009091
:101A20000198401C0190009818B90198B0F5A06F7A
:101A3000F1D12948006800F4003010B10120009075
:101A400001E0002000900098012843D1234800685D
:101A500040F01000214908600846006820F00300AB
:101A600008600846006840F0020008601A484068B4
:101A7000194948600846406848600846406840F494
:101A8000806048600846406820F47C104860084642
:101A9000406840F4E81048600846006840F08070F4
:101AA000086000BF0C48006800F000700028F9D002
:101AB0000948406820F0030007494860084640682C
:101AC00040F00200486000BF0348406800F00C008E
:101AD0000828F9D10CBD000000100240002002408F
:101AE00010B51648007880B11548006841F287317A
:101AF000884205D212480068401C1149086007E07E
:101B000041F287300E49086002E000200C4908606D
:101B10000C480068042805D20A480068401C09499E
:101B2000086004E000200749086000F0FFF902F0B7
:101B30006FF9012801D001F08DFE10BD28000020B2
:101B4000500000204800002010B51348006840F005
:101B500001001149086008464068104908400E49D4
:101B60004860084600680E4908400B49086008466E
:101B7000006820F4802008600846406820F4FE00D9
:101B800048604FF41F008860FFF736FF4FF0006099
:101B90000449086010BD0000001002400000FFF87A
:101BA000FFFFF6FE08ED00E0002412E054B90948FA
:101BB000006841F2873188420BD107A000F07AFA21
:101BC000012406E00348006841F28731884200D0D2
:101BD0000024EBE75000002074696D65203D20353E
:101BE00073200D0A0000000021B1028842F080023B
:101BF000028004E002884FF67F731A40028070472B
:101C000021B1028842F00102028004E002884FF60E
:101C1000FE731A400280704770B500240022002332
:101C2000058C4FF6EF7635400584028C8388048B53
:101C300048F6FF752C404FF6FF452C400D884FF6B7
:101C4000FF7606EA05252C434FF6DF752A400D89FD
:101C500006EA05152A434D8806EA05152A43154D5F
:101C6000A84202D0144DA8421DD14FF67F752A40DC
:101C70004D894FF6FF7606EA05152A434FF6BF75E4
:101C80002A408D8806EA05152A434FF6FF352B407A
:101C90004FF2FF752B408D8906EA85052B43CD89D0
:101CA00006EA85052B4383800483CD88058702845B
:101CB00070BD0000002C0140003401400A460021A4
:101CC000018B4FF2FF7319404FF6FF7303EA0223B3
:101CD000194301837047000070B5002400220023DF
:101CE000058C4FF6FF6635400584028C8388848B13
:101CF0004FF68F752C404FF6FC752C400D882C4309
:101D00004FF6FF552A400D894FF6FF7606EA052566
:101D10002A434D8806EA05252A43154DA84202D0DC
:101D2000144DA8421DD14FF2FF752A404D894FF640
:101D3000FF7606EA05252A434FF6FF352A408D88AF
:101D400006EA05252A434EF6FF752B404DF6FF7532
:101D50002B408D8906EA05152B43CD8906EA05152A
:101D60002B4383808483CD888587028470BD0000E7
:101D7000002C0140003401400A460021818B4FF6BF
:101D8000F7731940114381837047000070B500223A
:101D900000230024058C4EF6FF7635400584038C25
:101DA0008488828B48F6FF752A404FF6FF452A400B
:101DB0000D884FF6FF7606EA05252A434DF6FF7596
:101DC0002B400D8906EA05352B434D8806EA05357B
:101DD0002B430B4DA84202D00A4DA84208D14BF626
:101DE000FF752C408D894FF6FF7606EA85152C434A
:101DF00084808283CD88A0F84050038470BD0000A9
:101E0000002C0140003401400A460021818B4FF232
:101E1000FF7319404FF6FF7303EA022319438183CE
:101E200070470000002202881D4B98420ED01D4BC7
:101E300098420BD0B0F1804F08D01B4B984205D090
:101E40001A4B984202D01A4B984204D14FF68F7326
:101E50001A404B881A43174B984207D0164B9842AA
:101E600004D04FF6FF431A40CB881A4302808B8878
:101E700083850B8803850A4B98420BD0094B984207
:101E800008D00E4B984205D00D4B984202D00D4B16
:101E9000984201D10B7A03860123838270470000A8
:101EA000002C0140003401400004004000080040C4
:101EB000000C0040001000400014004000400140B1
:101EC00000440140004801400EB51FE010A000F0A2
:101ED000F1F801F011FC01A8FFF70CF901280CD171
:101EE0009DF8070000909DF806309DF805209DF8AC
:101EF0000410084800F0DEF802E007A000F0DAF86D
:101F000002F0A4F84FF4FA6001F084FADEE7000072
:101F1000310D0A0070410008526561642044485444
:101F20003131204552524F52210D0A0010B5084858
:101F30000088012805DA06480088401C044908800A
:101F400004E0002002490880FFF7EAFB10BD000012
:101F50005400002021B1828942F40052828104E0C1
:101F600082894DF6FF731A40828170470246002035
:101F7000B1F5007F00D100BF13880B400BB10120E9
:101F800000E000207047F0B503460024002600253D
:101F9000002040F66A17B94200D100BF1846C1F3CD
:101FA000421401F01F06012707FA06F5012C01D1A2
:101FB0000C3004E0022C01D1103000E014301AB1D2
:101FC00007682F43076002E00768AF430760F0BD72
:101FD0002DE9F04786B005460E460024A24600BF14
:101FE000A1460027B08900B100BF2F462C8A4CF6CD
:101FF000FF700440F08804432C82AC894EF6F31045
:102000000440B08831890843718908430443AC8196
:10201000AC8A4FF6FF400440B0890443AC8201A86B
:10202000FFF772FC1F48874202D1DDF810A001E0E3
:10203000DDF80CA0A88900F4004040B10AEBCA000A
:1020400000EB0A1031684900B0FBF1F807E00AEB39
:10205000CA0000EB0A1031688900B0FBF1F8642077
:10206000B8FBF0F004012009642101FB1089A88964
:1020700000F4004040B1322000EBC900B0FBF1F0A9
:1020800000F00700044308E0322000EB091064214F
:10209000B0FBF1F000F00F0004432C8106B0BDE866
:1020A000F087000000380140C1F3080282807047C9
:1020B00000BFFEE70FB4054B10B503A9044A029810
:1020C00000F0DAF810BC5DF814FB0000A929000844
:1020D000B800002002E008C8121F08C1002AFAD187
:1020E00070477047002001E001C1121F002AFBD198
:1020F000704700002DE9FF5F82B00021DDE9043068
:10210000020DDDF840B0034318D044F61050A2F29F
:10211000FF3242431514119801281FD0A5EB0B0084
:10212000401C5FEA000A4FF000064E4FDFF838917E
:10213000B046504615D5CAF1000413E011980124A9
:102140004AA3012801D16FEA0B010298119AC0E954
:102150000031C0E9024206B0BDE8F09FCBF10000BB
:10216000DFE704460021404A491842EB0450CDE91C
:10217000001012E0E00707D032463B464046494691
:10218000FEF78EF88046894632463B461046194691
:10219000FEF786F806460F466410002CEAD1DDE90A
:1021A0000401DDE90023BAF1000F06DAFEF778F842
:1021B00042464B46FEF774F805E0FEF799FA4246B0
:1021C0004B46FEF795FA04460E460022284BFEF7D2
:1021D00017FB03D84FF0FF30014607E00022254BE4
:1021E00020463146FEF7DDF9FEF7F1FA102409E04A
:1021F000002C0ADB0A220023FEF70EF9039B303283
:102200001A55641E50EA0102F2D1641C039AC4F10B
:1022100011031444119A012A03D0012208430DD15D
:102220000AE0084304D000204FF0110B119072E730
:10223000A3EB0B056D1E0DE05B4504DD4FF00002C6
:1022400005F1010504E003DA4FF00002A5F10105F4
:10225000002AECD002981199C0E90231C0E900458A
:1022600079E70000000014400000F03F300000005B
:102270000000F0430000E03F2DE9FF4F95B09B4682
:102280008946064600250FE2252877D100242746F7
:10229000F84A0121059400E0044316F8013F203B71
:1022A00001FA03F01042F7D130782A2811D06FF0EC
:1022B0002F033078A0F13002092A16D8059A44F08D
:1022C000020402EB820203EB42021044761C0590EA
:1022D000EFE759F8042B0592002A03DA504244F440
:1022E0000054059044F00204761C30782E2816D154
:1022F00016F8010F44F004042A280DD06FF02F02C5
:102300003078A0F13003092B09D807EB870302EBE3
:102310004303C718761CF3E759F8047B761C307822
:102320006C280FD006DC4C2817D068280DD06A28FE
:1023300014D104E0742810D07A280FD10DE044F4B1
:1023400000140AE044F4801401E044F4401472786C
:10235000824202D104F58014761C761C30786628FF
:102360000BD013DC582877D009DC002875D045281D
:10237000F6D04628F4D047281AD19DE118E063280A
:1023800035D0642879D0652812D195E1702873D0B2
:1023900008DC6728F1D069286FD06E280DD06F282F
:1023A00006D1B5E073282CD0752875D0782874D064
:1023B0005A46179990476D1C75E1C4F302500228E4
:1023C00009D003280DD0D9F8001004280DD00D60D5
:1023D00009F1040967E1D9F80010EA17C1E90052D0
:1023E000F6E7D9F800100D80F2E70D70F0E719F864
:1023F000041B8DF8001000208DF80100EA46012032
:1024000003E059F804AB4FF0FF3061074FF00001D3
:1024100002D40DE008F101018846B9420FDA804587
:10242000F8DB1AF808100029F4D108E008F10101DE
:1024300088468142FADB1AF808100029F6D105987F
:102440005B46A0EB080721463846179A00F094FA3D
:10245000284400EB080507E04DE029E10DE01AF8FB
:10246000010B5A4617999047B8F10108F7D25B461D
:1024700021463846179A13E142E00A220092C4F33B
:1024800002524FF0000A022A08D059F804CB032A5E
:102490004FEAEC710AD00DE029E02AE009F10701CA
:1024A00021F00702F2E802C1914609E00FFA8CFC24
:1024B0004FEAEC71042A03D14FFA8CFC4FEAEC711D
:1024C000002907DA0A460021DCF1000C61EB020169
:1024D0002D2202E0220504D52B228DF804200122B2
:1024E00003E0E20701D02022F7E7904659E00A21F5
:1024F00002E010220DE010214FF0000A00910BE0E5
:1025000010224FF0000A44F004040827009203E070
:1025100008224FF0000A0092C4F30252022A05D0AA
:1025200059F804CB0021032A08D009E009F107017A
:1025300021F00702F2E802C1914605E01FFA8CFC87
:10254000042A01D10CF0FF0C4FF00008220728D517
:10255000702806D0009B83F0100353EA0A0305D0CD
:102560000EE040228DF80420012208E05CEA01021E
:1025700006D030228DF804208DF805000222904606
:10258000009B83F0080353EA0A030AD15CEA0102C4
:1025900001D1620705D530228DF804204FF00108E3
:1025A0007F1E582804D034A003900EA802900DE09E
:1025B00036A0F9E753466046009AFDF72DFF8446A2
:1025C0000398825C0298401E029002705CEA01004F
:1025D000F0D1029806A9081A00F1200A600702D576
:1025E00024F4803400E00127574502DDA7EB0A0000
:1025F00000E0002000EB0A01009005984144401AD9
:102600000590E00306D45B462146179A059800F032
:10261000B3F90544002706E001A85A46C05D1799A2
:1026200090476D1C7F1C4745F6DBE0030CD55B46ED
:102630002146179A059800F09FF9054404E03020E0
:102640005A46179990476D1C0099481E0090002922
:10265000F5DC08E0029802995A460078491C02917C
:10266000179990476D1CBAF10001AAF1010AF1DC3B
:1026700065E1000009280100303132333435363746
:1026800038396162636465660000000030313233BE
:10269000343536373839414243444546000000005E
:1026A00000F058F90544761C307800287FF4ECAD32
:1026B00019B02846BDE8F08F620700D4062709F15B
:1026C000070222F0070CFCE80223E14603F0004871
:1026D0005FEA080C02D00FF2702C0DE05FEA045C98
:1026E00002D50FF2682C07E05FEAC47C02D00FF23B
:1026F000602C01E0AFF2700C4FF0FF3823F0004384
:10270000CDF850C065280CD006DC452809D04628F5
:102710001DD047283DD13DE0662818D067287ED1DE
:1027200038E00021112F01DB112000E0781CCDE9F9
:10273000000106A90EA8FFF7DDFCDDE90F010E9AE6
:1027400003910021009207F1010A04914DE04FF03E
:1027500000400097CDE9011006A90EA8FFF7CAFCBA
:10276000DDE90F0203920E9B11990022DDF80CA007
:102770000093049211B9791C00EB010AB7EB0A002F
:1027800004D4C0F1FF3007F1010A0490AAEB07005E
:10279000019044E0012F00DA01270021112F01DD13
:1027A000112000E03846CDE9000106A90EA8FFF788
:1027B000A1FCDDE90F010E9A039100210491009222
:1027C000BA4621070CD40399514500DA8A46BAF17A
:1027D000010F05DD009AAAF10101515C302908D0F2
:1027E000B84202DA10F1040F06DA0121CDE9011036
:1027F00015E0AAF10101E9E7002805DC049901448C
:102800000491AAEB000102E0411C514500DD8A461B
:102810000499401A401C01904FF00040029020079C
:1028200004D40198504501DBCDF8048000208DF8D8
:102830004F0002980DF14F07B0F1004F25D02B202B
:102840000E9002984FF0020800280CDA40420290E5
:102850002D200E9007E00A210298FDF7C7FD3031C8
:10286000029007F8011DB8F10001A8F10108F2DC9F
:1028700002980028EFD1791E0E980870307800F089
:10288000200040F0450007F8020D12A8C01B00F11F
:1028900007081498007800B1012000EB0A010198A4
:1028A00001EBE07105984144401A401E0590E00399
:1028B00006D45B462146179A059800F05DF805445A
:1028C0001498007818B15A46179990476D1CE00388
:1028D00024D55B462146179A059800F04DF805442B
:1028E0001CE00498002807DBDDE90301884203DDD2
:1028F0000098405C179901E0179930205A4690479C
:10290000049805F10105401C04900198401E0190B7
:1029100004D12E205A46179990476D1CBAF1000138
:10292000AAF1010ADDDC05E017F8010B5A461799F8
:1029300090476D1CB8F10001A8F10108F4DC5B467A
:102940002146179A0598ABE62D0000002B000000E9
:10295000200000002DE9F041044600251E461746E0
:10296000880404D405E039462020B0476D1C641E5D
:10297000F9D52846BDE8F0812DE9F041044600254F
:102980001E469046C80301D5302700E02027880462
:1029900004D505E041463846B0476D1C641EF9D5A4
:1029A0002846BDE8F081000070B504460D46E1B24E
:1029B0000548FFF779FB00BF80210348FFF7D6FAEF
:1029C0000028F9D0204670BD003801401CB5012414
:1029D000FEF7D8FAFEF77EFEFEF732FBFEF794F81C
:1029E000FEF740FA0BA0FFF765FB0D48012100231D
:1029F0004A02CDE900100BA10E4801F0D9F90446B6
:102A0000012C02D100F024FE02E04FF0FF301CBD8B
:102A100000BFFEE74672656552544F530D0A000031
:102A20002C0000204170705461736B4372656174B7
:102A300065000000050C00082DE9F04105460E4632
:102A40001C4807681C480068001D00F0B7FB50B91F
:102A50001948006890F82C1001208840174909682F
:102A6000814316480160681C38B936B112480168C4
:102A7000091D134800F0E0FB1AE07C190E480068BD
:102A80004460BC4207D20C480168091D0D4800682B
:102A900000F0B8FB0CE008480168091D0A4800680E
:102AA00000F0B0FB09480068844201D20748046086
:102AB000BDE8F0816C00002058000020700000206C
:102AC000C8030020600000205C0000208800002077
:102AD00010B5044600F0BCFB23480068401C2249A6
:102AE00008602248006840B9204804600846006831
:102AF00001280DD100F094F90AE01D48006838B9AA
:102B00001A480068C06AE16A884201D81748046020
:102B100018480068401C1749086094F82C100120E0
:102B2000884015490968084313490860E16A01EBC8
:102B30008101124A02EB8100211D00F07DFB00F0B3
:102B4000C9FB0B48006868B108480068C06AE16AC0
:102B5000884207D24FF0805009490860BFF34F8F79
:102B6000BFF36F8F10BD00006800002058000020E8
:102B7000740000208400002070000020F800002075
:102B800004ED00E070B523E000F0B6FD13480068E6
:102B900008B9012000E00020054601F057FABDB950
:102BA00000F056FB0D48C068C468201D00F006FB0D
:102BB0000B480068401E0A4908600A480068401E29
:102BC0000849086000F086FB204600F057F800BF77
:102BD000044800680028D7D170BD0000B40300206D
:102BE000680000206400002070B504460D46206C8B
:102BF00070B1216CE0680844E0606168E068884278
:102C000001D32068E0602846226CE168FDF7F8FAFD
:102C100070BD2DE9F04104460F4615464FF00008FF
:102C2000A66B206C28B37DB93946226CA068FDF7ED
:102C3000E7FA216CA0680844A060D4E9011088423A
:102C400017D32068A06014E03946226CE068FDF7D5
:102C5000D7FA216CE068401AE0602168E068884299
:102C600003D2216C6068401AE060022D01D106B1E8
:102C7000761E701CA0634046BDE8F08110B5044686
:102C8000206B00F05DFB204600F05AFB10BD0000F9
:102C900030B54FF41043174800F007042CB1C01DA5
:102CA00020F00700134C041B1B1B0246124C226031
:102CB0000024114D6C60D018083820F007000F4C2C
:102CC000206000240D4D2D686C600C4D2D682C602B
:102CD0001146441A4C60094C24680C60084D4C683D
:102CE0002C60084D4C682C604FF00044064D2C6061
:102CF00030BD0000DC030020940000209C00002078
:102D0000A4000020A0000020A800002000BFFFF7C2
:102D100039FF064800680128F9D94FF0805004496E
:102D20000860BFF34F8FBFF36F8FF0E7F80000200C
:102D300004ED00E02DE9F04106460D4617469846A1
:102D4000069C0DB9246000E02760E663256401213C
:102D5000204600F0ADFEBDE8F08100002DE9FF5FE8
:102D600081460E469246DDE90E7B109CAAF10100D9
:102D7000216B01EB800828F0070808F0070008B96C
:102D8000012000E0002028B940F22B321AA120A037
:102D9000FFF790F9002507E0715D04F1340041551B
:102DA000705D00B902E06D1C102DF5D300BF00214D
:102DB00043200155202F00D31F27E762201D00F07C
:102DC0001EFA04F1180000F01AFA2461C7F120007D
:102DD000A06164620020606484F84800494640466F
:102DE000039A00F0D9F92060BBF1000F01D0CBF8B5
:102DF0000040BDE8FF9F00002E2E5C4672656552C4
:102E0000544F535C7372635C7461736B732E630015
:102E10004572726F723A25732C25640D0A0000000A
:102E200010B5002407E004EB84010F4A02EB810097
:102E300000F0D8F9641C202CF5D30C4800F0D2F92E
:102E40000B4800F0CFF90B4800F0CCF90A4800F02D
:102E5000C9F90A4800F0C6F904480949086004485D
:102E60000849086010BD0000F80000207803002029
:102E70008C030020A0030020B4030020C80300201E
:102E80005C0000206000002010B50146164800E0FC
:102E9000006803688B42FBD30246436813448B42AD
:102EA00004D143684C682344436001460A464B689A
:102EB00013440468A34211D10C4C03682468A34254
:102EC00008D04B680468646823444B6003681B683F
:102ED0000B6005E0054B1B680B6001E003680B60AD
:102EE000884200D0016010BD940000209C000020AA
:102EF00070B5054600F0ACF9A86B08B9012400E0F4
:102F0000002400F0E7F9204670BD70B5054600F0DA
:102F10009FF9A86BE96B884201D1012400E00024ED
:102F200000F0D8F9204670BD0A490968096809B956
:102F3000012100E0002121B14FF0FF31064A11606C
:102F400006E004490968C968C868034A4168116015
:102F5000704700005C000020880000200B480068DB
:102F6000401C08B9012000E0002020B9F42208A18B
:102F700011A0FFF79FF800BF502080F31188BFF326
:102F80004F8FBFF36F8F00BF00BFFEE7AC00002084
:102F90002E2E5C4672656552544F535C706F72748E
:102FA0005C525644535C41524D5F434D335C706FED
:102FB00072742E63000000004572726F723A2573BE
:102FC0002C25640D0A00000070B5044600F040F99D
:102FD00094F9455010E0606A08B9012000E0002033
:102FE00038B904F1240000F0D5FF18B100F0D6FA8A
:102FF00000E003E0681E45B2002DECDC00BFFF20BE
:1030000084F8450000F066F900F022F994F9445084
:1030100010E0206908B9012000E0002048B904F15F
:10302000100000F0B7FF08B100F0B8FA681E45B212
:1030300000E001E0002DECDC00BFFF2084F844003C
:1030400000F048F970BD00002DE9F04104464FF052
:10305000000800F051FB3E48006808B9FFF718FE71
:103060003C480068204000285FD1A4B1083404F037
:10307000070080B104F00700C0F10800044404F028
:10308000070008B9012000E0002020B9BF2232A1CA
:103090003AA0FFF70FF8002C47D03C480068844264
:1030A00043D83B4E3046056801E02E462D686868DF
:1030B000A04202D228680028F7D12548006885423E
:1030C00033D0306800F10808286830606868001B59
:1030D000102813D92F1907F0070008B9012000E0C4
:1030E000002020B9EC221CA124A0FEF7E3FF6868B1
:1030F000001B78606C603846FFF7C6FE234968689D
:103100000968081A214908600846006821490968C9
:10311000884203D21D4800681E4908600D4968684E
:103120000968084368600020286000F08FFF08F0FD
:10313000070008B9012000E0002028B94FF496727A
:1031400005A10EA0FEF7B6FF4046BDE8F0810000E5
:103150009C000020A80000202E2E5C46726565525F
:10316000544F535C706F72745C4D656D4D616E674A
:103170005C686561705F342E630000004572726F99
:10318000723A25732C25640D0A000000A00000206F
:1031900094000020A4000020001F4FF08073036003
:1031A000001F21F001030360001F034B036014386C
:1031B00002602038704700005D2F000801460A6950
:1031C000D1E901309860D1E9010358605068884224
:1031D00001D188685060002008611068401E1060AE
:1031E0001068704700F1080141604FF0FF318160C5
:1031F00000F10801C16001610021016070470021F8
:103200000161704710B502460B685C1C0CB910696F
:1032100007E002F1080000E04068446824689C422E
:10322000FAD944684C604C68A160886041600A61CA
:103230001468641C146010BD42684A6093688B6017
:10324000936859609160086103685B1C0360704774
:1032500010B500BF502080F31188BFF34F8FBFF32C
:103260006F8F00BF0B480068401C0A490860084681
:10327000006801280DD108480068C0B208B90120D3
:1032800000E0002028B94FF4BD7204A10DA0FEF7A4
:1032900011FF10BDAC00002004ED00E02E2E5C46B6
:1032A00072656552544F535C706F72745C52564431
:1032B000535C41524D5F434D335C706F72742E63AB
:1032C000000000004572726F723A25732C25640D60
:1032D0000A00000010B50B48006828B940F28112BE
:1032E00009A113A0FEF7E6FE06480068401E054946
:1032F00008600846006820B9002080F3118800BFEC
:1033000000BF10BDAC0000202E2E5C4672656552D9
:10331000544F535C706F72745C525644535C41520C
:103320004D5F434D335C706F72742E63000000007C
:103330004572726F723A25732C25640D0A000000E5
:1033400070B506463546002E35D0083D2C461A4944
:1033500060680968084008B1012000E0002028B931
:103360004FF4A07215A11EA0FEF7A4FE206808B9B4
:10337000012000E0002028B940F241120FA118A05E
:10338000FEF798FE0C4960680968084098B120680B
:1033900088B90949606809688843606000F0ACF941
:1033A0001349606809680844114908602046FFF71E
:1033B0006BFD00F04BFE70BDA80000202E2E5C4679
:1033C00072656552544F535C706F72745C4D656DDD
:1033D0004D616E675C686561705F342E630000004C
:1033E0004572726F723A25732C25640D0A00000035
:1033F000A0000020064800684FF47A71B0FBF1F09D
:10340000401E4FF0E021486107200861704700002E
:103410000000002070B504460025ACB10F480068DC
:1034200008B9012000E0002028B940F2CF420CA1E9
:1034300011A0FEF73FFE00F05FF900212046FFF7E4
:10344000FBFA00F003FE05463DB94FF080500E49EF
:103450000860BFF34F8FBFF36F8F70BD90000020E7
:103460002E2E5C4672656552544F535C7372635CDA
:103470007461736B732E63004572726F723A2573B9
:103480002C25640D0A00000004ED00E070B505462F
:10349000FFF7DEFE15B92D48006800E02846044617
:1034A000201DFFF78BFE78B9E06A00EB8000284909
:1034B00051F8200040B994F82C100120884025498B
:1034C0000968814323480160A06A18B104F118001B
:1034D000FFF774FE20480068401C1F4908601B4825
:1034E0000068844209D1211D1C48FFF7A5FE1C4835
:1034F0000068401C1A49086009E01A480068401E2C
:10350000184908602046FFF7B9FBFFF70DFDFFF7EC
:10351000E1FE15480068C0B10C480068844214D12F
:103520001248006808B9012000E0002028B940F2E4
:1035300065420FA114A0FEF7BDFD4FF08050164963
:103540000860BFF34F8FBFF36F8F70BD580000202E
:10355000F80000207000002084000020B403002048
:10356000640000206800002074000020900000200B
:103570002E2E5C4672656552544F535C7372635CC9
:103580007461736B732E63004572726F723A2573A8
:103590002C25640D0A00000004ED00E00120014923
:1035A000086070477C00002070B504460D462CB9B9
:1035B00040F6063207A10DA0FEF77CFD0F4801681A
:1035C00018312046FFF71EFE01212846FFF734FA86
:1035D00070BD00002E2E5C4672656552544F535CE0
:1035E0007372635C7461736B732E63004572726FE8
:1035F000723A25732C25640D0A0000005800002043
:1036000010B504462CB940F6C13205A10AA0FEF758
:1036100051FD0D48006820600C480068606010BDD6
:103620002E2E5C4672656552544F535C7372635C18
:103630007461736B732E63004572726F723A2573F7
:103640002C25640D0A000000800000206C00002082
:103650001CB5184800210B468022CDE9001016A1A8
:10366000174800F0A5FB0446012C15D100BF5020DF
:1036700080F31188BFF34F8FBFF36F8F00BF4FF000
:10368000FF301049086001200F49086000200F49F1
:10369000086000F08FF80BE0601C08B1012000E02A
:1036A000002028B940F2847209A10FA0FEF702FDA4
:1036B0001CBD00008C00002049444C450000000067
:1036C0000D2D000888000020740000206C000020F0
:1036D0002E2E5C4672656552544F535C7372635C68
:1036E0007461736B732E63004572726F723A257347
:1036F0002C25640D0A00000002480068401C0149A6
:10370000086070479000002010B51B48006818B191
:1037100001201A4908602DE0002018490860184867
:103720000068B0FA80F0C0F11F0404EB8400154972
:1037300051F8200008B1012000E0002028B940F62F
:10374000F62211A116A0FEF7B5FC04EB84010D4A88
:1037500002EB810041684968416000F1080142685C
:103760008A4202D14168496841604168C968104A8B
:10377000116000BF10BD0000900000207C00002000
:1037800070000020F80000202E2E5C467265655205
:10379000544F535C7372635C7461736B732E63007C
:1037A0004572726F723A25732C25640D0A00000071
:1037B000580000201CB52248014609780191FF21DC
:1037C000024611700146097800919DF8001001F041
:1037D00050011C4A117007211B4A116009E01A4967
:1037E0000968491E184A11609DF800104906090E23
:1037F00000919DF8001001F080018029EFD012495E
:1038000009680902104A11601146098801F4E06153
:1038100011600B4A019911700C48006840F4700067
:103820000A4908600846006840F070400860FFF7E9
:10383000E1FD002006490860FCF796FC00201CBD55
:1038400000E400E0B0000020B400002020ED00E023
:10385000AC00002010B500BF502080F31188BFF3EA
:103860004F8FBFF36F8F00BF00F0E2FA18B14FF037
:1038700080500449086000BF002080F3118800BF19
:1038800010BD000004ED00E02DE9F84305460E46AA
:1038900090460DB1012000E0002028B94FF4C47219
:1038A0000DA113A0FEF706FC0EB9002701E005FBF1
:1038B00006F707F14800FFF7C7FB044644B104F1DF
:1038C000480943464A46314628460094FFF732FAF3
:1038D0002046BDE8F88300002E2E5C4672656552D6
:1038E000544F535C7372635C71756575652E63002C
:1038F0004572726F723A25732C25640D0A00000020
:103900002DE9FF4782B005460E461F464FF0000ADC
:103910002C462CB940F2DC425AA160A0FEF7CAFB4B
:103920000EB9206C08B9012000E0002028B940F24F
:10393000DD4254A159A0FEF7BDFB00F069FA08B9B9
:10394000049808B9012000E0002028B94FF49C62D7
:103950004CA152A0FEF7AEFB00BFFFF779FCD4F8F4
:103960003890B9F1000F38D0D4F80C803146204699
:10397000FFF73AF9B7B9A9F10100A063206908B9C6
:10398000012000E0002010BB04F1100000F002FB59
:10399000E8B14FF0805045490860BFF34F8FBFF347
:1039A0006F8F14E0C4F80C80606A08B9012000E051
:1039B000002060B904F1240000F0ECFA38B14FF0B7
:1039C00080503A490860BFF34F8FBFF36F8FFFF706
:1039D00081FC012006B0BDE8F087049818B9FFF714
:1039E00079FC0020F6E7BAF1000F04D16846FFF732
:1039F00007FE4FF0010AFFF76DFCFFF77DFEFFF7B2
:103A000027FC94F94400401C10B9002084F84400BD
:103A100094F94500401C10B9002084F84500FFF7D8
:103A200059FC04A9684600F071F9F0B92046FFF787
:103A30005FFAA0B104F124000499FFF7B5FD204618
:103A4000FFF7C2FA00F002FB002886D14FF0805049
:103A500016490860BFF34F8FBFF36F8F7DE7204695
:103A6000FFF7B2FA00F0F2FA77E72046FFF7ACFA78
:103A700000F0ECFA2046FFF73BFA0028EED00020D9
:103A8000A8E700002E2E5C4672656552544F535CC9
:103A90007372635C71756575652E63004572726F34
:103AA000723A25732C25640D0A00000004ED00E035
:103AB00070B505460E462C462CB940F21B121EA1CD
:103AC00023A0FEF7F7FAFFF7C3FBD4E90F12206833
:103AD00001FB020060600020A0632068A060E06B32
:103AE000401E226C216800FB0210E060FF2084F879
:103AF000440084F845009EB9206908B9012000E01F
:103B00000020A8B904F1100000F044FA80B14FF091
:103B1000805013490860BFF34F8FBFF36F8F07E0EA
:103B200004F11000FFF75EFB04F12400FFF75AFBDD
:103B3000FFF7D0FB012070BD2E2E5C4672656552EA
:103B4000544F535C7372635C71756575652E6300C9
:103B50004572726F723A25732C25640D0A000000BD
:103B600004ED00E02DE9FF4383B0064688461D467C
:103B70004FF0000934462CB940F2D92258A15EA07A
:103B8000FEF798FAB8F1000F01D1206C08B90120B6
:103B900000E0002028B940F2DA2251A156A0FEF739
:103BA00089FA022D02D1E06B012801D1012000E049
:103BB000002028B940F2DB2249A14FA0FEF77AFA93
:103BC00000F026F908B9059808B9012000E00020A6
:103BD00028B940F2DE2242A147A0FEF76BFA00BFEF
:103BE000FFF736FBA06BE16B884201D3022D28D191
:103BF0002A4641462046FFF70CF80746606A08B996
:103C0000012000E0002068B904F1240000F0C2F9AE
:103C100088B14FF080503C490860BFF34F8FBFF32D
:103C20006F8F08E03FB14FF0805037490860BFF315
:103C30004F8FBFF36F8FFFF74DFB012007B0BDE83B
:103C4000F083059818B9FFF745FB0020F6E7B9F1B6
:103C5000000F04D101A8FFF7D3FC4FF00109FFF7D3
:103C600039FBFFF749FDFFF7F3FA94F94400401CD4
:103C700010B9002084F8440094F94500401C10B9A4
:103C8000002084F84500FFF725FB05A901A800F0F6
:103C90003DF8F0B92046FFF738F9A0B104F1100063
:103CA0000599FFF781FC2046FFF78EF900F0CEF969
:103CB000002895D14FF0805013490860BFF34F8F13
:103CC000BFF36F8F8CE72046FFF77EF900F0BEF957
:103CD00086E72046FFF778F900F0B8F90020ADE755
:103CE0002E2E5C4672656552544F535C7372635C52
:103CF00071756575652E63004572726F723A257332
:103D00002C25640D0A00000004ED00E02DE9F041CF
:103D100004460D462CB940F6CB3219A11EA0FEF781
:103D2000C9F92DB940F6CC3215A11BA0FEF7C2F996
:103D3000FFF78EFA1C4807682868401C08B900265F
:103D400019E01A4920680968884204D06068B842BE
:103D500001D801260FE06068381A2968884209D224
:103D600028686168791A401A28602046FFF748FCE5
:103D7000002600E00126FFF7ADFA3046BDE8F081ED
:103D80002E2E5C4672656552544F535C7372635CB1
:103D90007461736B732E63004572726F723A257390
:103DA0002C25640D0A0000006C000020800000201B
:103DB0002DE9FF4F85B0804689461746DDE912ABF5
:103DC000B800FFF741F9064656B14C20FFF73CF921
:103DD00004460CB1266304E03046FFF7B1FA00E078
:103DE00000247CB10020CDE900ABCDE902403A4689
:103DF00049464046089BFEF7B1FF2046FEF768FEA5
:103E0000012501E04FF0FF35284609B0BDE8F08FED
:103E10000549096809B9012005E00449096809B99B
:103E2000022000E000207047740000209000002075
:103E30002DE9F0414FF0000841480068002872D198
:103E400040480068451C3F480560EDB93E480068A1
:103E5000006808B9012000E0002028B940F6D91216
:103E60003AA140A0FEF726F93748076841480068A4
:103E7000354908603F4807603F480068401C3E499C
:103E80000860FFF751F800BF3C48006885423CD30A
:103E900000BF2D480068006808B9012000E000203C
:103EA00020B14FF0FF30354908602DE0264800680A
:103EB000C068C4686668B54202D23048066023E034
:103EC000201DFFF77BF9A06A18B104F11800FFF775
:103ED00075F994F82C100120884029490968084395
:103EE00027490860E16A01EB8101264A02EB810063
:103EF000211DFFF7A1F92449E06A0968C96A8842CF
:103F0000C7D34FF00108C4E700BF1F480068C06A6C
:103F100000EB80001B4951F82000012801D94FF027
:103F2000010805E0FFE719480068401C17490860D0
:103F30001748006808B14FF001084046BDE8F0811D
:103F4000900000206C0000205C0000202E2E5C46BB
:103F500072656552544F535C7372635C7461736B2A
:103F6000732E63004572726F723A25732C25640DAF
:103F70000A0000006000002080000020880000206F
:103F800070000020F8000020580000207800002079
:103F90007C00002070B50646F068C4682CB940F675
:103FA00061321AA11FA0FEF785F804F11800FFF78F
:103FB00005F920480068A8B9201DFFF7FFF894F81C
:103FC0002C10012088401C49096808431A490860E0
:103FD000E16A01EB8101194A02EB8100211DFFF723
:103FE0002BF904E004F118011548FFF725F91549EC
:103FF000E06A0968C96A884204D90125012012498A
:10400000086000E00025284670BD00002E2E5C46AA
:1040100072656552544F535C7372635C7461736B69
:10402000732E63004572726F723A25732C25640DEE
:104030000A0000009000002070000020F80000201E
:10404000A0030020580000207C00002070B5002450
:1040500000263448006828B94FF4FD6232A138A028
:10406000FEF728F8FFF7F4F82E480068401E2D49A7
:1040700008600846006800284FD1354800680028CD
:104080004BD024E03348C068C46804F11800FFF73F
:1040900095F8201DFFF792F894F82C100120884025
:1040A0002D49096808432C490860E16A01EB810148
:1040B0002A4A02EB8100211DFFF7BEF82849E06A79
:1040C0000968C96A884202D301202649086021484C
:1040D000006808B9012000E000200028D2D00CB10F
:1040E000FEF722FF2048056865B100BFFFF7A0FE7C
:1040F00010B101201B4908606D1E002DF6D1002073
:10410000194908601748006838B101263007174977
:104110000860BFF34F8FBFF36F8FFFF7DBF83046B8
:1041200070BD0000900000202E2E5C467265655226
:10413000544F535C7372635C7461736B732E6300D2
:104140004572726F723A25732C25640D0A000000C7
:1041500068000020A003002070000020F80000206C
:10416000580000207C0000207800002004ED00E0D2
:104170000D0AEFBFBDEFBFBDC8A14448543131EFB8
:10418000BFBDC9B9EFBFBD210D0A0D0ACAAAEFBF55
:10419000BDEFBFBDCEAA25642E256420EFBFBDEFC5
:1041A000BFBD524820EFBFBDEFBFBDEFBFBDC2B620
:1041B000EFBFBDCEAA2025642E2564EFBFBDEFBFA3
:1041C000BD200D0A00000000E841000800000020AA
:1041D000BC000000D4200008A4420008BC0000205D
:1041E00024970000E420000800A24A040000000018
:1041F0000000000001020304060708090000000097
:104200000102030401020304060708090204060868
:10421000000000000000000000000000000000009E
:10422000000000000000000000000000000000008E
:10423000000000000000000000000000000000007E
:10424000000000000000000000000000000000006E
:10425000000000000000000000000000000000005E
:10426000000000000000000000000000000000004E
:10427000000000000000000000000000000000003E
:10428000000000000000000000000000000000002E
:1042900000000000AAAAAAAA000000000000000076
:0442A000000000001A
:0400000508000131BD
:00000001FF
