:020000040800F2
:10000000E0990020DD0100081D1800082F150008E8
:1000100019180008450E0008E9200008000000003B
:100020000000000000000000000000004501000882
:100030006D1300080000000089010008191B00086A
:10004000F7010008F7010008F7010008F7010008B0
:10005000F7010008F7010008F7010008F7010008A0
:10006000F7010008F7010008F7010008F701000890
:10007000F7010008F7010008F7010008F701000880
:10008000F7010008F7010008F7010008F701000870
:10009000F7010008F7010008F7010008F701000860
:1000A000F7010008F7010008F7010008F701000850
:1000B000F7010008F7010008F7010008F701000840
:1000C000F7010008F7010008F7010008F701000830
:1000D000F7010008F7010008F7010008F701000820
:1000E000F7010008F7010008F7010008F701000810
:1000F000F7010008F7010008F7010008F701000800
:10010000F7010008F7010008F7010008F7010008EF
:10011000F7010008F7010008F7010008F7010008DF
:10012000F7010008F7010008F7010008F7010008CF
:10013000DFF80CD000F098FB00480047112A0008B7
:10014000E0990020224B19680868B0E8F00F80F3AE
:100150000988BFF36F8F4FF0000080F311884EF0D5
:100160000D0E70470000000006480068006880F32C
:10017000088862B661B6BFF34F8FBFF36F8F00DFA1
:1001800000BF00BF08ED00E0EFF30980BFF36F8F01
:100190000F4B1A6820E9F00F106008B54FF05000BF
:1001A00080F31188BFF34F8FBFF36F8F03F0EAFA2C
:1001B0004FF0000080F31188BDE808401968086816
:1001C000B0E8F00F80F30988BFF36F8F704700BF6E
:1001D0007C000020EFF3058070470000094880474D
:1001E00009480047FEE7FEE7FEE7FEE7FEE7FEE719
:1001F000FEE7FEE7FEE7FEE704480549054A064B31
:1002000070470000811B000831010008E0930020C6
:10021000E0990020E0950020E095002040EA0103ED
:100220009B0703D009E008C9121F08C0042AFAD2AC
:1002300003E011F8013B00F8013B521EF9D2704770
:1002400030B480EA010202F0004530F0004221F0B3
:10025000004013D090B1C30DD40DC2F31601C0F30A
:100260001600E41A41F4000140F400027D3491428A
:1002700001D3641C00E04900002C02DA30BC0020ED
:1002800070474FF400000023914201D3891A0343C1
:1002900040084FEA4101F7D151B1914202D14FF0EC
:1002A000004105E002D24FF0010101E06FF00101D1
:1002B00003EBC450284430BC00F0F3B82DE9FE4FE6
:1002C00081EA030404F0004421F0004100944FF05F
:1002D000000B23F0004350EA01045ED052EA03040D
:1002E0005BD0C3F30A54C1F30A552C44A4F2F3348F
:1002F0000194A0FB0254C1F3130141F48011C3F334
:10030000130343F4801301FB024400FB034E840AF1
:10031000970A44EA815447EA8357A4FB0768029589
:100320008D0A05FB07854FEA932C04FB0C54270527
:10033000029D4FEA065847EA1637B5EB08056EEB03
:10034000070C870E920E47EA811742EA8312A7FB39
:100350000201B6EB0B0164EB00042B0D43EA0C33F6
:100360005E1844EB1C50DA465146E7FB0201C5F328
:1003700013044FEA0B3343EA14534FEA0432019C4F
:1003800043EA0603A4F10C040294009CCDE900B4F6
:1003900000F0CDF803B000F003B800200146F9E703
:1003A00030BCBDE8C08F96230022114600F082B811
:1003B00000F0004230F000400AD0C10D01F560713C
:1003C000C0F3160042EA0151C208400711437047CA
:1003D00000200146704701F0004330B421F0004195
:1003E00050EA010206D00A0DA2F56072C1F31301B2
:1003F000002A02DC30BC00207047440F44EAC104EC
:10040000C100E01830BC00EBC25000F04AB830B573
:100410000B46014600202022012409E021FA02F5C2
:100420009D4205D303FA02F5491B04FA02F528445C
:10043000151EA2F10102F1DC30BD2DE9F05F054689
:10044000002092469B4688460646814640241BE093
:10045000284641464746224600F027FA53465A4668
:10046000C01A914110D311461846224600F00EFAE8
:100470002D1A67EB01084F4622460120002100F0AB
:1004800005FA17EB00094E41201EA4F10104DFDC40
:10049000484631462A46434600F000B830BCBDE825
:1004A000C09F0029A8BF7047401C490008BF20F02A
:1004B0000100704710B4B0FA80FC00FA0CF050EA6A
:1004C000010404BF10BC704749B1CCF1200421FAEB
:1004D00004F411FA0CF118BF012121430843A3EBE6
:1004E0000C01CB1D4FEA00614FEA102042BF0020F3
:1004F00010BC704700EBC35010440029A4BF10BCCF
:100500007047401C490008BF20F0010010BC704734
:1005100010B5141E73F1000408DA401C41F100010B
:1005200092185B411A4301D120F0010010BD2DE962
:10053000F04D92469B4611B1B1FA81F202E0B0FA59
:1005400080F22032904600F0A1F904460F4640EABE
:100550000A0041EA0B0153465A46084313D011469C
:1005600053EA010019D0C8F14002504600F09DF94D
:1005700005460E4650465946424600F087F9084364
:1005800005D0012004E020463946BDE8F08D00206A
:10059000054346EAE0762C4337430A986305E40AAC
:1005A000A0EB08000022FD0A44EA47540A3002D5B5
:1005B00000200146E9E7010510196941DDE9084518
:1005C00000196941BDE8F04DA2E72DE9FE4F8046D4
:1005D00081EA0300C00F0C46009021F0004123F097
:1005E0000045B8EB0200A94105D24046214690469D
:1005F0001C460B46024623F00040104347D0270D0F
:10060000C7F30A00C3F30A510290401A0190402830
:100610006BDAC3F3130040F4801B0098924620B1BC
:100620000023D2EB030A63EB0B0B01985946C0F190
:100630004002504600F02AF906460D4650465946FB
:10064000019A00F042F910EB08006141002487EAAA
:10065000115284EAE7731A4340D0009A62B3019AB8
:10066000012A4FEA075215DC001B61EB02014FF033
:10067000004202EA0752CDE90042001C41F5801118
:1006800032462B46FFF753FF03B000F045B8404613
:100690002146F9E7001B61EB0201001C41F58013C4
:1006A00000185B412018A2F5001747EB030140EA50
:1006B000D570B6196D4111E06D084FEA360645EA6E
:1006C000C0754FEA0752001B61EB0201001C41F5A7
:1006D000801149084FEA30000019514132462B463B
:1006E00003B000F01CB8FFF713BF009801224000D0
:1006F0000023D0EB020263EBE073009821464FEA3F
:10070000E074B8EB000061EB0401E9E783F000431B
:100710005BE781F0004158E730BCBDE8C08F30BCDA
:10072000BDE8C04FFFF7DFBF2DE9F04D81EA0304BC
:1007300004F0004B21F0004514464FF0000A23F06E
:10074000004150EA050220D054EA01021DD0C5F351
:100750000A570246C5F31303C1F31300C1F30A5647
:1007600040F4801543F48013A7EB0608101BD6460F
:1007700008F2FD3873EB050002D308F1010801E02F
:1007800092185B41B8F1000F03DA00200146BDE882
:10079000F08D00204FF48011064684460EE0171BB2
:1007A00073EB050705D3121B63EB050306434CEA05
:1007B000010C49084FEA300092185B4150EA0107EA
:1007C000EDD152EA030012D082EA040083EA050167
:1007D000084305D0101BAB4106D20122002306E0DE
:1007E00000224FF0004302E06FF0010253101AEBB9
:1007F00006004CEB085110EB0A0041EB0B01BDE881
:10080000F04DFFF785BEC1F30A52C1F3130140F268
:10081000FF3341F480119A4202DA0020014670470A
:1008200040F233439A42A2F2334202DC524200F0D9
:100830003CB800F02BB8000030B5041E71F1000484
:1008400004DB4FF00044404264EB0101141E73F1DD
:10085000000405DB1C464FF00043524263EB0403E7
:10086000994208BF904230BD064C074D06E0E06853
:1008700040F0010394E8070098471034AC42F6D3E7
:10088000FFF75AFC2044000840440008202A04DBFB
:10089000203A00FA02F1002070479140C2F1200393
:1008A00020FA03F3194390407047202A04DB203AD2
:1008B00021FA02F00021704721FA02F3D040C2F180
:1008C00020029140084319467047202A06DBCB17C7
:1008D000203A41FA02F043EAE07306E041FA02F3FB
:1008E000D040C2F12002914008431946704721B11F
:1008F000826842F00102826003E0826822F0010215
:100900008260704721B1826842F48072826003E0A5
:10091000826822F4807282607047014600208A68F3
:1009200002F004020AB1012000E0002070470146F5
:1009300000208A6802F008020AB1012000E00020CD
:100940007047000030B502460020002350680F4C6D
:1009500020400D790C6844EA0524204350609068DB
:100960000B4C2040D1E902542C434D7944EA450414
:1009700020439060D06A20F470000C7C641EE4B2C6
:10098000234340EA0350D06230BD0000FFFEF0FF79
:10099000FDF7F1FFF0B504460D4600200021092DBA
:1009A00011DDE068A5F10A0606EB4607072606FA00
:1009B00007F18843A5F10A0606EB460603FA06F19D
:1009C0000843E0600CE0206905EB4507072606FABE
:1009D00007F1884305EB450603FA06F10843206159
:1009E000072A0FDA606B561E06EB86071F2606FAEB
:1009F00007F18843561E06EB860605FA06F1084302
:100A0000606322E00D2A0FDA206BD61F06EB860703
:100A10001F2606FA07F18843D61F06EB860605FA5D
:100A200006F10843206310E0E06AA2F10D0606EB30
:100A300086071F2606FA07F18843A2F10D0606EB8A
:100A4000860605FA06F10843E062F0BD816841F0D0
:100A500008018160704721B1826842F4A00282607F
:100A600003E0826822F4A00282607047816841F04E
:100A7000040181607047000027E014480088FFF7F8
:100A800092FC82464FF08B41FFF7DAFB8146FFF77D
:100A90008FFC07464FF066320D4BFFF70FFC054603
:100AA000FFF799FC0446094801880AA001F01EFBE3
:100AB0002046FFF77DFC05462A460B460EA001F0B6
:100AC00015FB4FF47A7002F087FCD6E70000002097
:100AD00066660A400D0A2054686520637572726567
:100AE0006E742041442076616C7565203D2030781D
:100AF00025303458200D0A000D0A20546865206303
:100B0000757272656E742041442076616C75652043
:100B10003D2025662056200D0A00000008B5012161
:100B2000102000F0FDFE0220ADF8000000208DF83E
:100B300003006946014800F01AFC08BD001001409E
:100B400010B5FFF7EBFF00F001F810BD00B591B054
:100B50000121084600F0C4FE0121480200F0E0FE39
:100B6000334800F03FFB334806903348079000209D
:100B700008900120099000200A900B904FF480709B
:100B80000C9080000D9020200E9000020F9000200D
:100B9000109006A9264800F0CBFB0121244800F064
:100BA00015FB002001908DF8080001208DF8090048
:100BB0004FF4602003900020049001208DF8140071
:100BC00001A91C484C38FFF7BDFE4FF4404000F02F
:100BD0007BFE052301220B2116484C38FFF7DAFE75
:100BE000012114484C38FFF78DFE012111484C3883
:100BF000FFF77DFE0F484C38FFF728FF00BF0D4878
:100C00004C38FFF794FE0028F9D10A484C38FFF71A
:100C10002DFF00BF07484C38FFF77FFE0028F9D1B1
:100C2000012104484C38FFF716FF11B000BD000049
:100C3000080002404C240140000000207CB505461D
:100C4000012402F01BFB00220121042002F06CFEB3
:100C50002F4908600846006810B12EA001F046FA3E
:100C60003948012100234A02CDE9001037A1394853
:100C700003F048F90446012C02D137A001F036FAFE
:100C80003D48012100234A02CDE900103BA13E4826
:100C900003F038F90446012C02D13CA001F026FAF9
:100CA0004248012100234A02CDE9001040A14248F8
:100CB00003F028F90446012C02D140A001F016FAF5
:100CC0004648012100234A02CDE9001044A14648CC
:100CD00003F018F90446012C02D144A001F006FAF1
:100CE0004A48012100234A02CDE9001048A14B489F
:100CF00003F008F90446012C02D149A001F0F6F9ED
:100D00004F48006802F0B8FB02F0E8FA7CBD000032
:100D100048000020EFBFBDEFBFBDEFBFBDEFBFBDBF
:100D2000546573745F5175657565EFBFBDEFBFBDE9
:100D3000CFA2EFBFBDEFBFBDEFBFBDD0B3C9B9EF0D
:100D4000BFBD0D0A00000000340000204B6579543F
:100D500061736B0071170008EFBFBDEFBFBDEFBF40
:100D6000BDEFBFBD4B65795F5461736BEFBFBDC90C
:100D7000B9EFBFBD0D0A0000380000205465737440
:100D80005461736B00000000011F0008EFBFBDEF4E
:100D9000BFBDEFBFBDEFBFBD546573745F546173DA
:100DA0006BEFBFBDC9B9EFBFBD0D0A003C0000200D
:100DB0004144435461736B00790A0008EFBFBDEFF3
:100DC000BFBDEFBFBDEFBFBD4144435F5461736B17
:100DD000EFBFBDC9B9EFBFBD0D0A00004000002044
:100DE0004C45445461736B009D170008EFBFBDEF85
:100DF000BFBDEFBFBDEFBFBD4C45445F5461736BDA
:100E0000EFBFBDC9B9EFBFBD0D0A0000440000200F
:100E100054494D455461736B00000000E11B00080C
:100E2000EFBFBDEFBFBDEFBFBDEFBFBD54494D45E7
:100E30005F5461736BEFBFBDC9B9EFBFBD0D0A0051
:100E40003000002000BFFEE708B50121092000F0B6
:100E500067FD01210F4800F015FB2020ADF80000D0
:100E600018208DF8030003208DF8020069460A4817
:100E700000F07DFA0120ADF800006946064800F058
:100E800076FA0220ADF800006946034800F06FFAD8
:100E900008BD000000081A00000C014010B5FFF763
:100EA000D3FF00F001F810BD00B587B0012102208A
:100EB00000F026FDFF20ADF814004FF47A60ADF885
:100EC00010000020ADF81600ADF8120004A9184873
:100ED00000F0C4FF6020ADF800000120ADF8020072
:100EE0000020ADF806000220ADF808006946104861
:100EF00000F0AEFE08210E4800F0FCFE69460C48EA
:100F000000F006FF08210A4800F052FF6946084831
:100F100000F058FF0821064800F092FF0121044824
:100F200000F07EFE0121024800F086FE07B000BD01
:100F3000000400400748006840F0807005490860E0
:100F40000020054948600846006840F0010008603C
:100F500070470000FCED00E0001000E00148406830
:100F600070470000001000E031B50024FFF7E2FFF9
:100F7000104800681049B0FBF1F0009900FB01F542
:100F800000BFFFF7EBFF034611E0FFF7E7FF024664
:100F90009A420CD09A4202D9D01A044403E0C3F119
:100FA000FF30104404441346AC4200D300E0ECE7A9
:100FB00000BF38BD0400002040420F0000B585B0DE
:100FC0000121042000F0ACFC0121880300F0A8FC02
:100FD0004FF40070ADF8100018208DF813000320B6
:100FE0008DF8120004A9174800F0C1F94FF4806091
:100FF000ADF8100004208DF8130004A9114800F08A
:10100000B6F94FF4E13000900020ADF80400ADF8DF
:101010000600ADF80800ADF80C000C20ADF80A0091
:101020006946094800F0F0FF00F0F9FB012240F2A8
:101030002551054800F0C3FF0121034800F0A6FF39
:1010400005B000BD000801400038014008B501218D
:10105000402000F065FC4020ADF8000010208DF825
:10106000030003208DF802006946024800F07FF972
:1010700008BD00000018014010B5FFF7E7FF402150
:10108000014800F052FA10BD0018014008B5402098
:10109000ADF8000048208DF803006946014800F0D3
:1010A00066F908BD0018014008B54020ADF8000001
:1010B00010208DF8030003208DF8020069460248D5
:1010C00000F055F908BD00000018014070B500257A
:1010D000002424E000BF4021134800F01BFA002840
:1010E000F9D02820FFF740FF40210F4800F012FA06
:1010F00001280DD100BF40210B4800F00BFA012858
:10110000F9D0C4F1070101208840C0B2054304E0D2
:10111000C4F10701012088408543601CC4B2082C3B
:10112000D8DB284670BD00000018014010B5044609
:10113000FFF7BAFF4021244800F0F5F944F250606F
:10114000FFF712FF4021204800F0EFF91E20FFF7C3
:101150000BFFFFF79BFF40211B4800F0DBF970BB42
:1011600000BF4021184800F0D5F90028F9D000BF91
:101170004021154800F0CEF90128F9D0FFF7A6FF6D
:101180002070FFF7A3FF6070FFF7A0FFA070FFF7CC
:101190009DFFE070FFF79AFF2071FFF785FF402168
:1011A000094800F0C2F9207861780844A178084421
:1011B000E17808442179884202D1012010BD01E084
:1011C0000020FBE70020F9E70018014021B1026888
:1011D00042F00102026004E002684FF6FE731A401A
:1011E0000260704701684FF6FE72114001600021F5
:1011F000016041608160C1604B49884208D14A4921
:101200000839496841F00F01474A083A51608AE0BD
:1012100045491431884208D143490839496841F0A9
:10122000F001414A083A51607DE03F492831884247
:1012300008D13D490839496841F470613A4A083A91
:10124000516070E038493C31884208D1364908394C
:10125000496841F47041344A083A516063E03249C8
:101260005031884208D130490839496841F4702129
:101270002D4A083A516056E02B496431884208D122
:1012800029490839496841F47001274A083A5160F0
:1012900049E025497831884208D12349083949680D
:1012A00041F07061204A083A51603CE01F49884291
:1012B00006D1011F096841F00F01021F116032E0E1
:1012C0001A491431884208D11849091F096841F0A8
:1012D000F001164A121F116025E014492831884296
:1012E00008D11249091F096841F470610F4A121FA1
:1012F000116018E00D493C31884208D10B49091FA3
:10130000096841F47041094A121F11600BE0074956
:101310005031884207D10549091F096841F47021FD
:10132000024A121F11607047080002400804024080
:1013300010B50022026847F6F0739A430C6A8B6876
:1013400023430C6923434C6923438C692343CC69B1
:1013500023434C6A23438C6A23431A430260CB68BD
:1013600043600B6883604B68C36010BD70472DE914
:10137000F04102460025002600200023002400271B
:1013800091F803C00CF00F0591F803C00CF0100C9D
:10139000BCF1000F03D091F802C04CEA050591F8AA
:1013A00000C0BCF1000F31D0146800202BE04FF0DA
:1013B000010C0CFA00F3B1F800C00CEA03069E42DF
:1013C00020D183004FF00F0C0CFA03F7BC4305FA51
:1013D00003FC4CEA040491F803C0BCF1280F06D1C9
:1013E0004FF0010C0CFA00FCC2F814C00AE091F8AE
:1013F00003C0BCF1480F05D14FF0010C0CFA00FC02
:10140000C2F810C0401C0828D1D31460B1F800C045
:10141000BCF1FF0F34DD546800202EE000F1080C11
:101420004FF0010808FA0CF3B1F800C00CEA03060B
:101430009E4221D183004FF00F0C0CFA03F7BC43FE
:1014400005FA03FC4CEA040491F803C0BCF1280F30
:1014500005D100F1080C08FA0CF8C2F8148091F8D4
:1014600003C0BCF1480F07D100F1080C4FF0010890
:1014700008FA0CF8C2F81080401C0828CED354603B
:10148000BDE8F081F0B50A460023002400210025C4
:1014900000F00046B6F1004F02D11D4EF16901E0A7
:1014A0001B4E7168C0F3034583B200F44016B6F5D5
:1014B000401F08D121F07061154E766826F07066E5
:1014C000134F7E6012E000F48016B6F5801F06D13F
:1014D000032606FA05F4A14341F0706106E0460DCB
:1014E000360103FA06F6B14341F0706122B1460DB0
:1014F000360103FA06F6314300F00046B6F1004F1C
:1015000002D1034EF16101E0014E7160F0BD0000B7
:10151000000001400246002093680B400BB10120FF
:1015200000E000207047416170470161704700BFD3
:10153000FEE7000010B501210348FFF7EBFF01288B
:1015400000D110BD0020FCE70008014010B54FF4A9
:1015500000510448FFF7DEFF012800D110BD002034
:10156000FCE700000010014010B54FF400510448A2
:10157000FFF7D0FF012800D110BD0020FCE70000DC
:101580000010014070B50546304800EB0514206896
:10159000804700283ED020790A2802DA0A202071EC
:1015A00052E02079142803DA2079401C20714BE0A6
:1015B000A07A38B90120A07205EB4501491CC8B2D8
:1015C00000F094F8208900283EDDE08821898842D7
:1015D0000DDAE088401C80B2E0802189884233D156
:1015E00005EB4501C91CC8B200F080F82CE0E07A98
:1015F000002829DD207B401CC0B22073E17A88429C
:1016000022DB0020207305EB4501491CC8B200F025
:101610006DF819E020790A2802DD0A20207110E017
:10162000207918B12079401E20710AE0A07A0128A3
:1016300007D10020A07205EB4501891CC8B200F05B
:1016400055F80020E080207370BD0000BC00002031
:101650000B48807A0A4AD27A904201D10020704722
:101660000748807A064A115C1046807A401CC0B256
:1016700090720A2801DB002090720846EFE7000014
:10168000EC0000200021144A9172D172002018E071
:10169000C821124A02EB0012118105210F4A02EB08
:1016A0000012117100210D4A02EB001291720B4AD7
:1016B00002EB0012D172094A02EB00121173411CB5
:1016C000C8B20328E4DB0649044A116005491161E8
:1016D0000549116270470000EC000020BC000020AA
:1016E000351500084D150008691500080649C97A26
:1016F000054A50541146C97A491CC9B2D1720A2907
:1017000001DB0021D1727047EC00002008B50121F7
:10171000142000F005F904208DF803000120ADF835
:10172000000069460A48FFF722FE4FF40050ADF86A
:10173000000069460748FFF71AFE4FF40050ADF865
:10174000000069460348FFF712FEFFF79BFF08BD44
:10175000000801400010014010B5002404E02046BC
:10176000FFF710FF601CC4B2032CF8DB10BD0000B3
:1017700008B500BF0FE0FFF76BFF00909DF8000079
:1017800030B100231A4669460348006802F070FA37
:10179000022001F021FEEEE74800002008B50124F8
:1017A00020E000235A1E69460F48006802F00AF93B
:1017B0000446012C12D19DF80000012804D10B49E8
:1017C0000870FF2000F026F99DF80000022809D1DA
:1017D00000200649087000F01DF903E0214604A02E
:1017E00000F084FCDDE70000480000202C00002011
:1017F000EFBFBDEFBFBDEFBFBDDDBDEFBFBDEFBFF5
:10180000BDD5B3EFBFBDEFBFBDEFBFBD2030782565
:101810006C780D0A0000000000BFFEE7704708B5B5
:101820004FF4A06000F046F825208DF8000001205C
:101830008DF801008DF802008DF80300684600F075
:1018400001F808BD70B5002100230F22C47804B34D
:10185000154C246804F4E064C4F5E064210AC1F185
:101860000403CA40447804FA03F184781440214305
:1018700009010E4C0678A155047804F01F050124D7
:10188000AC4005786D11AD0005F1E025C5F80041CB
:1018900009E0047804F01F050124AC40044D0678EB
:1018A000761145F8264070BD0CED00E000E400E044
:1018B00080E100E002490143024A116070470000E4
:1018C0000000FA050CED00E001460020034A5068D4
:1018D00020F4404008435060704700000010024070
:1018E00029B1064A52690243044B5A6104E0034A93
:1018F00052698243014B5A61704700000010024058
:1019000029B1064AD2690243044BDA6104E0034A72
:10191000D2698243014BDA61704700000010024037
:1019200029B1064A92690243044B9A6104E0034AD2
:1019300092698243014B9A61704700000010024097
:1019400030B500210022002400232D4D6D6805F0E4
:101950000C0121B1042905D0082923D105E0294D26
:10196000056022E0274D05601FE0254D6D6805F4F8
:101970007012234D6D6805F48034022505EB924208
:101980001CB9214D554305600BE01D4D6D6805F4F4
:1019900000351DB11C4D5543056002E0194D5543FE
:1019A000056002E0174D056000BF00BF144D6D6873
:1019B00005F0F0010909154D6B5C0568DD404560D7
:1019C0000F4D6D6805F4E061090A104D6B5C4568C8
:1019D000DD4085600A4D6D6805F46051C90A0B4D04
:1019E0006B5C4568DD40C560054D6D6805F44041A0
:1019F000890B074D6B5CC568B5FBF3F5056130BD20
:101A00000010024000127A0000093D00180000207A
:101A100028000020C0F30741044A1180C0F30721C9
:101A2000121D1180C1B2121D118070473804004090
:101A300010B500F001F810BD0CB500200190009029
:101A40003348006840F480303149086000BF3048B6
:101A5000006800F4003000900198401C019000984C
:101A600018B90198B0F5A06FF1D12948006800F4C9
:101A7000003010B10120009001E00020009000989B
:101A8000012843D12348006840F010002149086034
:101A90000846006820F0030008600846006840F02F
:101AA000020008601A4840681949486008464068C2
:101AB00048600846406840F48060486008464068D6
:101AC00020F47C1048600846406840F4E810486004
:101AD0000846006840F08070086000BF0C4800684D
:101AE00000F000700028F9D00948406820F0030099
:101AF000074948600846406840F00200486000BF5F
:101B00000348406800F00C000828F9D10CBD000023
:101B1000001002400020024010B51648007880B145
:101B20001548006841F28731884205D212480068A2
:101B3000401C1149086007E041F287300E490860F7
:101B400002E000200C4908600C480068042805D217
:101B50000A480068401C0949086004E00020074961
:101B6000086000F0FFF902F001FA012801D001F04D
:101B7000C1FE10BD2C000020540000204C000020AD
:101B800010B51348006840F001001149086008468C
:101B90004068104908400E494860084600680E49F0
:101BA00008400B4908600846006820F4802008605F
:101BB0000846406820F4FE0048604FF41F0088602B
:101BC000FFF736FF4FF000600449086010BD0000C9
:101BD000001002400000FFF8FFFFF6FE08ED00E0F5
:101BE000002412E054B90948006841F28731884264
:101BF0000BD107A000F07AFA012406E00348006840
:101C000041F28731884200D00024EBE754000020E5
:101C100074696D65203D203573200D0A00000000B9
:101C200021B1028842F08002028004E002884FF66F
:101C30007F731A400280704721B1028842F001028E
:101C4000028004E002884FF6FE731A40028070475B
:101C500070B5002400220023058C4FF6EF76354046
:101C60000584028C8388048B48F6FF752C404FF660
:101C7000FF452C400D884FF6FF7606EA05252C43DC
:101C80004FF6DF752A400D8906EA05152A434D886F
:101C900006EA05152A43154DA84202D0144DA84264
:101CA0001DD14FF67F752A404D894FF6FF7606EA23
:101CB00005152A434FF6BF752A408D8806EA05159B
:101CC0002A434FF6FF352B404FF2FF752B408D898D
:101CD00006EA85052B43CD8906EA85052B438380DB
:101CE0000483CD880587028470BD0000002C01406C
:101CF000003401400A460021018B4FF2FF73194066
:101D00004FF6FF7303EA0223194301837047000073
:101D100070B5002400220023058C4FF6FF66354085
:101D20000584028C8388848B4FF68F752C404FF688
:101D3000FC752C400D882C434FF6FF552A400D8929
:101D40004FF6FF7606EA05252A434D8806EA052563
:101D50002A43154DA84202D0144DA8421DD14FF27E
:101D6000FF752A404D894FF6FF7606EA05252A437E
:101D70004FF6FF352A408D8806EA05252A434EF6A0
:101D8000FF752B404DF6FF752B408D8906EA051532
:101D90002B43CD8906EA05152B4383808483CD88A8
:101DA0008587028470BD0000002C01400034014092
:101DB0000A460021818B4FF6F77319401143818346
:101DC0007047000070B5002200230024058C4EF6F9
:101DD000FF7635400584038C8488828B48F6FF7536
:101DE0002A404FF6FF452A400D884FF6FF7606EA57
:101DF00005252A434DF6FF752B400D8906EA05356A
:101E00002B434D8806EA05352B430B4DA84202D0E3
:101E10000A4DA84208D14BF6FF752C408D894FF62C
:101E2000FF7606EA85152C4384808283CD88A0F84E
:101E30004050038470BD0000002C0140003401407C
:101E40000A460021818B4FF2FF7319404FF6FF7352
:101E500003EA0223194381837047000000220288AD
:101E60001D4B98420ED01D4B98420BD0B0F1804FC5
:101E700008D01B4B984205D01A4B984202D01A4BFF
:101E8000984204D14FF68F731A404B881A43174B70
:101E9000984207D0164B984204D04FF6FF431A40A1
:101EA000CB881A4302808B8883850B8803850A4B75
:101EB00098420BD0094B984208D00E4B984205D05F
:101EC0000D4B984202D00D4B984201D10B7A0386FC
:101ED0000123838270470000002C01400034014040
:101EE0000004004000080040000C004000100040CA
:101EF00000140040004001400044014000480140FF
:101F00000EB51FE010A000F0F1F801F033FC01A8BD
:101F1000FFF70CF901280CD19DF8070000909DF8FF
:101F200006309DF805209DF80410084800F0DEF802
:101F300002E007A000F0DAF802F05CF94FF4FA6072
:101F400001F04AFADEE70000310D0A003C430008C8
:101F500052656164204448543131204552524F52F9
:101F6000210D0A0010B508480088012805DA064846
:101F70000088401C0449088004E0002002490880D1
:101F8000FFF7EAFB10BD00000200002021B18289AA
:101F900042F40052828104E082894DF6FF731A40B8
:101FA0008281704702460020B1F5007F00D100BF5A
:101FB00013880B400BB1012000E000207047F0B502
:101FC0000346002400260025002040F66A17B94287
:101FD00000D100BF1846C1F3421401F01F060127CB
:101FE00007FA06F5012C01D10C3004E0022C01D1D6
:101FF000103000E014301AB107682F43076002E088
:102000000768AF430760F0BD2DE9F04786B005468D
:102010000E460024A24600BFA1460027B08900B1A9
:1020200000BF2F462C8A4CF6FF700440F088044312
:102030002C82AC894EF6F3100440B08831890843F5
:10204000718908430443AC81AC8A4FF6FF400440D9
:10205000B0890443AC8201A8FFF772FC1F48874295
:1020600002D1DDF810A001E0DDF80CA0A88900F491
:10207000004040B10AEBCA0000EB0A103168490089
:10208000B0FBF1F807E00AEBCA0000EB0A10316878
:102090008900B0FBF1F86420B8FBF0F004012009DE
:1020A000642101FB1089A88900F4004040B132206E
:1020B00000EBC900B0FBF1F000F00700044308E0BA
:1020C000322000EB09106421B0FBF1F000F00F00AA
:1020D00004432C8106B0BDE8F087000000380140C1
:1020E000C1F308028280704700BFFEE70FB4054BC2
:1020F00010B503A9044A029800F0DEF810BC5DF8A0
:1021000014FB0000ED290008B800002002E008C818
:10211000121F08C1002AFAD170477047002001E061
:1021200001C1121F002AFBD1704700002DE9FF5F9B
:1021300082B00021DDE90430020DDDF840B0034338
:1021400018D044F61050A2F2FF32424315141198F1
:1021500001281FD0A5EB0B00401C5FEA000A4FF0DE
:1021600000064E4FDFF83891B046504615D5CAF1FB
:10217000000413E0119801244AA3012801D16FEA59
:102180000B010298119AC0E90031C0E9024206B081
:1021900000F08EB8CBF10000DFE704460021404A92
:1021A000491842EB0450CDE9001012E0E00707D0D7
:1021B00032463B4640464946FEF780F8804689460F
:1021C00032463B4610461946FEF778F806460F465B
:1021D0006410002CEAD1DDE90401DDE90023BAF145
:1021E000000F06DAFEF76AF842464B46FEF766F83D
:1021F00005E0FEF799FA42464B46FEF795FA04468B
:102200000E460022284BFEF717FB03D84FF0FF3095
:10221000014607E00022254B20463146FEF7D5F95E
:10222000FEF7F1FA102409E0002C0ADB0A22002351
:10223000FEF703F9039B30321A55641E50EA01027F
:10224000F2D1641C039AC4F111031444119A012AB7
:1022500003D0012208430DD10AE0084304D0002036
:102260004FF0110B119072E7A3EB0B056D1E0DE003
:102270005B4504DD4FF0000205F1010504E003DADF
:102280004FF00002A5F10105002AECD00298119947
:10229000C0E90231C0E9004579E7000000001440C0
:1022A0000000F03F300000000000F0430000E03F7D
:1022B00030BCBDE8C09F00002DE9FF4F95B09B46A4
:1022C0008946064600250FE2252877D100242746B7
:1022D000F84A0121059400E0044316F8013F203B31
:1022E00001FA03F01042F7D130782A2811D06FF0AC
:1022F0002F033078A0F13002092A16D8059A44F04D
:10230000020402EB820203EB42021044761C0590A9
:10231000EFE759F8042B0592002A03DA504244F4FF
:102320000054059044F00204761C30782E2816D113
:1023300016F8010F44F004042A280DD06FF02F0284
:102340003078A0F13003092B09D807EB870302EBA3
:102350004303C718761CF3E759F8047B761C3078E2
:102360006C280FD006DC4C2817D068280DD06A28BE
:1023700014D104E0742810D07A280FD10DE044F471
:1023800000140AE044F4801401E044F4401472782C
:10239000824202D104F58014761C761C30786628BF
:1023A0000BD013DC582877D009DC002875D04528DD
:1023B000F6D04628F4D047281AD19DE118E06328CA
:1023C00035D0642879D0652812D195E1702873D072
:1023D00008DC6728F1D069286FD06E280DD06F28EF
:1023E00006D1B5E073282CD0752875D0782874D024
:1023F0005A46179990476D1C75E1C4F302500228A4
:1024000009D003280DD0D9F8001004280DD00D6094
:1024100009F1040967E1D9F80010EA17C1E900528F
:10242000F6E7D9F800100D80F2E70D70F0E719F823
:10243000041B8DF8001000208DF80100EA460120F1
:1024400003E059F804AB4FF0FF3061074FF0000193
:1024500002D40DE008F101018846B9420FDA804547
:10246000F8DB1AF808100029F4D108E008F101019E
:1024700088468142FADB1AF808100029F6D105983F
:102480005B46A0EB080721463846179A00F097FAFA
:10249000284400EB080507E04DE029E10DE01AF8BB
:1024A000010B5A4617999047B8F10108F7D25B46DD
:1024B00021463846179A13E142E00A220092C4F3FB
:1024C00002524FF0000A022A08D059F804CB032A1E
:1024D0004FEAEC710AD00DE029E02AE009F107018A
:1024E00021F00702F2E802C1914609E00FFA8CFCE4
:1024F0004FEAEC71042A03D14FFA8CFC4FEAEC71DD
:10250000002907DA0A460021DCF1000C61EB020128
:102510002D2202E0220504D52B228DF80420012271
:1025200003E0E20701D02022F7E7904659E00A21B4
:1025300002E010220DE010214FF0000A00910BE0A4
:1025400010224FF0000A44F004040827009203E030
:1025500008224FF0000A0092C4F30252022A05D06A
:1025600059F804CB0021032A08D009E009F107013A
:1025700021F00702F2E802C1914605E01FFA8CFC47
:10258000042A01D10CF0FF0C4FF00008220728D5D7
:10259000702806D0009B83F0100353EA0A0305D08D
:1025A0000EE040228DF80420012208E05CEA0102DE
:1025B00006D030228DF804208DF8050002229046C6
:1025C000009B83F0080353EA0A030AD15CEA010284
:1025D00001D1620705D530228DF804204FF00108A3
:1025E0007F1E582804D034A003900EA802900DE05E
:1025F00036A0F9E753466046009AFDF71EFF844671
:102600000398825C0298401E029002705CEA01000E
:10261000F0D1029806A9081A00F1200A600702D535
:1026200024F4803400E00127574502DDA7EB0A00BF
:1026300000E0002000EB0A01009005984144401A98
:102640000590E00306D45B462146179A059800F0F2
:10265000B6F90544002706E001A85A46C05D17995F
:1026600090476D1C7F1C4745F6DBE0030CD55B46AD
:102670002146179A059800F0A2F9054404E030209D
:102680005A46179990476D1C0099481E00900029E2
:10269000F5DC08E0029802995A460078491C02913C
:1026A000179990476D1CBAF10001AAF1010AF1DCFB
:1026B00065E1000009280100303132333435363706
:1026C000383961626364656600000000303132337E
:1026D000343536373839414243444546000000001E
:1026E00000F05BF90544761C307800287FF4ECADEF
:1026F00019B0284600F04EB9620700D4062709F148
:10270000070222F0070CFCE80223E14603F0004830
:102710005FEA080C02D00FF2702C0DE05FEA045C57
:1027200002D50FF2682C07E05FEAC47C02D00FF2FA
:10273000602C01E0AFF2700C4FF0FF3823F0004343
:10274000CDF850C065280CD006DC452809D04628B5
:102750001DD047283DD13DE0662818D067287ED19E
:1027600038E00021112F01DB112000E0781CCDE9B9
:10277000000106A90EA8FFF7D9FCDDE90F010E9AAA
:1027800003910021009207F1010A04914DE04FF0FE
:1027900000400097CDE9011006A90EA8FFF7C6FC7E
:1027A000DDE90F0203920E9B11990022DDF80CA0C7
:1027B0000093049211B9791C00EB010AB7EB0A00EF
:1027C00004D4C0F1FF3007F1010A0490AAEB07001E
:1027D000019044E0012F00DA01270021112F01DDD3
:1027E000112000E03846CDE9000106A90EA8FFF748
:1027F0009DFCDDE90F010E9A0391002104910092E6
:10280000BA4621070CD40399514500DA8A46BAF139
:10281000010F05DD009AAAF10101515C302908D0B1
:10282000B84202DA10F1040F06DA0121CDE90110F5
:1028300015E0AAF10101E9E7002805DC049901444B
:102840000491AAEB000102E0411C514500DD8A46DB
:102850000499401A401C01904FF00040029020075C
:1028600004D40198504501DBCDF8048000208DF898
:102870004F0002980DF14F07B0F1004F25D02B20EB
:102880000E9002984FF0020800280CDA40420290A5
:102890002D200E9007E00A210298FDF7B8FD303197
:1028A000029007F8011DB8F10001A8F10108F2DC5F
:1028B00002980028EFD1791E0E980870307800F049
:1028C000200040F0450007F8020D12A8C01B00F1DF
:1028D00007081498007800B1012000EB0A01019864
:1028E00001EBE07105984144401A401E0590E00359
:1028F00006D45B462146179A059800F060F8054417
:102900001498007818B15A46179990476D1CE00347
:1029100024D55B462146179A059800F050F80544E7
:102920001CE00498002807DBDDE90301884203DD91
:102930000098405C179901E0179930205A4690475B
:10294000049805F10105401C04900198401E019077
:1029500004D12E205A46179990476D1CBAF10001F8
:10296000AAF1010ADDDC05E017F8010B5A461799B8
:1029700090476D1CB8F10001A8F10108F4DC5B463A
:102980002146179A0598ABE62D0000002B000000A9
:102990002000000030BCBDE8C08F2DE9F0410446A6
:1029A00000251E461746880404D405E03946202039
:1029B000B0476D1C641EF9D52846BDE8F0812DE9AD
:1029C000F041044600251E469046C80301D5302735
:1029D00000E02027880404D505E041463846B0478A
:1029E0006D1C641EF9D52846BDE8F08170B504461B
:1029F0000D46E1B20548FFF773FB00BF8021034895
:102A0000FFF7D0FA0028F9D0204670BD0038014009
:102A10001CB50124FEF7D2FAFEF778FEFEF72CFB78
:102A2000FEF78EF8FEF73AFA0BA0FFF75FFB0D48B2
:102A3000012100234A02CDE900100BA10E4801F04C
:102A400061FA0446012C02D100F02EFE02E04FF0A4
:102A5000FF301CBD00BFFEE74672656552544F5300
:102A60000D0A0000300000204170705461736B4308
:102A700072656174650000003D0C00082DE9F041AD
:102A800005460E461C4807681C480068001D00F0FB
:102A9000ABFB50B91948006890F82C100120884011
:102AA00017490968814316480160681C38B936B176
:102AB00012480168091D134800F0D4FB1AE07C1984
:102AC0000E4800684460BC4207D20C480168091DEA
:102AD0000D48006800F0ACFB0CE008480168091DD7
:102AE0000A48006800F0A4FB09480068844201D24B
:102AF00007480460BDE8F081900000207C000020C1
:102B000094000020C8930020840000208000002052
:102B1000AC00002010B5044600F0B0FB234800686C
:102B2000401C224908602248006840B920480460DF
:102B30000846006801280DD100F0AAF90AE01D48F6
:102B4000006838B91A480068C06AE16A884201D84A
:102B50001748046018480068401C1749086094F83A
:102B60002C10012088401549096808431349086062
:102B7000E16A01EB8101124A02EB8100211D00F0A4
:102B800071FB00F0ABFB0B48006868B108480068B7
:102B9000C06AE16A884207D24FF080500949086054
:102BA000BFF34F8FBFF36F8F10BD00008C0000206C
:102BB0007C00002098000020A80000209400002045
:102BC000F890002004ED00E070B523E000F0D2FDA5
:102BD0001348006808B9012000E00020054601F014
:102BE00009FBBDB900F04AFB0D48C068C468201D50
:102BF00000F0FAFA0B480068401E0A4908600A48CB
:102C00000068401E0849086000F068FB204600F09C
:102C100057F800BF044800680028D7D170BD0000F5
:102C2000B49300208C0000208800002070B504467A
:102C30000D46206C70B1216CE0680844E06061686A
:102C4000E068884201D32068E0602846226CE16891
:102C5000FDF7E4FA70BD2DE9F04104460F46154634
:102C60004FF00008A66B206C28B37DB93946226C62
:102C7000A068FDF7D3FA216CA0680844A060D4E9ED
:102C80000110884217D32068A06014E03946226CF6
:102C9000E068FDF7C3FA216CE068401AE060216843
:102CA000E068884203D2216C6068401AE060022D1F
:102CB00001D106B1761E701CA0634046BDE8F081CC
:102CC00010B50446206B00F02DFB204600F02AFBD7
:102CD00010BD000030B54FF41043174800F0070452
:102CE0002CB1C01D20F00700134C041B1B1B024617
:102CF000124C22600024114D6C60D018083820F06E
:102D000007000F4C206000240D4D2D686C600C4DA9
:102D10002D682C601146441A4C60094C24680C60E4
:102D2000084D4C682C60084D4C682C604FF00044F6
:102D3000064D2C6030BD0000F80000205800002037
:102D40006000002068000020640000206C0000206B
:102D500000BFFFF739FF064800680128F9D94FF096
:102D6000805004490860BFF34F8FBFF36F8FF0E7C7
:102D7000F890002004ED00E02DE9F04106460D46F4
:102D800017469846069C0DB9246000E02760E6636C
:102D900025640121204600F0FFFEBDE8F08100001F
:102DA0002DE9FF5F81460E469246DDE90E7B109CC1
:102DB000AAF10100216B01EB800828F0070808F058
:102DC000070008B9012000E0002028B940F22B32AA
:102DD0001AA129A0FFF78AF9002507E0715D04F127
:102DE00034004155705D00B902E06D1C102DF5D323
:102DF00000BF002143200155202F00D31F27E76289
:102E0000201D00F012FA04F1180000F00EFA2461FF
:102E1000C7F12000A06164620020606484F848006B
:102E200049464046039A00F0CDF92060BBF1000FFF
:102E300001D0CBF8004000F027B80000433A5C55C1
:102E4000736572735C41736168695C4465736B742C
:102E50006F705C7374645C636C696F6E5F66775CE3
:102E60004672656552544F535C7372635C74617350
:102E70006B732E63000000004572726F723A257307
:102E80002C25640D0A0000003FBCBDE8C09F000077
:102E900010B5002407E004EB84010F4A02EB810027
:102EA00000F0B6F9641C202CF5D30C4800F0B0F902
:102EB0000B4800F0ADF90B4800F0AAF90A4800F001
:102EC000A7F90A4800F0A4F9044809490860044831
:102ED0000849086010BD0000F89000207893002099
:102EE0008C930020A0930020B4930020C89300206E
:102EF000800000208400002010B50146164800E044
:102F0000006803688B42FBD30246436813448B423C
:102F100004D143684C682344436001460A464B6829
:102F200013440468A34211D10C4C03682468A342E3
:102F300008D04B680468646823444B6003681B68CE
:102F40000B6005E0054B1B680B6001E003680B603C
:102F5000884200D0016010BD5800002060000020B1
:102F600070B5054600F08AF9A86B08B9012400E0A5
:102F7000002400F0B3F9204670BD70B5054600F09E
:102F80007DF9A86BE96B884201D1012400E000249F
:102F900000F0A4F9204670BD0A490968096809B91A
:102FA000012100E0002121B14FF0FF31064A1160FC
:102FB00006E004490968C968C868034A41681160A5
:102FC0007047000080000020AC0000200B48006823
:102FD000401C08B9012000E0002020B9F422084973
:102FE00008A0FFF783F800BF502080F31188BFF3DB
:102FF0004F8FBFF36F8F00BF00BFFEE77000002050
:10300000D84300084572726F723A25732C25640DFF
:103010000A00000070B5044600F030F994F94550FC
:1030200010E0606A08B9012000E0002038B904F11E
:10303000240001F071F818B100F0B8FA00E003E0E4
:10304000681E45B2002DECDC00BFFF2084F845006F
:1030500000F044F900F012F994F9445010E02069AE
:1030600008B9012000E0002048B904F1100001F087
:1030700053F808B100F09AFA681E45B200E001E08A
:10308000002DECDC00BFFF2084F8440000F026F99E
:1030900070BD00002DE9F04104464FF0000800F03B
:1030A00069FB3E48006808B9FFF714FE3C48006819
:1030B000204000285FD1A4B1083404F0070080B19B
:1030C00004F00700C0F10800044404F0070008B948
:1030D000012000E0002020B9BF22324932A0FFF7D2
:1030E00005F8002C47D034480068844243D8334E5A
:1030F0003046056801E02E462D686868A04202D27D
:1031000028680028F7D125480068854233D0306808
:1031100000F10808286830606868001B102813D97F
:103120002F1907F0070008B9012000E0002020B99E
:10313000EC221C491CA0FEF7D9FF6868001B7860D0
:103140006C603846FFF7D8FE1B4968680968081AA2
:10315000194908600846006819490968884203D27D
:1031600015480068164908600D49686809680843F1
:1031700068600020286001F03DF808F0070008B9F9
:10318000012000E0002028B94FF49672054906A0FE
:10319000FEF7ACFF4046BDE8F08100006000002073
:1031A0006C000020944300084572726F723A2573D8
:1031B0002C25640D0A000000640000205800002047
:1031C00068000020001F4FF080730360001F21F093
:1031D00001030360001F034B0360143802602038B2
:1031E00070470000CD2F000801460A69D1E901307F
:1031F0009860D1E9010358605068884201D188681D
:103200005060002008611068401E10601068704710
:1032100000F1080141604FF0FF31816000F10801C9
:10322000C1600161002101607047002101617047A8
:1032300010B502460B685C1C0CB9106907E002F17E
:10324000080000E04068446824689C42FAD9446859
:103250004C604C68A160886041600A611468641C1D
:10326000146010BD42684A6093688B60936859602F
:103270009160086103685B1C0360704710B500BF74
:10328000502080F31188BFF34F8FBFF36F8F00BFC3
:103290000B480068401C0A4908600846006801287D
:1032A0000DD108480068C0B208B9012000E0002034
:1032B00028B94FF4BD72044904A0FEF717FF10BDF2
:1032C0007000002004ED00E0D84300084572726FE2
:1032D000723A25732C25640D0A00000010B50B48C6
:1032E000006828B940F2811209490AA0FEF7FEFEE3
:1032F00006480068401E054908600846006820B975
:10330000002080F3118800BF00BF10BD70000020B6
:10331000D84300084572726F723A25732C25640DEC
:103320000A00000070B506463546002E35D0083D2F
:103330002C461A4960680968084008B1012000E07D
:10334000002028B94FF4A072154916A0FEF7CEFE52
:10335000206808B9012000E0002028B940F241129D
:103360000F4910A0FEF7C2FE0C49606809680840CA
:1033700098B1206888B90949606809688843606025
:1033800000F0F8F90B4960680968084409490860C9
:103390002046FFF7B1FD00F02DFF70BD6C0000204E
:1033A000944300084572726F723A25732C25640DA0
:1033B0000A00000064000020064800684FF47A719B
:1033C000B0FBF1F0401E4FF0E0214861072008619A
:1033D000704700000400002070B504460025002C52
:1033E00015D01048006808B9012000E0002028B975
:1033F00040F2CF420CA11BA0FEF778FE00F0BAF914
:1034000000212046FFF73AFB00F0F4FE05463DB9E7
:103410004FF0805017490860BFF34F8FBFF36F8F95
:1034200070BD0000B4000020433A5C5573657273B0
:103430005C41736168695C4465736B746F705C7345
:1034400074645C636C696F6E5F66775C4672656519
:1034500052544F535C7372635C7461736B732E636D
:10346000000000004572726F723A25732C25640DBE
:103470000A00000004ED00E070B50546FFF7FEFE0F
:1034800015B92D48006800E028460446201DFFF7C6
:10349000ABFE78B9E06A00EB8000284951F82000C3
:1034A00040B994F82C1001208840254909688143CF
:1034B00023480160A06A18B104F11800FFF794FED8
:1034C00020480068401C1F4908601B48006884426F
:1034D00009D1211D1C48FFF7C5FE1C480068401C8F
:1034E0001A49086009E01A480068401E1849086037
:1034F0002046FFF7E5FBFFF74FFDFFF7EFFE15480E
:103500000068C0B10C480068844214D112480068B9
:1035100008B9012000E0002028B940F265420FA15F
:103520001DA0FEF7E3FD4FF080501F490860BFF378
:103530004F8FBFF36F8F70BD7C000020F89000208C
:1035400094000020A8000020B493002088000020F0
:103550008C00002098000020B4000020433A5C5505
:10356000736572735C41736168695C4465736B7405
:103570006F705C7374645C636C696F6E5F66775CBC
:103580004672656552544F535C7372635C74617329
:103590006B732E63000000004572726F723A2573E0
:1035A0002C25640D0A00000004ED00E00120014913
:1035B00008607047A000002070B504460D462CB985
:1035C00040F6063207A116A0FEF790FD18480168E4
:1035D00018312046FFF72CFE01212846FFF74EFA4E
:1035E00070BD0000433A5C55736572735C41736152
:1035F00068695C4465736B746F705C7374645C635E
:103600006C696F6E5F66775C4672656552544F53A6
:103610005C7372635C7461736B732E6300000000F3
:103620004572726F723A25732C25640D0A000000F2
:103630007C00002010B504462CB940F6C13205A12B
:1036400013A0FEF753FD1648006820601548006877
:10365000606010BD433A5C55736572735C41736181
:1036600068695C4465736B746F705C7374645C63ED
:103670006C696F6E5F66775C4672656552544F5336
:103680005C7372635C7461736B732E630000000083
:103690004572726F723A25732C25640D0A00000082
:1036A000A4000020900000201CB5184800210B4603
:1036B0008022CDE9001016A1174800F023FC044633
:1036C000012C15D100BF502080F31188BFF34F8F1C
:1036D000BFF36F8F00BF4FF0FF301049086001202B
:1036E0000F49086000200F49086000F0B3F80BE0B4
:1036F000601C08B1012000E0002028B940F284726B
:1037000009A118A0FEF7F2FC1CBD0000B0000020CB
:1037100049444C4500000000512D0008AC00002039
:103720009800002090000020433A5C557365727346
:103730005C41736168695C4465736B746F705C7342
:1037400074645C636C696F6E5F66775C4672656516
:1037500052544F535C7372635C7461736B732E636A
:10376000000000004572726F723A25732C25640DBB
:103770000A00000002480068401C014908607047C8
:10378000B400002010B51B48006818B101201A4988
:1037900008602DE000201849086018480068B0FA59
:1037A00080F0C0F11F0404EB8400154951F820009B
:1037B00008B1012000E0002028B940F6F62211A14E
:1037C0001FA0FEF793FC04EB84010D4A02EB81007D
:1037D00041684968416000F1080142688A4202D1AB
:1037E0004168496841604168C968194A116000BF71
:1037F00010BD0000B4000020A000002094000020B4
:10380000F8900020433A5C55736572735C417361B4
:1038100068695C4465736B746F705C7374645C633B
:103820006C696F6E5F66775C4672656552544F5384
:103830005C7372635C7461736B732E6300000000D1
:103840004572726F723A25732C25640D0A000000D0
:103850007C0000201CB52248014609780191FF2117
:10386000024611700146097800919DF8001001F0A0
:1038700050011C4A117007211B4A116009E01A49C6
:103880000968491E184A11609DF800104906090E82
:1038900000919DF8001001F080018029EFD01249BD
:1038A00009680902104A11601146098801F4E061B3
:1038B00011600B4A019911700C48006840F47000C7
:1038C0000A4908600846006840F070400860FFF749
:1038D00073FD002006490860FCF746FC00201CBD73
:1038E00000E400E0740000207800002020ED00E0FB
:1038F0007000002010B500BF502080F31188BFF386
:103900004F8FBFF36F8F00BF00F040FB18B14FF037
:1039100080500449086000BF002080F3118800BF78
:1039200010BD000004ED00E02DE9F84305460E4609
:1039300090460DB1012000E0002028B94FF4C47278
:103940000DA11CA0FEF7D2FB0EB9002701E005FB7C
:1039500006F707F14800FFF79DFB044644B104F168
:10396000480943464A46314628460094FFF704FA80
:103970002046BDE8F8830000433A5C5573657273D6
:103980005C41736168695C4465736B746F705C73F0
:1039900074645C636C696F6E5F66775C46726565C4
:1039A00052544F535C7372635C71756575652E6319
:1039B000000000004572726F723A25732C25640D69
:1039C0000A0000002DE9FF4782B005460E461F465B
:1039D0004FF0000A2C462CB940F2DC425AA169A0F3
:1039E000FEF784FB0EB9206C08B9012000E000202E
:1039F00028B940F2DD4254A162A0FEF777FB00F047
:103A0000B5FA08B9049808B9012000E0002028B9E7
:103A10004FF49C624CA15BA0FEF768FB00BFFFF770
:103A20002DFCD4F83890B9F1000F38D0D4F80C80C0
:103A300031462046FFF7FAF8B7B9A9F10100A063B3
:103A4000206908B9012000E0002010BB04F110003B
:103A500000F062FBE8B14FF080504E490860BFF3C0
:103A60004F8FBFF36F8F14E0C4F80C80606A08B901
:103A7000012000E0002060B904F1240000F04CFBBC
:103A800038B14FF0805043490860BFF34F8FBFF308
:103A90006F8FFFF723FC012006B0BDE8F087049884
:103AA00018B9FFF71BFC0020F6E7BAF1000F04D1AC
:103AB0006846FFF7BFFD4FF0010AFFF70FFCFFF765
:103AC00059FEFFF7DBFB94F94400401C10B90020BD
:103AD00084F8440094F94500401C10B9002084F893
:103AE0004500FFF7FBFB04A9684600F0A7F9F0B911
:103AF0002046FFF735FAA0B104F124000499FFF73E
:103B00005BFD2046FFF786FA00F074FB002886D1A3
:103B10004FF080501F490860BFF34F8FBFF36F8F86
:103B20007DE72046FFF776FA00F064FB77E7204652
:103B3000FFF770FA00F05EFB2046FFF711FA00284D
:103B4000EED00020A8E70000433A5C55736572731D
:103B50005C41736168695C4465736B746F705C731E
:103B600074645C636C696F6E5F66775C46726565F2
:103B700052544F535C7372635C71756575652E6347
:103B8000000000004572726F723A25732C25640D97
:103B90000A00000004ED00E070B505460E462C4614
:103BA0002CB940F21B121EA12CA0FEF79FFAFFF7C2
:103BB00065FBD4E90F12206801FB02006060002061
:103BC000A0632068A060E06B401E226C216800FBAF
:103BD0000210E060FF2084F8440084F845009EB99C
:103BE000206908B9012000E00020A8B904F1100004
:103BF00000F092FA80B14FF080501C490860BFF38A
:103C00004F8FBFF36F8F07E004F11000FFF700FB49
:103C100004F12400FFF7FCFAFFF760FB012070BD00
:103C2000433A5C55736572735C41736168695C44C7
:103C300065736B746F705C7374645C636C696F6ED6
:103C40005F66775C4672656552544F535C7372636E
:103C50005C71756575652E63000000004572726FBA
:103C6000723A25732C25640D0A00000004ED00E073
:103C70002DE9FF4383B0064688461D464FF00009F4
:103C800034462CB940F2D92258A167A0FEF72EFA8B
:103C9000B8F1000F01D1206C08B9012000E000202C
:103CA00028B940F2DA2251A15FA0FEF71FFA022DD7
:103CB00002D1E06B012801D1012000E0002028B9E9
:103CC00040F2DB2249A158A0FEF710FA00F04EF9AD
:103CD00008B9059808B9012000E0002028B940F291
:103CE000DE2242A150A0FEF701FA00BFFFF7C6FA9C
:103CF000A06BE16B884201D3022D28D12A464146B0
:103D00002046FEF7A8FF0746606A08B9012000E0D8
:103D1000002068B904F1240000F0FEF988B14FF0EA
:103D2000805045490860BFF34F8FBFF36F8F08E0A5
:103D30003FB14FF0805040490860BFF34F8FBFF351
:103D40006F8FFFF7CBFA012007B0BDE8F08305982D
:103D500018B9FFF7C3FA0020F6E7B9F1000F04D154
:103D600001A8FFF767FC4FF00109FFF7B7FAFFF76B
:103D700001FDFFF783FA94F94400401C10B90020BC
:103D800084F8440094F94500401C10B9002084F8E0
:103D90004500FFF7A3FA05A901A800F04FF8F0B914
:103DA0002046FFF7EAF8A0B104F110000599FFF7EB
:103DB00003FC2046FFF72EF900F01CFA002895D1ED
:103DC0004FF080501C490860BFF34F8FBFF36F8FD7
:103DD0008CE72046FFF71EF900F00CFA86E7204634
:103DE000FFF718F900F006FA0020ADE7433A5C55FA
:103DF000736572735C41736168695C4465736B746D
:103E00006F705C7374645C636C696F6E5F66775C23
:103E10004672656552544F535C7372635C7175658D
:103E200075652E63000000004572726F723A25734B
:103E30002C25640D0A00000004ED00E02DE9F0419E
:103E400004460D462CB940F6CB3219A127A0FEF747
:103E50004DF92DB940F6CC3215A124A0FEF746F954
:103E6000FFF70CFA254807682868401C08B90026A7
:103E700019E0234920680968884204D06068B84284
:103E800001D801260FE06068381A2968884209D2F3
:103E900028686168791A401A28602046FFF7CAFB33
:103EA000002600E00126FFF719FA3046BDE8F08150
:103EB000433A5C55736572735C41736168695C4435
:103EC00065736B746F705C7374645C636C696F6E44
:103ED0005F66775C4672656552544F535C737263DC
:103EE0005C7461736B732E63000000004572726F27
:103EF000723A25732C25640D0A0000009000002002
:103F0000A40000202DE9FF4F85B080468946174662
:103F1000DDE912ABB800FFF7BDF8064656B14C20FC
:103F2000FFF7B8F804460CB1266304E03046FFF70B
:103F3000F9F900E000247CB10020CDE900ABCDE927
:103F400002403A4649464046089BFEF729FF204674
:103F5000FEF7E0FD012501E04FF0FF35284609B0EE
:103F600000F000B830BCBDE8C08F0000054909680A
:103F700009B9012005E00449096809B9022000E0F7
:103F80000020704798000020B40000202DE9F04187
:103F90004FF0000842480068002873D1414800688B
:103FA000451C40480560002D1DD13F480068006851
:103FB00008B9012000E0002028B940F6D9123BA141
:103FC00049A0FEF793F8384807684B48006836491F
:103FD00008604948076049480068401C4749086034
:103FE000FEF7DAFF00BF4648006885423CD300BFB9
:103FF0002D480068006808B9012000E0002020B1C9
:104000004FF0FF303E4908602DE027480068C06847
:10401000C4686668B54202D23948066023E0201DB4
:10402000FFF7E2F8A06A18B104F11800FFF7DCF816
:1040300094F82C100120884032490968084331491E
:104040000860E16A01EB81012F4A02EB8100211D2A
:10405000FFF708F92D49E06A0968C96A8842C7D3A1
:104060004FF00108C4E700BF28480068C06A00EBB1
:104070008000254951F82000012801D94FF001089E
:1040800005E0FFE722480068401C214908602148FC
:10409000006808B14FF001084046BDE8F08100001B
:1040A000B40000209000002080000020433A5C55BE
:1040B000736572735C41736168695C4465736B74AA
:1040C0006F705C7374645C636C696F6E5F66775C61
:1040D0004672656552544F535C7372635C746173CE
:1040E0006B732E63000000004572726F723A257385
:1040F0002C25640D0A00000084000020A40000208C
:10410000AC00002094000020F89000207C000020EB
:104110009C000020A000002070B50646F068C4682E
:104120002CB940F661321AA128A0FDF7DFFF04F197
:104130001800FFF759F829480068A8B9201DFFF7B3
:1041400053F894F82C100120884025490968084349
:1041500023490860E16A01EB8101224A02EB8100F8
:10416000211DFFF77FF804E004F118011E48FFF756
:1041700079F81E49E06A0968C96A884204D90125AC
:1041800001201B49086000E00025284670BD0000A2
:10419000433A5C55736572735C41736168695C4452
:1041A00065736B746F705C7374645C636C696F6E61
:1041B0005F66775C4672656552544F535C737263F9
:1041C0005C7461736B732E63000000004572726F44
:1041D000723A25732C25640D0A000000B4000020FB
:1041E00094000020F8900020A09300207C00002084
:1041F000A000002070B5002400263448006828B9CB
:104200004FF4FD6232A141A0FDF770FFFFF736F8D1
:104210002E480068401E2D490860084600680028A6
:104220004FD13E48006800284BD024E03C48C0688D
:10423000C46804F11800FEF7D7FF201DFEF7D4FF75
:1042400094F82C1001208840364909680843354904
:104250000860E16A01EB8101334A02EB8100211D14
:10426000FFF700F83149E06A0968C96A884202D359
:1042700001202F4908602A48006808B9012000E0A1
:1042800000200028D2D00CB1FEF786FE2948056830
:1042900065B100BFFFF77AFE10B101202449086024
:1042A0006D1E002DF6D100202249086020480068CC
:1042B00038B10126300720490860BFF34F8FBFF3A4
:1042C0006F8FFFF70BF8304670BD0000B400002080
:1042D000433A5C55736572735C41736168695C4411
:1042E00065736B746F705C7374645C636C696F6E20
:1042F0005F66775C4672656552544F535C737263B8
:104300005C7461736B732E63000000004572726F02
:10431000723A25732C25640D0A0000008C000020E1
:10432000A093002094000020F89000207C00002042
:10433000A00000209C00002004ED00E00D0AEFBF6B
:10434000BDEFBFBDC8A14448543131EFBFBDC9B9AD
:10435000EFBFBD210D0A0D0ACAAAEFBFBDEFBFBD59
:10436000CEAA25642E256420EFBFBDEFBFBD524805
:1043700020EFBFBDEFBFBDEFBFBDC2B6EFBFBDCE2B
:10438000AA2025642E2564EFBFBDEFBFBD200D0A16
:1043900000000000433A5C55736572735C417361C1
:1043A00068695C4465736B746F705C7374645C63A0
:1043B0006C696F6E5F66775C4672656552544F53E9
:1043C0005C706F72745C4D656D4D616E675C6865A5
:1043D00061705F342E630000433A5C5573657273FD
:1043E0005C41736168695C4465736B746F705C7386
:1043F00074645C636C696F6E5F66775C467265655A
:1044000052544F535C706F72745C525644535C410B
:10441000524D5F434D335C706F72742E6300000029
:104420004044000800000020BC0000000C210008EF
:10443000FC440008BC000020249900001C21000856
:104440000000000000A24A0400000000000000007C
:10445000010203040607080900000000010203042A
:104460000102030406070809020406080000000010
:10447000000000000000000000000000000000003C
:10448000000000000000000000000000000000002C
:10449000000000000000000000000000000000001C
:1044A000000000000000000000000000000000000C
:1044B000AAAAAAAA00000000000000000000000054
:1044C00000000000000000000000000000000000EC
:1044D00000000000000000000000000000000000DC
:1044E00000000000000000000000000000000000CC
:0C44F000000000000000000000000000C0
:0400000508000131BD
:00000001FF
