:020000040800F2
:1000000048060020450100080F040008030300080B
:100010000B040008A9010008ED050008000000001D
:10002000000000000000000000000000350400088F
:10003000AD010008000000001104000821050008BF
:100040005F0100085F0100085F0100085F01000810
:100050005F0100085F0100085F0100085F01000800
:100060005F0100085F0100085F0100085F010008F0
:100070005F0100085F0100085F0100085F010008E0
:100080005F0100085F0100085F0100085F010008D0
:100090005F0100085F0100085F0100085F010008C0
:1000A0005F0100085F0100085F0100085F010008B0
:1000B0005F0100085F0100085F0100085F010008A0
:1000C0005F0100085F0100085F0100085F01000890
:1000D0005F0100085F0100085F0100085F01000880
:1000E0005F0100085F0100085F0100085F01000870
:1000F0005F0100085F0100085F0100085F01000860
:100100005F0100085F0100085F0100085F0100084F
:100110005F0100085F0100085F0100085F0100083F
:100120005F0100085F0100085F0100085F0100082F
:10013000DFF80CD000F026F8004800471106000850
:10014000480600200948804709480047FEE7FEE7C7
:10015000FEE7FEE7FEE7FEE7FEE7FEE7FEE7FEE777
:1001600004480549054A064B704700004D05000844
:100170003101000848000020480600204802002005
:1001800048020020064C074D06E0E06840F00103FD
:1001900094E8070098471034AC42F6D3FFF7CCFF41
:1001A000240600084406000800BFFEE77047000070
:1001B00008B50121082000F02DF90120ADF800005C
:1001C00003208DF8020010208DF803002020ADF8E8
:1001D000000003208DF8020010208DF8030069460E
:1001E000014800F003F808BD000C01402DE9F04182
:1001F000024600250026002000230024002791F855
:1002000003C00CF00F0591F803C00CF0100CBCF10A
:10021000000F03D091F802C04CEA050591F800C028
:10022000BCF1000F31D0146800202BE04FF0010C1E
:100230000CFA00F3B1F800C00CEA03069E4220D18C
:1002400083004FF00F0C0CFA03F7BC4305FA03FCD4
:100250004CEA040491F803C0BCF1280F06D14FF01A
:10026000010C0CFA00FCC2F814C00AE091F803C0BB
:10027000BCF1480F05D14FF0010C0CFA00FCC2F89C
:1002800010C0401C0828D1D31460B1F800C0BCF1E4
:10029000FF0F34DD546800202EE000F1080C4FF011
:1002A000010808FA0CF3B1F800C00CEA03069E42FC
:1002B00021D183004FF00F0C0CFA03F7BC4305FA71
:1002C00003FC4CEA040491F803C0BCF1280F05D1EB
:1002D00000F1080C08FA0CF8C2F8148091F803C079
:1002E000BCF1480F07D100F1080C4FF0010808FAE3
:1002F0000CF8C2F81080401C0828CED35460BDE82A
:10030000F08100BFFEE7000070B50546304800EB05
:1003100005142068804700283ED020790A2802DA98
:100320000A20207152E02079142803DA2079401C39
:1003300020714BE0A07A38B90120A07205EB45018D
:10034000491CC8B200F046F8208900283EDDE0884C
:10035000218988420DDAE088401C80B2E080218942
:10036000884233D105EB4501C91CC8B200F032F810
:100370002CE0E07A002829DD207B401CC0B22073ED
:10038000E17A884222DB0020207305EB4501491CFD
:10039000C8B200F01FF819E020790A2802DD0A200F
:1003A000207110E0207918B12079401E20710AE0F8
:1003B000A07A012807D10020A07205EB4501891C15
:1003C000C8B200F007F80020E080207370BD000084
:1003D0000C0000200649C97A054A50541146C97AD2
:1003E000491CC9B2D1720A2901DB0021D1727047C0
:1003F0003C00002010B5002404E02046FFF784FFF5
:10040000601CC4B2032CF8DB10BD00BFFEE77047D0
:100410007047000029B1064A92690243044B9A6171
:1004200004E0034A92698243014B9A6170470000DD
:1004300000100240704710B500F002F810BD000037
:100440000CB50020019000903348006840F48030E3
:100450003149086000BF3048006800F40030009067
:100460000198401C0190009818B90198B0F5A06F50
:10047000F1D12948006800F4003010B1012000904B
:1004800001E0002000900098012843D12348006833
:1004900040F01000214908600846006820F0030081
:1004A00008600846006840F0020008601A4840688A
:1004B000194948600846406848600846406840F46A
:1004C000806048600846406820F47C104860084618
:1004D000406840F4E81048600846006840F08070CA
:1004E000086000BF0C48006800F000700028F9D0D8
:1004F0000948406820F00300074948600846406802
:1005000040F00200486000BF0348406800F00C0063
:100510000828F9D10CBD0000001002400020024064
:1005200010B500F043F808480068B0F5FA7F05D22E
:1005300005480068401C0449086004E000200249A6
:10054000086000F03FF810BD0800002010B5134807
:10055000006840F0010011490860084640681049F1
:1005600008400E494860084600680E4908400B499B
:1005700008600846006820F480200860084640684B
:1005800020F4FE0048604FF41F008860FFF753FF1F
:100590004FF000600449086010BD000000100240E8
:1005A0000000FFF8FFFFF6FE08ED00E004480068D9
:1005B00020B103480068401E0149086070470000F0
:1005C0000000002010B508480088012805DA064818
:1005D0000088401C0449088004E00020024908808B
:1005E000FFF708FF10BD00000400002000BFFEE779
:1005F00002E008C8121F08C1002AFAD170477047EC
:10060000002001E001C1121F002AFBD17047000049
:1006100010B5FFF7CDFD00200149086010BD0000B6
:100620008081214244060008000000200C000000E8
:10063000F0050008500600080C0000203C060000F1
:10064000000600080000000000000000000000009C
:0400000508000131BD
:00000001FF
