:020000040800F2
:10000000D8990020DD010008E9120008EF0F000870
:10001000E5120008A50800083D1B000800000000CC
:100020000000000000000000000000004501000882
:100030002D0E00080000000089010008E5150008E9
:10004000F7010008F7010008F7010008F7010008B0
:10005000F7010008F7010008F7010008F7010008A0
:10006000F7010008F7010008F7010008F701000890
:10007000F7010008F7010008F7010008F701000880
:10008000F7010008F7010008F7010008F701000870
:10009000F7010008F7010008F7010008F701000860
:1000A000F7010008F7010008F7010008F701000850
:1000B000F7010008F7010008F7010008F701000840
:1000C000F7010008F7010008F7010008F701000830
:1000D000F7010008F7010008F7010008F701000820
:1000E000F7010008F7010008F7010008F701000810
:1000F000F7010008F7010008F7010008F701000800
:10010000F7010008F7010008F7010008F7010008EF
:10011000F7010008F7010008F7010008F7010008DF
:10012000F7010008F7010008F7010008F7010008CF
:10013000DFF80CD000F032F9004800476D1E0008CF
:10014000D8990020224B19680868B0E8F00F80F3B6
:100150000988BFF36F8F4FF0000080F311884EF0D5
:100160000D0E70470000000006480068006880F32C
:10017000088862B661B6BFF34F8FBFF36F8F00DFA1
:1001800000BF00BF08ED00E0EFF30980BFF36F8F01
:100190000F4B1A6820E9F00F106008B54FF05000BF
:1001A00080F31188BFF34F8FBFF36F8F02F046FDCE
:1001B0004FF0000080F31188BDE808401968086816
:1001C000B0E8F00F80F30988BFF36F8F704700BF6E
:1001D00074000020EFF30580704700000948804755
:1001E00009480047FEE7FEE7FEE7FEE7FEE7FEE719
:1001F000FEE7FEE7FEE7FEE704480549054A064B31
:10020000704700001916000831010008D89300203B
:10021000D8990020D8950020D895002040EA010305
:100220009B0703D009E008C9121F08C0042AFAD2AC
:1002300003E011F8013B00F8013B521EF9D2704770
:1002400030B480EA010202F0004530F0004221F0B3
:10025000004013D090B1C30DD40DC2F31601C0F30A
:100260001600E41A41F4000140F400027D3491428A
:1002700001D3641C00E04900002C02DA30BC0020ED
:1002800070474FF400000023914201D3891A0343C1
:1002900040084FEA4101F7D151B1914202D14FF0EC
:1002A000004105E002D24FF0010101E06FF00101D1
:1002B00003EBC450284430BC00F039B89623002228
:1002C000114600F03DB82DE9F05F0546002092464A
:1002D0009B4688460646814640241BE02846414608
:1002E0004746224600F07BF853465A46C01A9141D1
:1002F00010D311461846224600F062F82D1A67EB1B
:1003000001084F4622460120002100F059F817EB62
:1003100000094E41201EA4F10104DFDC48463146AD
:100320002A46434600F000B830BCBDE8C09F002913
:10033000A8BF7047401C490008BF20F0010070476B
:1003400010B4B0FA80FC00FA0CF050EA010404BFCB
:1003500010BC704749B1CCF1200421FA04F411FA21
:100360000CF118BF012121430843A3EB0C01CB1D65
:100370004FEA00614FEA102042BF002010BC7047D6
:1003800000EBC35010440029A4BF10BC7047401CB0
:10039000490008BF20F0010010BC7047064C074D13
:1003A00006E0E06840F0010394E807009847103445
:1003B000AC42F6D3FFF7C0FE14380008343800080A
:1003C000202A04DB203A00FA02F100207047914015
:1003D000C2F1200320FA03F3194390407047202A0A
:1003E00004DB203A21FA02F00021704721FA02F3DF
:1003F000D040C2F12002914008431946704721B114
:10040000826842F00102826003E0826822F0010209
:100410008260704721B1826842F48072826003E09A
:10042000826822F4807282607047014600208A68E8
:1004300002F004020AB1012000E0002070470146EA
:1004400000208A6802F008020AB1012000E00020C2
:100450007047000030B502460020002350680F4C62
:1004600020400D790C6844EA0524204350609068D0
:100470000B4C2040D1E902542C434D7944EA450409
:1004800020439060D06A20F470000C7C641EE4B2BB
:10049000234340EA0350D06230BD0000FFFEF0FF6E
:1004A000FDF7F1FFF0B504460D4600200021092DAF
:1004B00011DDE068A5F10A0606EB4607072606FAF5
:1004C00007F18843A5F10A0606EB460603FA06F192
:1004D0000843E0600CE0206905EB4507072606FAB3
:1004E00007F1884305EB450603FA06F1084320614E
:1004F000072A0FDA606B561E06EB86071F2606FAE0
:1005000007F18843561E06EB860605FA06F10843F6
:10051000606322E00D2A0FDA206BD61F06EB8607F8
:100520001F2606FA07F18843D61F06EB860605FA52
:1005300006F10843206310E0E06AA2F10D0606EB25
:1005400086071F2606FA07F18843A2F10D0606EB7F
:10055000860605FA06F10843E062F0BD816841F0C5
:1005600008018160704721B1826842F4A002826074
:1005700003E0826822F4A00282607047816841F043
:1005800004018160704700000DE007480088FFF714
:1005900095FE05464FF08B41FFF752FE04464FF49F
:1005A0007A7002F081F9F0E70000002008B501211F
:1005B000102000F01BFF0220ADF8000000208DF895
:1005C00003006946014800F032FC08BD00100140FC
:1005D00010B5FFF7EBFF00F001F810BD00B591B0CA
:1005E0000121084600F0E2FE0121480200F0FEFE73
:1005F000334800F057FB33480690334807900020FB
:1006000008900120099000200A900B904FF4807010
:100610000C9080000D9020200E9000020F90002082
:10062000109006A9264800F0E3FB0121244800F0C1
:100630002DFB002001908DF8080001208DF80900A5
:100640004FF4602003900020049001208DF81400E6
:1006500001A91C484C38FFF7FDFE4FF4404000F064
:1006600099FE052301220B2116484C38FFF71AFF8B
:10067000012114484C38FFF7CDFE012111484C38B8
:10068000FFF7BDFE0F484C38FFF768FF00BF0D486D
:100690004C38FFF7D4FE0028F9D10A484C38FFF750
:1006A0006DFF00BF07484C38FFF7BFFE0028F9D1A7
:1006B000012104484C38FFF756FF11B000BD00007F
:1006C000080002404C240140000000207CB5054693
:1006D000012402F01DF800220121042002F07EFB1B
:1006E0002F4908600846006810B12EA001F028FAD2
:1006F0003648012100234A02CDE9001034A13648D2
:1007000002F050FE0446012C02D134A001F018FA88
:100710003848012100234A02CDE9001036A13948AA
:1007200002F040FE0446012C02D137A001F008FA85
:100730003B48012100234A02CDE9001039A13B4882
:1007400002F030FE0446012C02D139A001F0F8F984
:100750003D48012100234A02CDE900103BA13D485C
:1007600002F020FE0446012C02D13BA001F0E8F982
:100770003F48012100234A02CDE900103DA1404835
:1007800002F010FE0446012C02D13EA001F0D8F97F
:100790004348006802F0D4F801F0EAFF7CBD000095
:1007A00044000020E5889BE5BBBA546573745F5133
:1007B00075657565E6B688E681AFE9989FE5889727
:1007C000E68890E58A9F0D0A0000000030000020B6
:1007D0004B65795461736B0031120008E5889BE525
:1007E000BBBA4B65795F5461736BE68890E58A9F6D
:1007F0000D0A000034000020546573745461736B5B
:100800000000000059190008E5889BE5BBBA546553
:1008100073745F5461736BE68890E58A9F0D0A00DC
:10082000380000204144435461736B00890500087F
:10083000E5889BE5BBBA4144435F5461736BE6882E
:1008400090E58A9F0D0A00003C0000204C4544546E
:1008500061736B00A9120008E5889BE5BBBA4C45A3
:10086000445F5461736BE68890E58A9F0D0A00002F
:100870004000002044454255475461736B0000001E
:10088000AD0A0008E5889BE5BBBA44454255475F81
:100890005461736BE68890E58A9F0D0A00000000A2
:1008A0002C00002000BFFEE708B50121092000F060
:1008B0009DFD01210F4800F045FB2020ADF8000010
:1008C00018208DF8030003208DF8020069460A48BD
:1008D00000F0ADFA0120ADF800006946064800F0CE
:1008E000A6FA0220ADF800006946034800F09FFA1E
:1008F00008BD000000081A00000C014010B5FFF709
:10090000D3FF00F001F810BD00B587B0012102202F
:1009100000F05CFDFF20ADF814004FF47A60ADF8F4
:1009200010000020ADF81600ADF8120004A9184818
:1009300000F0C0FF6020ADF800000120ADF802001B
:100940000020ADF806000220ADF808006946104806
:1009500000F0AAFE08210E4800F0F8FE69460C4897
:1009600000F002FF08210A4800F04EFF69460848DF
:1009700000F054FF0821064800F08EFF01210448D2
:1009800000F07AFE0121024800F082FE07B000BDAF
:10099000000400400748006840F080700549086086
:1009A0000020054948600846006840F001000860E2
:1009B00070470000FCED00E0001000E001484068D6
:1009C00070470000001000E031B50024FFF7E2FF9F
:1009D000104800681049B0FBF1F0009900FB01F5E8
:1009E00000BFFFF7EBFF034611E0FFF7E7FF02460A
:1009F0009A420CD09A4202D9D01A044403E0C3F1BF
:100A0000FF30104404441346AC4200D300E0ECE74E
:100A100000BF38BD0400002040420F0000B585B083
:100A20000121042000F0E2FC0121880300F0DEFC3B
:100A30004FF40070ADF8100018208DF8130003205B
:100A40008DF8120004A9174800F0F1F94FF4806006
:100A5000ADF8100004208DF8130004A9114800F02F
:100A6000E6F94FF4E13000900020ADF80400ADF855
:100A70000600ADF80800ADF80C000C20ADF80A0037
:100A80006946094800F0EAFF00F02FFC012240F21D
:100A90002551054800F0BDFF0121034800F0A0FFEB
:100AA00005B000BD000801400038014008B5012430
:100AB00012E000235A1E69460848006802F0DAF97D
:100AC0000446012C04D106A0009901F039F803E096
:100AD000214607A001F034F8EBE7000044000020B5
:100AE00044454255473A202564200D0A0000000085
:100AF000E695B0E68DAEE68EA5E694B6E587BAE952
:100B00009499203078256C780D0A000008B50121F1
:100B1000402000F06BFC4020ADF8000010208DF864
:100B2000030003208DF802006946024800F07FF9B7
:100B300008BD00000018014010B5FFF7E7FF402195
:100B4000014800F052FA10BD0018014008B54020DD
:100B5000ADF8000048208DF803006946014800F018
:100B600066F908BD0018014008B54020ADF8000046
:100B700010208DF8030003208DF80200694602481A
:100B800000F055F908BD00000018014070B50025BF
:100B9000002424E000BF4021134800F01BFA002885
:100BA000F9D02820FFF710FF40210F4800F012FA7B
:100BB00001280DD100BF40210B4800F00BFA01289D
:100BC000F9D0C4F1070101208840C0B2054304E018
:100BD000C4F10701012088408543601CC4B2082C81
:100BE000D8DB284670BD00000018014010B504464F
:100BF000FFF7BAFF4021244800F0F5F944F25060B5
:100C0000FFF7E2FE4021204800F0EFF91E20FFF739
:100C1000DBFEFFF79BFF40211B4800F0DBF970BBB8
:100C200000BF4021184800F0D5F90028F9D000BFD6
:100C30004021154800F0CEF90128F9D0FFF7A6FFB2
:100C40002070FFF7A3FF6070FFF7A0FFA070FFF711
:100C50009DFFE070FFF79AFF2071FFF785FF4021AD
:100C6000094800F0C2F9207861780844A178084466
:100C7000E17808442179884202D1012010BD01E0C9
:100C80000020FBE70020F9E70018014021B10268CD
:100C900042F00102026004E002684FF6FE731A405F
:100CA0000260704701684FF6FE721140016000213A
:100CB000016041608160C1604B49884208D14A4966
:100CC0000839496841F00F01474A083A51608AE003
:100CD00045491431884208D143490839496841F0EF
:100CE000F001414A083A51607DE03F49283188428D
:100CF00008D13D490839496841F470613A4A083AD7
:100D0000516070E038493C31884208D13649083991
:100D1000496841F47041344A083A516063E032490D
:100D20005031884208D130490839496841F470216E
:100D30002D4A083A516056E02B496431884208D167
:100D400029490839496841F47001274A083A516035
:100D500049E025497831884208D123490839496852
:100D600041F07061204A083A51603CE01F498842D6
:100D700006D1011F096841F00F01021F116032E026
:100D80001A491431884208D11849091F096841F0ED
:100D9000F001164A121F116025E0144928318842DB
:100DA00008D11249091F096841F470610F4A121FE6
:100DB000116018E00D493C31884208D10B49091FE8
:100DC000096841F47041094A121F11600BE007499C
:100DD0005031884207D10549091F096841F4702143
:100DE000024A121F116070470800024008040240C6
:100DF00010B50022026847F6F0739A430C6A8B68BC
:100E000023430C6923434C6923438C692343CC69F6
:100E100023434C6A23438C6A23431A430260CB6802
:100E200043600B6883604B68C36010BD70472DE959
:100E3000F041024600250026002000230024002760
:100E400091F803C00CF00F0591F803C00CF0100CE2
:100E5000BCF1000F03D091F802C04CEA050591F8EF
:100E600000C0BCF1000F31D0146800202BE04FF01F
:100E7000010C0CFA00F3B1F800C00CEA03069E4224
:100E800020D183004FF00F0C0CFA03F7BC4305FA96
:100E900003FC4CEA040491F803C0BCF1280F06D10E
:100EA0004FF0010C0CFA00FCC2F814C00AE091F8F3
:100EB00003C0BCF1480F05D14FF0010C0CFA00FC47
:100EC000C2F810C0401C0828D1D31460B1F800C08B
:100ED000BCF1FF0F34DD546800202EE000F1080C57
:100EE0004FF0010808FA0CF3B1F800C00CEA030651
:100EF0009E4221D183004FF00F0C0CFA03F7BC4344
:100F000005FA03FC4CEA040491F803C0BCF1280F75
:100F100005D100F1080C08FA0CF8C2F8148091F819
:100F200003C0BCF1480F07D100F1080C4FF00108D5
:100F300008FA0CF8C2F81080401C0828CED3546080
:100F4000BDE8F081F0B50A46002300240021002509
:100F500000F00046B6F1004F02D11D4EF16901E0EC
:100F60001B4E7168C0F3034583B200F44016B6F51A
:100F7000401F08D121F07061154E766826F070662A
:100F8000134F7E6012E000F48016B6F5801F06D184
:100F9000032606FA05F4A14341F0706106E0460D10
:100FA000360103FA06F6B14341F0706122B1460DF5
:100FB000360103FA06F6314300F00046B6F1004F61
:100FC00002D1034EF16101E0014E7160F0BD0000FD
:100FD000000001400246002093680B400BB1012045
:100FE00000E000207047416170470161704700BF19
:100FF000FEE7000010B501210348FFF7EBFF0128D1
:1010000000D110BD0020FCE70008014010B54FF4EE
:1010100000510448FFF7DEFF012800D110BD002079
:10102000FCE700000010014010B54FF400510448E7
:10103000FFF7D0FF012800D110BD0020FCE7000021
:101040000010014070B50546304800EB05142068DB
:10105000804700283ED020790A2802DA0A20207131
:1010600052E02079142803DA2079401C20714BE0EB
:10107000A07A38B90120A07205EB4501491CC8B21D
:1010800000F094F8208900283EDDE088218988421C
:101090000DDAE088401C80B2E0802189884233D19B
:1010A00005EB4501C91CC8B200F080F82CE0E07ADD
:1010B000002829DD207B401CC0B22073E17A8842E1
:1010C00022DB0020207305EB4501491CC8B200F06B
:1010D0006DF819E020790A2802DD0A20207110E05D
:1010E000207918B12079401E20710AE0A07A0128E9
:1010F00007D10020A07205EB4501891CC8B200F0A1
:1011000055F80020E080207370BD0000B40000207E
:101110000B48807A0A4AD27A904201D10020704767
:101120000748807A064A115C1046807A401CC0B29B
:1011300090720A2801DB002090720846EFE7000059
:10114000E40000200021144A9172D172002018E0BE
:10115000C821124A02EB0012118105210F4A02EB4D
:101160000012117100210D4A02EB001291720B4A1C
:1011700002EB0012D172094A02EB00121173411CFA
:10118000C8B20328E4DB0649044A1160054911612D
:101190000549116270470000E4000020B4000020FF
:1011A000F50F00080D100008291000080649C97A3B
:1011B000054A50541146C97A491CC9B2D1720A294C
:1011C00001DB0021D1727047E400002008B5012145
:1011D000142000F00BF904208DF803000120ADF875
:1011E000000069460A48FFF722FE4FF40050ADF8B0
:1011F000000069460748FFF71AFE4FF40050ADF8AB
:10120000000069460348FFF712FEFFF79BFF08BD89
:10121000000801400010014010B5002404E0204601
:10122000FFF710FF601CC4B2032CF8DB10BD0000F8
:1012300021E0FFF76DFF0446D4B1012C06D0032C4A
:1012400008D0042C0AD0062C10D10BE00AA000F024
:1012500077FC0CE00BA000F073FC08E00CA000F0A1
:101260006FFC04E00DA000F06BFC00E000BF00BFCD
:10127000022001F019FBDCE76B65793120646F77A0
:101280006E0D0A006B657931206C6F6E670D0A0078
:101290006B65793220646F776E0D0A006B65793269
:1012A000206C6F6E670D0A001E260024002515E0D5
:1012B000204600F015F9304601F0F6FA15B9084855
:1012C000044401E00648241A6FF07F40844201D1B3
:1012D00005B9012514B9012D00D10025E8E700006A
:1012E0001111110000BFFEE7704708B54FF4A06070
:1012F00000F046F825208DF8000001208DF801004F
:101300008DF802008DF80300684600F001F808BD72
:1013100070B5002100230F22C47804B3154C246853
:1013200004F4E064C4F5E064210AC1F10403CA4096
:10133000447804FA03F184781440214309010E4CE7
:101340000678A155047804F01F050124AC40057807
:101350006D11AD0005F1E025C5F8004109E0047804
:1013600004F01F050124AC40044D0678761145F8C1
:10137000264070BD0CED00E000E400E080E100E0FC
:1013800002490143024A1160704700000000FA055B
:101390000CED00E001460020034A506820F4404074
:1013A00008435060704700000010024029B1064A0F
:1013B00052690243044B5A6104E0034A5269824372
:1013C000014B5A61704700000010024029B1064AE3
:1013D000D2690243044BDA6104E0034AD2698243D2
:1013E000014BDA61704700000010024029B1064A43
:1013F00092690243044B9A6104E0034A9269824372
:10140000014B9A61704700000010024030B5002186
:101410000022002400232D4D6D6805F00C0121B140
:10142000042905D0082923D105E0294D056022E0D3
:10143000274D05601FE0254D6D6805F47012234DA2
:101440006D6805F48034022505EB92421CB9214DEC
:10145000554305600BE01D4D6D6805F400351DB169
:101460001C4D5543056002E0194D5543056002E0EF
:10147000174D056000BF00BF144D6D6805F0F00109
:101480000909154D6B5C0568DD4045600F4D6D68C1
:1014900005F4E061090A104D6B5C4568DD4085602C
:1014A0000A4D6D6805F46051C90A0B4D6B5C4568C7
:1014B000DD40C560054D6D6805F44041890B074D61
:1014C0006B5CC568B5FBF3F5056130BD00100240EB
:1014D00000127A0000093D001800002028000020BA
:1014E000C0F30741044A1180C0F30721121D118087
:1014F000C1B2121D118070473804004010B500F0D1
:1015000001F810BD0CB50020019000903348006830
:1015100040F480303149086000BF3048006800F472
:10152000003000900198401C0190009818B9019873
:10153000B0F5A06FF1D12948006800F4003010B177
:101540000120009001E0002000900098012843D184
:101550002348006840F010002149086008460068F0
:1015600020F0030008600846006840F002000860B0
:101570001A4840681949486008464068486008466B
:10158000406840F4806048600846406820F47C1061
:1015900048600846406840F4E81048600846006823
:1015A00040F08070086000BF0C48006800F00070D8
:1015B0000028F9D00948406820F003000749486036
:1015C0000846406840F00200486000BF0348406899
:1015D00000F00C000828F9D10CBD000000100240FA
:1015E0000020024010B50B480068042805D20948C5
:1015F0000068401C0749086004E0002005490860B5
:1016000000F0DAF901F002FF012801D001F0CCFB73
:1016100010BD00004800002010B51348006840F0DD
:1016200001001149086008464068104908400E4909
:101630004860084600680E4908400B4908600846A3
:10164000006820F4802008600846406820F4FE000E
:1016500048604FF41F008860FFF750FF4FF00060B4
:101660000449086010BD0000001002400000FFF8AF
:10167000FFFFF6FE08ED00E021B1028842F0800293
:10168000028004E002884FF67F731A4002807047A0
:1016900021B1028842F00102028004E002884FF684
:1016A000FE731A400280704770B5002400220023A8
:1016B000058C4FF6EF7635400584028C8388048BC9
:1016C00048F6FF752C404FF6FF452C400D884FF62D
:1016D000FF7606EA05252C434FF6DF752A400D8973
:1016E00006EA05152A434D8806EA05152A43154DD5
:1016F000A84202D0144DA8421DD14FF67F752A4052
:101700004D894FF6FF7606EA05152A434FF6BF7559
:101710002A408D8806EA05152A434FF6FF352B40EF
:101720004FF2FF752B408D8906EA85052B43CD8945
:1017300006EA85052B4383800483CD8805870284D0
:1017400070BD0000002C0140003401400A46002119
:10175000018B4FF2FF7319404FF6FF7303EA022328
:10176000194301837047000070B500240022002354
:10177000058C4FF6FF6635400584028C8388848B88
:101780004FF68F752C404FF6FC752C400D882C437E
:101790004FF6FF552A400D894FF6FF7606EA0525DC
:1017A0002A434D8806EA05252A43154DA84202D052
:1017B000144DA8421DD14FF2FF752A404D894FF6B6
:1017C000FF7606EA05252A434FF6FF352A408D8825
:1017D00006EA05252A434EF6FF752B404DF6FF75A8
:1017E0002B408D8906EA05152B43CD8906EA0515A0
:1017F0002B4383808483CD888587028470BD00005D
:10180000002C0140003401400A460021818B4FF634
:10181000F7731940114381837047000070B50022AF
:1018200000230024058C4EF6FF7635400584038C9A
:101830008488828B48F6FF752A404FF6FF452A4080
:101840000D884FF6FF7606EA05252A434DF6FF750B
:101850002B400D8906EA05352B434D8806EA0535F0
:101860002B430B4DA84202D00A4DA84208D14BF69B
:10187000FF752C408D894FF6FF7606EA85152C43BF
:1018800084808283CD88A0F84050038470BD00001E
:10189000002C0140003401400A460021818B4FF2A8
:1018A000FF7319404FF6FF7303EA02231943818344
:1018B00070470000002202881D4B98420ED01D4B3D
:1018C00098420BD0B0F1804F08D01B4B984205D006
:1018D0001A4B984202D01A4B984204D14FF68F739C
:1018E0001A404B881A43174B984207D0164B984220
:1018F00004D04FF6FF431A40CB881A4302808B88EE
:1019000083850B8803850A4B98420BD0094B98427C
:1019100008D00E4B984205D00D4B984202D00D4B8B
:10192000984201D10B7A038601238382704700001D
:10193000002C014000340140000400400008004039
:10194000000C004000100040001400400040014026
:1019500000440140004801401CB500BF1FE001F0F9
:1019600065F96846FFF742F9012811D101F08EFEB2
:1019700000231A4669460A48006801F0CDFB00239F
:101980001A460DF102010648006801F0C5FB02E0AD
:1019900004A000F0D5F84FF4FA6000F085FFDEE710
:1019A0004400002052656164204448543131204590
:1019B00052524F52210D0A0010B5084800880128E4
:1019C00005DA06480088401C0449088004E000202D
:1019D00002490880FFF720FC10BD00000200002033
:1019E00021B1828942F40052828104E082894DF65D
:1019F000FF731A408281704702460020B1F5007FD4
:101A000000D100BF13880B400BB1012000E0002083
:101A10007047F0B50346002400260025002040F65C
:101A20006A17B94200D100BF1846C1F3421401F051
:101A30001F06012707FA06F5012C01D10C3004E03E
:101A4000022C01D1103000E014301AB107682F4386
:101A5000076002E00768AF430760F0BD2DE9F0477B
:101A600086B005460E460024A24600BFA1460027C8
:101A7000B08900B100BF2F462C8A4CF6FF7004409D
:101A8000F08804432C82AC894EF6F3100440B088F1
:101A900031890843718908430443AC81AC8A4FF60D
:101AA000FF400440B0890443AC8201A8FFF7AEFCBC
:101AB0001F48874202D1DDF810A001E0DDF80CA03C
:101AC000A88900F4004040B10AEBCA0000EB0A10FC
:101AD00031684900B0FBF1F807E00AEBCA0000EBFF
:101AE0000A1031688900B0FBF1F86420B8FBF0F00F
:101AF00004012009642101FB1089A88900F4004039
:101B000040B1322000EBC900B0FBF1F000F007005B
:101B1000044308E0322000EB09106421B0FBF1F02F
:101B200000F00F0004432C8106B0BDE8F0870000F0
:101B300000380140C1F308028280704700BFFEE711
:101B40000FB4054B10B503A9044A029800F018F829
:101B500010BC5DF814FB0000491E0008B000002016
:101B600002E008C8121F08C1002AFAD17047704766
:101B7000002001E001C1121F002AFBD170470000C4
:101B80002DE9FF4F8DB09B460F460446002606E028
:101B900025280BD05A460F999047641C761C207854
:101BA0000028F5D111B0304600F04AB90025A8460A
:101BB0000122984900E0054314F8013F203B02FA56
:101BC00003F00842F7D120782E2817D114F8010F1E
:101BD00045F004052A280ED06FF02F022078A0F1DE
:101BE000300109290AD808EB880102EB410100EB1A
:101BF0000108641CF2E757F8048B641C20786C28F9
:101C00000DD004DC4C2812D06A2811D104E07428CD
:101C10000DD07A280CD10AE045F4001507E0617870
:101C200045F48015814202D1641C05F58015641CC1
:101C30002278692A45D008DC002AB3D0582A69D016
:101C4000632A10D0642A08D13BE0702A67D0732A37
:101C500013D0752A5CD0782A5CD010465A460F996A
:101C60009047761CD3E017F8040B8DF80000002095
:101C70008DF80100E946012003E057F8049B4FF07E
:101C8000FF3069074FF0000501D40AE06D1C45459F
:101C90000DDA8542FADB19F805100029F6D106E0C5
:101CA0006D1C8542FCDB19F805100029F8D12E4483
:101CB00004E019F8010B5A460F9990476D1EF8D2AF
:101CC000A5E00A200021CDE90801C5F30250022851
:101CD0000DD001CFC117031E71F100030DDA4FF0D3
:101CE000000CD0EB0C006CEB01012D2308E0FF1D74
:101CF00027F00707F7E80201EDE72B0504D52B23B2
:101D00008DF8283001233BE0EB0739D02023F7E79B
:101D10000A2000E010200021CDE9080107E0102092
:101D2000002145F00405CDE908014FF00808C5F38E
:101D3000025002280FD001CF00214FF0000A2B07DC
:101D40001FD5702A0DD0DDE908C38CF0100C5CEAB9
:101D5000030C0CD015E0FF1D27F00707F7E8020180
:101D6000EBE740228DF828204FF0010A0BE050EA03
:101D7000010306D030238DF828308DF82920022366
:101D80009A46582A04D024A20DF120090B9209E0AA
:101D900026A2F9E7DDE90823FEF795FA0B9B9B5C89
:101DA00009F8013D50EA0102F4D1ADEB0900203001
:101DB0000890680701D44FF001080899884502DDB2
:101DC000A8EB010000E000208046002506E00AA8FC
:101DD0005A46405D0F9990476D1C761C5545F6DBC1
:101DE00004E030205A460F999047761CB8F1000164
:101DF000A8F10108F5DC05E019F8010B5A460F9926
:101E00009047761C0899481E08900029F4DC641C51
:101E1000C5E6000009280100303132333435363749
:101E20003839616263646566000000003031323326
:101E300034353637383941424344454600000000C6
:101E400030BCBDE8C08F000070B504460D46E1B25D
:101E50000548FFF76FFE00BF80210348FFF7CCFD68
:101E60000028F9D0204670BD003801401CB501247F
:101E7000FEF7D4FDFFF7AAF9FEF75EFEFEF7A8FB1A
:101E8000FEF73CFD0BA0FFF75BFE0D480121002390
:101E90004A02CDE900100BA10E4801F083FA044676
:101EA000012C02D100F05EFE02E04FF0FF301CBDBD
:101EB00000BFFEE74672656552544F530D0A00009D
:101EC0002C0000204170705461736B437265617423
:101ED00065000000CD0600082DE9F04105460E46DC
:101EE0001C4807681C480068001D00F0C7FB50B97B
:101EF0001948006890F82C1001208840174909689B
:101F0000814316480160681C38B936B1124801682F
:101F1000091D134800F0F0FB1AE07C190E48006818
:101F20004460BC4207D20C480168091D0D48006896
:101F300000F0C8FB0CE008480168091D0A48006869
:101F400000F0C0FB09480068844201D207480460E1
:101F5000BDE8F08188000020740000208C00002083
:101F6000C09300207C00002078000020A400002006
:101F700010B5044600F0CCFB23480068401C224901
:101F800008602248006840B920480460084600689C
:101F900001280DD100F0A8F90AE01D48006838B901
:101FA0001A480068C06AE16A884201D8174804608C
:101FB00018480068401C1749086094F82C1001204C
:101FC000884015490968084313490860E16A01EB34
:101FD0008101124A02EB8100211D00F08DFB00F00F
:101FE000C7FB0B48006868B108480068C06AE16A2E
:101FF000884207D24FF0805009490860BFF34F8FE5
:10200000BFF36F8F10BD000084000020740000201B
:1020100090000020A00000208C000020F090002004
:1020200004ED00E070B523E000F000FE1348006806
:1020300008B9012000E00020054601F027FBBDB9EA
:1020400000F066FB0D48C068C468201D00F016FB58
:102050000B480068401E0A4908600A480068401E94
:102060000849086000F084FB204600F057F800BFE4
:10207000044800680028D7D170BD0000AC93002050
:10208000840000208000002070B504460D46206CBE
:1020900070B1216CE0680844E0606168E0688842E3
:1020A00001D32068E0602846226CE168FEF7B6F8AC
:1020B00070BD2DE9F04104460F4615464FF000086B
:1020C000A66B206C28B37DB93946226CA068FEF758
:1020D000A5F8216CA0680844A060D4E901108842EA
:1020E00017D32068A06014E03946226CE068FEF740
:1020F00095F8216CE068401AE0602168E068884249
:1021000003D2216C6068401AE060022D01D106B153
:10211000761E701CA0634046BDE8F08110B50446F1
:10212000206B00F049FB204600F046FB10BD00008C
:1021300030B54FF41043174800F007042CB1C01D10
:1021400020F00700134C041B1B1B0246124C22609C
:102150000024114D6C60D018083820F007000F4C97
:10216000206000240D4D2D686C600C4D2D682C6096
:102170001146441A4C60094C24680C60084D4C68A8
:102180002C60084D4C682C604FF00044064D2C60CC
:1021900030BD0000F000002050000020580000205A
:1021A000600000205C0000206400002000BFFFF7FA
:1021B00039FF064800680128F9D94FF080500449DA
:1021C0000860BFF34F8FBFF36F8FF0E7F0900020F0
:1021D00004ED00E02DE9F04106460D46174698460D
:1021E000069C0DB9246000E02760E66325640121A8
:1021F000204600F027FFBDE8F08100002DE9FF5FD9
:1022000081460E469246DDE90E7B109CAAF1010044
:10221000216B01EB800828F0070808F0070008B9D7
:10222000012000E0002028B940F22B321AA128A09A
:10223000FFF786FC002507E0715D04F1340041558D
:10224000705D00B902E06D1C102DF5D300BF0021B8
:1022500043200155202F00D31F27E762201D00F0E7
:102260002EFA04F1180000F02AFA2461C7F12000C8
:10227000A06164620020606484F8480049464046DA
:10228000039A00F0E9F92060BBF1000F01D0CBF810
:10229000004000F025B80000433A5C557365727346
:1022A0005C41736168695C4465736B746F705C4614
:1022B00072656552544F535C4672656552544F5374
:1022C0005C7372635C7461736B732E630000000057
:1022D0004572726F723A25732C25640D0A00000056
:1022E0003FBCBDE8C09F000010B5002407E004EB30
:1022F00084010F4A02EB810000F0D4F9641C202C09
:10230000F5D30C4800F0CEF90B4800F0CBF90B48A0
:1023100000F0C8F90A4800F0C5F90A4800F0C2F90F
:1023200004480949086004480849086010BD0000D5
:10233000F090002070930020849300209893002058
:10234000AC930020C0930020780000207C00002087
:1023500010B50146164800E0006803688B42FBD3C5
:102360000246436813448B4204D143684C682344BB
:10237000436001460A464B6813440468A34211D1E6
:102380000C4C03682468A34208D04B680468646856
:1023900023444B6003681B680B6005E0054B1B681A
:1023A0000B6001E003680B60884200D0016010BD43
:1023B000500000205800002070B5054600F0A8F934
:1023C000A86B08B9012400E0002400F0D1F92046F0
:1023D00070BD70B5054600F09BF9A86BE96B8842AB
:1023E00001D1012400E0002400F0C2F9204670BDB4
:1023F0000A490968096809B9012100E0002121B1F1
:102400004FF0FF31064A116006E004490968C968C7
:10241000C868034A416811607047000078000020D6
:10242000A40000200B480068401C08B9012000E00F
:10243000002020B9F422084908A0FFF781FB00BF63
:10244000502080F31188BFF34F8FBFF36F8F00BF11
:1024500000BFFEE768000020D03700084572726FA9
:10246000723A25732C25640D0A00000070B50446ED
:1024700000F04EF994F9455010E0606A08B9012067
:1024800000E0002038B904F1240001F093F818B1FD
:1024900000F0EEFA00E003E0681E45B2002DECDC2F
:1024A00000BFFF2084F8450000F062F900F030F929
:1024B00094F9445010E0206908B9012000E00020A0
:1024C00048B904F1100001F075F808B100F0D0FA35
:1024D000681E45B200E001E0002DECDC00BFFF20EB
:1024E00084F8440000F044F970BD00002DE9F0418B
:1024F00004464FF0000800F099FB3E48006808B918
:10250000FFF716FE3C480068204000285FD1A4B1C8
:10251000083404F0070080B104F00700C0F108009F
:10252000044404F0070008B9012000E0002020B9AD
:10253000BF2232A141A0FFF703FB002C47D0434844
:102540000068844243D8424E3046056801E02E467A
:102550002D686868A04202D228680028F7D1254873
:102560000068854233D0306800F108082868306080
:102570006868001B102813D92F1907F0070008B945
:10258000012000E0002020B9EC221CA12BA0FFF7C5
:10259000D7FA6868001B78606C603846FFF7D8FE91
:1025A0002A4968680968081A2849086008460068C6
:1025B00028490968884203D22448006825490860F0
:1025C0000D4968680968084368600020286001F0C8
:1025D0005DF808F0070008B9012000E0002028B9E4
:1025E0004FF4967205A115A0FFF7AAFA4046BDE880
:1025F000F08100005800002064000020433A5C5540
:10260000736572735C41736168695C4465736B7474
:102610006F705C4672656552544F535C46726565D7
:1026200052544F535C706F72745C4D656D4D616EAA
:10263000675C686561705F342E6300004572726F7D
:10264000723A25732C25640D0A0000005C000020FE
:102650005000002060000020001F4FF080730360D6
:10266000001F21F001030360001F034B03601438B7
:1026700002602038704700002524000801460A69DE
:10268000D1E901309860D1E901035860506888426F
:1026900001D188685060002008611068401E1060F9
:1026A0001068704700F1080141604FF0FF31816010
:1026B00000F10801C1600161002101607047002143
:1026C0000161704710B502460B685C1C0CB91069BB
:1026D00007E002F1080000E04068446824689C427A
:1026E000FAD944684C604C68A160886041600A6116
:1026F0001468641C146010BD42684A6093688B6063
:10270000936859609160086103685B1C03607047BF
:1027100010B500BF502080F31188BFF34F8FBFF377
:102720006F8F00BF0B480068401C0A4908600846CC
:10273000006801280DD108480068C0B208B901201E
:1027400000E0002028B94FF4BD72044904A0FFF74F
:10275000F7F910BD6800002004ED00E0D037000854
:102760004572726F723A25732C25640D0A000000C1
:1027700010B50B48006828B940F2811209490AA037
:10278000FFF7DEF906480068401E05490860084664
:10279000006820B9002080F3118800BF00BF10BD81
:1027A00068000020D03700084572726F723A2573B6
:1027B0002C25640D0A00000070B506463546002E33
:1027C00035D0083D2C461A4960680968084008B1B0
:1027D000012000E0002028B94FF4A07215A125A027
:1027E000FFF7AEF9206808B9012000E0002028B901
:1027F00040F241120FA11FA0FFF7A2F90C49606837
:102800000968084098B1206888B909496068096872
:102810008843606000F00AFA1A4960680968084451
:10282000184908602046FFF793FD00F02FFF70BDA8
:1028300064000020433A5C55736572735C417361B8
:1028400068695C4465736B746F705C467265655251
:10285000544F535C4672656552544F535C706F72AF
:10286000745C4D656D4D616E675C686561705F3469
:102870002E6300004572726F723A25732C25640D29
:102880000A0000005C000020064800684FF47A71DE
:10289000B0FBF1F0401E4FF0E021486107200861D5
:1028A000704700000400002070B504460025ACB15C
:1028B0000F48006808B9012000E0002028B940F264
:1028C000CF420CA119A0FFF73BF900F0AFF90021AE
:1028D0002046FFF701FB00F0D9FE05463DB94FF059
:1028E000805016490860BFF34F8FBFF36F8F70BDE4
:1028F000AC000020433A5C55736572735C417361B0
:1029000068695C4465736B746F705C467265655290
:10291000544F535C4672656552544F535C737263F7
:102920005C7461736B732E63000000004572726FFC
:10293000723A25732C25640D0A00000004ED00E0B6
:1029400070B50546FFF7E4FE15B92D48006800E0B4
:1029500028460446201DFFF791FE78B9E06A00EB97
:102960008000284951F8200040B994F82C1001202B
:10297000884025490968814323480160A06A18B14D
:1029800004F11800FFF77AFE20480068401C1F4938
:1029900008601B480068844209D1211D1C48FFF7CC
:1029A000ABFE1C480068401C1A49086009E01A4840
:1029B0000068401E184908602046FFF7AFFBFFF78C
:1029C00017FDFFF7D5FE15480068C0B10C48006838
:1029D000844214D11248006808B9012000E00020A8
:1029E00028B940F265420FA11CA0FFF7A9F84FF0EB
:1029F00080501E490860BFF34F8FBFF36F8F70BDCB
:102A000074000020F09000208C000020A000002026
:102A1000AC93002080000020840000209000002063
:102A2000AC000020433A5C55736572735C4173617E
:102A300068695C4465736B746F705C46726565525F
:102A4000544F535C4672656552544F535C737263C6
:102A50005C7461736B732E63000000004572726FCB
:102A6000723A25732C25640D0A00000004ED00E085
:102A700001200149086070479800002070B50446A5
:102A80000D462CB940F6063207A115A0FFF758F8FD
:102A90001748016818312046FFF714FE0121284627
:102AA000FFF71AFA70BD0000433A5C557365727304
:102AB0005C41736168695C4465736B746F705C46FC
:102AC00072656552544F535C4672656552544F535C
:102AD0005C7372635C7461736B732E63000000003F
:102AE0004572726F723A25732C25640D0A0000003E
:102AF0007400002010B504462CB940F6C13205A17F
:102B000012A0FFF71DF815480068206014480068FF
:102B1000606010BD433A5C55736572735C417361CC
:102B200068695C4465736B746F705C46726565526E
:102B3000544F535C4672656552544F535C737263D5
:102B40005C7461736B732E63000000004572726FDA
:102B5000723A25732C25640D0A0000009C000020A9
:102B6000880000201CB5184800210B468022CDE9C2
:102B7000001016A1174800F015FC0446012C15D1D1
:102B800000BF502080F31188BFF34F8FBFF36F8FCA
:102B900000BF4FF0FF301049086001200F49086066
:102BA00000200F49086000F0AFF80BE0601C08B18E
:102BB000012000E0002028B940F2847209A117A08A
:102BC000FEF7BEFF1CBD0000A800002049444C4594
:102BD00000000000AD210008A400002090000020AB
:102BE00088000020433A5C55736572735C417361E1
:102BF00068695C4465736B746F705C46726565529E
:102C0000544F535C4672656552544F535C73726304
:102C10005C7461736B732E63000000004572726F09
:102C2000723A25732C25640D0A00000002480068E2
:102C3000401C014908607047AC00002010B51B48DB
:102C4000006818B101201A4908602DE000201849D9
:102C5000086018480068B0FA80F0C0F11F0404EB67
:102C60008400154951F8200008B1012000E000203F
:102C700028B940F6F62211A11EA0FEF761FF04EB71
:102C800084010D4A02EB810041684968416000F10E
:102C9000080142688A4202D141684968416041683E
:102CA000C968184A116000BF10BD0000AC000020C8
:102CB000980000208C000020F0900020433A5C55E2
:102CC000736572735C41736168695C4465736B74AE
:102CD0006F705C4672656552544F535C4672656511
:102CE00052544F535C7372635C7461736B732E63E5
:102CF000000000004572726F723A25732C25640D36
:102D00000A000000740000201CB522480146097822
:102D10000191FF21024611700146097800919DF84A
:102D2000001001F050011C4A117007211B4A11606C
:102D300009E01A490968491E184A11609DF80010F7
:102D40004906090E00919DF8001001F080018029CC
:102D5000EFD0124909680902104A1160114609882A
:102D600001F4E06111600B4A019911700C48006890
:102D700040F470000A4908600846006840F070405E
:102D80000860FFF781FD002006490860FDF7ECF9B7
:102D900000201CBD00E400E06C000020700000205A
:102DA00020ED00E06800002010B500BF502080F347
:102DB0001188BFF34F8FBFF36F8F00BF00F036FB5A
:102DC00018B14FF080500449086000BF002080F324
:102DD000118800BF10BD000004ED00E02DE9F843AC
:102DE00005460E4690460DB1012000E0002028B9AE
:102DF0004FF4C4720DA11BA0FEF7A2FE0EB900276E
:102E000001E005FB06F707F14800FFF76FFB0446FA
:102E100044B104F1480943464A46314628460094E5
:102E2000FFF7D8F92046BDE8F8830000433A5C5527
:102E3000736572735C41736168695C4465736B743C
:102E40006F705C4672656552544F535C467265659F
:102E500052544F535C7372635C71756575652E6374
:102E6000000000004572726F723A25732C25640DC4
:102E70000A0000002DE9FF4782B005460E461F46B6
:102E80004FF0000A2C462CB940F2DC425AA168A04F
:102E9000FEF756FE0EB9206C08B9012000E00020B4
:102EA00028B940F2DD4254A161A0FEF749FE00F0CE
:102EB000ADFA08B9049808B9012000E0002028B94B
:102EC0004FF49C624CA15AA0FEF73AFE00BFFFF7F8
:102ED0001FFCD4F83890B9F1000F38D0D4F80C802A
:102EE00031462046FFF7D0F8B7B9A9F10100A06339
:102EF000206908B9012000E0002010BB04F1100097
:102F000000F058FBE8B14FF080504D490860BFF326
:102F10004F8FBFF36F8F14E0C4F80C80606A08B95C
:102F2000012000E0002060B904F1240000F042FB21
:102F300038B14FF0805042490860BFF34F8FBFF364
:102F40006F8FFFF715FC012006B0BDE8F0870498ED
:102F500018B9FFF70DFC0020F6E7BAF1000F04D115
:102F60006846FFF7C7FD4FF0010AFFF701FCFFF7C6
:102F70005DFEFFF7CDFB94F94400401C10B9002022
:102F800084F8440094F94500401C10B9002084F8EE
:102F90004500FFF7EDFB04A9684600F0A1F9F0B980
:102FA0002046FFF709FAA0B104F124000499FFF7C5
:102FB00065FD2046FFF75AFA00F068FB002886D12D
:102FC0004FF080501E490860BFF34F8FBFF36F8FE3
:102FD0007DE72046FFF74AFA00F058FB77E72046E6
:102FE000FFF744FA00F052FB2046FFF7E5F900280E
:102FF000EED00020A8E70000433A5C557365727379
:103000005C41736168695C4465736B746F705C46A6
:1030100072656552544F535C4672656552544F5306
:103020005C7372635C71756575652E6300000000EA
:103030004572726F723A25732C25640D0A000000E8
:1030400004ED00E070B505460E462C462CB940F262
:103050001B121EA12BA0FEF773FDFFF759FBD4E94D
:103060000F12206801FB020060600020A06320684E
:10307000A060E06B401E226C216800FB0210E06043
:10308000FF2084F8440084F845009EB9206908B9FF
:10309000012000E00020A8B904F1100000F08AFA35
:1030A00080B14FF080501B490860BFF34F8FBFF3D2
:1030B0006F8F07E004F11000FFF7F4FA04F1240029
:1030C000FFF7F0FAFFF754FB012070BD433A5C555F
:1030D000736572735C41736168695C4465736B749A
:1030E0006F705C4672656552544F535C46726565FD
:1030F00052544F535C7372635C71756575652E63D2
:10310000000000004572726F723A25732C25640D21
:103110000A00000004ED00E02DE9FF4383B00646FD
:1031200088461D464FF0000934462CB940F2D9229A
:1031300058A166A0FEF704FDB8F1000F01D1206C84
:1031400008B9012000E0002028B940F2DA2251A19C
:103150005EA0FEF7F5FC022D02D1E06B012801D143
:10316000012000E0002028B940F2DB2249A157A04D
:10317000FEF7E6FC00F04AF908B9059808B9012005
:1031800000E0002028B940F2DE2242A14FA0FEF765
:10319000D7FC00BFFFF7BCFAA06BE16B884201D3FC
:1031A000022D28D12A4641462046FEF782FF0746D7
:1031B000606A08B9012000E0002068B904F1240029
:1031C00000F0F8F988B14FF0805044490860BFF32F
:1031D0004F8FBFF36F8F08E03FB14FF080503F49F2
:1031E0000860BFF34F8FBFF36F8FFFF7C1FA012065
:1031F00007B0BDE8F083059818B9FFF7B9FA0020C9
:10320000F6E7B9F1000F04D101A8FFF773FC4FF006
:103210000109FFF7ADFAFFF709FDFFF779FA94F915
:103220004400401C10B9002084F8440094F9450083
:10323000401C10B9002084F84500FFF799FA05A951
:1032400001A800F04DF8F0B92046FFF7C2F8A0B190
:1032500004F110000599FFF711FC2046FFF706F96D
:1032600000F014FA002895D14FF080501B490860F7
:10327000BFF34F8FBFF36F8F8CE72046FFF7F6F851
:1032800000F004FA86E72046FFF7F0F800F0FEF9B8
:103290000020ADE7433A5C55736572735C4173611E
:1032A00068695C4465736B746F705C4672656552E7
:1032B000544F535C4672656552544F535C7372634E
:1032C0005C71756575652E63000000004572726F54
:1032D000723A25732C25640D0A00000004ED00E00D
:1032E0002DE9F04104460D462CB940F6CB3219A128
:1032F00026A0FEF725FC2DB940F6CC3215A123A05F
:10330000FEF71EFCFFF704FA244807682868401CF3
:1033100008B9002619E0224920680968884204D0CB
:103320006068B84201D801260FE06068381A296841
:10333000884209D228686168791A401A28602046B4
:10334000FFF7D8FB002600E00126FFF711FA304610
:10335000BDE8F081433A5C55736572735C417361FB
:1033600068695C4465736B746F705C467265655226
:10337000544F535C4672656552544F535C7372638D
:103380005C7461736B732E63000000004572726F92
:10339000723A25732C25640D0A0000008800002075
:1033A0009C0000202DE9FF4F85B0804689461746D6
:1033B000DDE912ABB800FFF799F8064656B14C208C
:1033C000FFF794F804460CB1266304E03046FFF79B
:1033D000F3F900E000247CB10020CDE900ABCDE999
:1033E00002403A4649464046089BFEF707FF204602
:1033F000FEF7BEFD012501E04FF0FF35284609B07C
:1034000000F000B830BCBDE8C08F00000549096875
:1034100009B9012005E00449096809B9022000E062
:103420000020704790000020AC0000202DE9F04102
:103430004FF0000842480068002873D141480068F6
:10344000451C40480560002D1DD13F4800680068BC
:1034500008B9012000E0002028B940F6D9123BA1AC
:1034600048A0FEF76DFB384807684A4800683649AF
:1034700008604848076048480068401C46490860A2
:10348000FEF7B6FF00BF4548006885423CD300BF49
:103490002D480068006808B9012000E0002020B134
:1034A0004FF0FF303D4908602DE027480068C068B4
:1034B000C4686668B54202D23848066023E0201D21
:1034C000FFF7DCF8A06A18B104F11800FFF7D6F88E
:1034D00094F82C100120884031490968084330498C
:1034E0000860E16A01EB81012E4A02EB8100211D97
:1034F000FFF702F92C49E06A0968C96A8842C7D314
:103500004FF00108C4E700BF27480068C06A00EB1D
:103510008000244951F82000012801D94FF001080A
:1035200005E0FFE721480068401C2049086020486A
:10353000006808B14FF001084046BDE8F081000086
:10354000AC0000208800002078000020433A5C5541
:10355000736572735C41736168695C4465736B7415
:103560006F705C4672656552544F535C4672656578
:1035700052544F535C7372635C7461736B732E634C
:10358000000000004572726F723A25732C25640D9D
:103590000A0000007C0000209C000020A400002005
:1035A0008C000020F0900020740000209400002087
:1035B0009800002070B50646F068C4682CB940F643
:1035C00061321AA127A0FEF7BBFA04F11800FFF739
:1035D00055F828480068A8B9201DFFF74FF894F85F
:1035E0002C100120884024490968084322490860BA
:1035F000E16A01EB8101214A02EB8100211DFFF705
:103600007BF804E004F118011D48FFF775F81D4927
:10361000E06A0968C96A884204D9012501201A496B
:10362000086000E00025284670BD0000433A5C5564
:10363000736572735C41736168695C4465736B7434
:103640006F705C4672656552544F535C4672656597
:1036500052544F535C7372635C7461736B732E636B
:10366000000000004572726F723A25732C25640DBC
:103670000A000000AC0000208C000020F090002028
:1036800098930020740000209800002070B500245A
:1036900000263448006828B94FF4FD6232A140A0EA
:1036A000FEF74EFAFFF734F82E480068401E2D4909
:1036B00008600846006800284FD13D48006800288F
:1036C0004BD024E03B48C068C46804F11800FEF702
:1036D000D5FF201DFEF7D2FF94F82C100120884062
:1036E00035490968084334490860E16A01EB810102
:1036F000324A02EB8100211DFEF7FEFF3049E06AED
:103700000968C96A884202D301202E490860294805
:10371000006808B9012000E000200028D2D00CB1D8
:10372000FEF766FE2848056865B100BFFFF77EFE1C
:1037300010B10120234908606D1E002DF6D1002034
:10374000214908601F48006838B1012630071F4929
:103750000860BFF34F8FBFF36F8FFFF709F8304654
:1037600070BD0000AC000020433A5C557365727375
:103770005C41736168695C4465736B746F705C462F
:1037800072656552544F535C4672656552544F538F
:103790005C7372635C7461736B732E630000000072
:1037A0004572726F723A25732C25640D0A00000071
:1037B00084000020989300208C000020F0900020CE
:1037C00074000020980000209400002004ED00E028
:1037D000433A5C55736572735C41736168695C441C
:1037E00065736B746F705C4672656552544F535CC1
:1037F0004672656552544F535C706F72745C5256DA
:1038000044535C41524D5F434D335C706F72742E74
:10381000630000003438000800000020B4000000FD
:10382000601B0008E8380008B4000020249900005C
:10383000701B00080000000000A24A040000000005
:103840000000000001020304060708090000000050
:103850000102030401020304060708090204060822
:103860000000000000000000000000000000000058
:103870000000000000000000000000000000000048
:103880000000000000000000000000000000000038
:10389000000000000000000000000000AAAAAAAA80
:1038A0000000000000000000000000000000000018
:1038B0000000000000000000000000000000000008
:1038C00000000000000000000000000000000000F8
:1038D00000000000000000000000000000000000E8
:0838E0000000000000000000E0
:0400000508000131BD
:00000001FF
