:020000040800F2
:1000000078040020450100088F0500084B03000814
:100010008B0500088D010008B50A000800000000EB
:10002000000000000000000000000000350700088C
:1000300021020008000000003D0600082108000819
:100040005F0100085F0100085F0100085F01000810
:100050005F0100085F0100085F0100085F01000800
:100060005F0100085F0100085F0100085F010008F0
:100070005F0100085F0100085F0100085F010008E0
:100080005F0100085F0100085F0100085F010008D0
:100090005F0100085F0100085F0100085F010008C0
:1000A0005F0100085F0100085F0100085F010008B0
:1000B0005F0100085F0100085F0100085F010008A0
:1000C0005F0100085F0100085F0100085F01000890
:1000D0005F0100085F0100085F0100085F01000880
:1000E0005F0100085F0100085F0100085F01000870
:1000F0005F0100085F0100085F0100085F01000860
:100100005F0100085F0100085F0100085F0100084F
:100110005F0100085F0100085F0100085F0100083F
:100120005F0100085F0100085F0100085F0100082F
:10013000DFF80CD000F018F8004800472D0B00083D
:10014000780400200648804706480047FEE7FEE79F
:10015000FEE7FEE7FEE7FEE7FEE7FEE7FEE7FEE777
:10016000B908000831010008064C074D06E0E068B8
:1001700040F0010394E8070098471034AC42F6D3EE
:10018000FFF7DAFFB80B0008D80B000800BFFEE746
:1001900000B585B00121042000F052FA0121880346
:1001A00000F04EFA4FF40070ADF8100018208DF8F2
:1001B000130003208DF8120004A9174800F031F84D
:1001C0004FF48060ADF8100004208DF8130004A9EE
:1001D000114800F026F84FF4E13000900020ADF80F
:1001E0000400ADF80600ADF80800ADF80C000C20D6
:1001F000ADF80A006946094800F0ECFB00F0C8F9C8
:10020000012240F22551054800F0BFFB01210348BF
:1002100000F0A2FB05B000BD00080140003801401D
:1002200070472DE9F04102460025002600200023FA
:100230000024002791F803C00CF00F0591F803C0CB
:100240000CF0100CBCF1000F03D091F802C04CEA86
:10025000050591F800C0BCF1000F31D014680020F2
:100260002BE04FF0010C0CFA00F3B1F800C00CEADF
:1002700003069E4220D183004FF00F0C0CFA03F7C7
:10028000BC4305FA03FC4CEA040491F803C0BCF13A
:10029000280F06D14FF0010C0CFA00FCC2F814C074
:1002A0000AE091F803C0BCF1480F05D14FF0010CF2
:1002B0000CFA00FCC2F810C0401C0828D1D314600E
:1002C000B1F800C0BCF1FF0F34DD546800202EE00F
:1002D00000F1080C4FF0010808FA0CF3B1F800C067
:1002E0000CEA03069E4221D183004FF00F0C0CFA5A
:1002F00003F7BC4305FA03FC4CEA040491F803C07D
:10030000BCF1280F05D100F1080C08FA0CF8C2F86E
:10031000148091F803C0BCF1480F07D100F1080C1C
:100320004FF0010808FA0CF8C2F81080401C0828A9
:10033000CED35460BDE8F0810246002093680B40A4
:100340000BB1012000E00020704700BFFEE7000075
:1003500010B501210348FFF7EFFF012800D110BDC0
:100360000020FCE70008014010B54FF4005104489C
:10037000FFF7E2FF012800D110BD0020FCE70000DC
:100380000010014010B54FF400510448FFF7D4FFAE
:10039000012800D110BD0020FCE700000010014042
:1003A00070B50546304800EB0514206880470028EA
:1003B0003ED020790A2802DA0A20207152E0207902
:1003C000142803DA2079401C20714BE0A07A38B958
:1003D0000120A07205EB4501491CC8B200F094F859
:1003E000208900283EDDE088218988420DDAE088F6
:1003F000401C80B2E0802189884233D105EB450161
:10040000C91CC8B200F080F82CE0E07A002829DD91
:10041000207B401CC0B22073E17A884222DB00209E
:10042000207305EB4501491CC8B200F06DF819E0D6
:1004300020790A2802DD0A20207110E0207918B105
:100440002079401E20710AE0A07A012807D10020FF
:10045000A07205EB4501891CC8B200F055F80020D8
:10046000E080207370BD0000380000200B48807AC7
:100470000A4AD27A904201D1002070470748807A18
:10048000064A115C1046807A401CC0B290720A285D
:1004900001DB002090720846EFE7000068000020B2
:1004A0000021144A9172D172002018E0C821124A2A
:1004B00002EB0012118105210F4A02EB00121171AB
:1004C00000210D4A02EB001291720B4A02EB00125E
:1004D000D172094A02EB00121173411CC8B2032801
:1004E000E4DB0649044A11600549116105491162BE
:1004F0007047000068000020380000205103000809
:1005000069030008850300080649C97A054A505462
:100510001146C97A491CC9B2D1720A2901DB0021EE
:10052000D17270476800002008B50121142000F046
:1005300087F804208DF803000120ADF8000069461B
:100540000A48FFF76EFE4FF40050ADF80000694610
:100550000748FFF766FE4FF40050ADF8000069460B
:100560000348FFF75EFEFFF79BFF08BD0008014050
:100570000010014010B5002404E02046FFF710FFF2
:10058000601CC4B2032CF8DB10BD00BFFEE770474F
:1005900008B54FF4A06000F047F825208DF8000062
:1005A00001208DF801008DF802008DF803006846E7
:1005B00000F002F808BD000070B5002100230F22F2
:1005C000C47804B3154C246804F4E064C4F5E06412
:1005D000210AC1F10403CA40447804FA03F1847883
:1005E0001440214309010E4C0678A155047804F00B
:1005F0001F050124AC4005786D11AD0005F1E02523
:10060000C5F8004109E0047804F01F050124AC405E
:10061000044D0678761145F8264070BD0CED00E0DB
:1006200000E400E080E100E002490143024A116079
:10063000704700000000FA050CED00E07047000074
:1006400029B1064A92690243044B9A6104E0034AC5
:1006500092698243014B9A6170470000001002408A
:1006600030B500210022002400232D4D6D6805F0D7
:100670000C0121B1042905D0082923D105E0294D19
:10068000056022E0274D05601FE0254D6D6805F4EB
:100690007012234D6D6805F48034022505EB9242FB
:1006A0001CB9214D554305600BE01D4D6D6805F4E7
:1006B00000351DB11C4D5543056002E0194D5543F1
:1006C000056002E0174D056000BF00BF144D6D6866
:1006D00005F0F0010909154D6B5C0568DD404560CA
:1006E0000F4D6D6805F4E061090A104D6B5C4568BB
:1006F000DD4085600A4D6D6805F46051C90A0B4DF7
:100700006B5C4568DD40C560054D6D6805F4404192
:10071000890B074D6B5CC568B5FBF3F5056130BD12
:100720000010024000127A0000093D001400002071
:1007300024000020704710B500F002F810BD000042
:100740000CB50020019000903348006840F48030E0
:100750003149086000BF3048006800F40030009064
:100760000198401C0190009818B90198B0F5A06F4D
:10077000F1D12948006800F4003010B10120009048
:1007800001E0002000900098012843D12348006830
:1007900040F01000214908600846006820F003007E
:1007A00008600846006840F0020008601A48406887
:1007B000194948600846406848600846406840F467
:1007C000806048600846406820F47C104860084615
:1007D000406840F4E81048600846006840F08070C7
:1007E000086000BF0C48006800F000700028F9D0D5
:1007F0000948406820F003000749486008464068FF
:1008000040F00200486000BF0348406800F00C0060
:100810000828F9D10CBD0000001002400020024061
:1008200010B500F079F808480068B0F5FA7F05D2F5
:1008300005480068401C0449086004E000200249A3
:10084000086000F075F810BD2800002030B516488B
:100850000068164AB0FBF2F1B1F1807F01D30120AC
:100860001DE021F07F40401E4FF0E0225061501704
:100870000F22002807DA13071D0E0D4B00F00F049E
:10088000241F1D5503E013071C0E0A4B1C5400BF08
:1008900000204FF0E022906107201061002008B195
:1008A00000BFFEE730BD000000000020A086010070
:1008B00018ED00E000E400E010B51348006840F0D7
:1008C00001001149086008464068104908400E4977
:1008D0004860084600680E4908400B490860084611
:1008E000006820F4802008600846406820F4FE007C
:1008F00048604FF41F008860FFF71DFF4FF0006055
:100900000449086010BD0000001002400000FFF81C
:10091000FFFFF6FE08ED00E00448006820B1034840
:100920000068401E01490860704700002C0000204C
:1009300010B508480088012805DA06480088401CE0
:100940000449088004E0002002490880FFF712FEF5
:1009500010BD00003000002021B1828942F4005215
:10096000828104E082894DF6FF731A4082817047CC
:1009700002460020B1F5007F00D100BF13880B4074
:100980000BB1012000E000207047F0B503460024C1
:1009900000260025002040F66A17B94200D100BFAA
:1009A0001846C1F3421401F01F06012707FA06F5A5
:1009B000012C01D10C3004E0022C01D1103000E0F8
:1009C00014301AB107682F43076002E00768AF438D
:1009D0000760F0BD2DE9F04786B005460E460024BD
:1009E000A24600BFA1460027B08900B100BF2F4634
:1009F0002C8A4CF6FF700440F08804432C82AC89AA
:100A00004EF6F3100440B0883189084371890843D9
:100A10000443AC81AC8A4FF6FF400440B0890443E4
:100A2000AC8201A8FFF71CFE1F48874202D1DDF807
:100A300010A001E0DDF80CA0A88900F4004040B14E
:100A40000AEBCA0000EB0A1031684900B0FBF1F86C
:100A500007E00AEBCA0000EB0A1031688900B0FB1E
:100A6000F1F86420B8FBF0F004012009642101FBD7
:100A70001089A88900F4004040B1322000EBC90081
:100A8000B0FBF1F000F00700044308E0322000EB77
:100A900009106421B0FBF1F000F00F0004432C8139
:100AA00006B0BDE8F087000000380140C1F308023D
:100AB0008280704700BFFEE7014A024900F013B888
:100AC000090B00083400002002E008C8121F08C10A
:100AD000002AFAD170477047002001E001C1121FBF
:100AE000002AFBD170472DE9F04116460F46044617
:100AF000002503E03946B047641C6D1C20780028AF
:100B0000F8D12846BDE8F08170B504460D46E1B243
:100B10000548FFF7CBFF00BF80210348FFF728FF00
:100B20000028F9D0204670BD00380140FFF730FBA7
:100B3000FFF78CFEFFF7F8FC11A0FFF7BDFF1EE0EA
:100B4000FFF794FC0446D4B1012C06D0032C08D046
:100B5000042C0AD0062C10D10BE00BA0FFF7ACFF41
:100B60000CE00CA0FFF7A8FF08E00DA0FFF7A4FF22
:100B700004E00EA0FFF7A0FF00E000BF00BFDFE72A
:100B80006B65790D0A0000006B65793120646F7721
:100B90006E0D0A006B657931206C6F6E670D0A006F
:100BA0006B65793220646F776E0D0A006B65793260
:100BB000206C6F6E670D0A00D80B00080000002043
:100BC00038000000C80A0008100C00083800002097
:100BD00040040000D80A000800A24A0400000000F7
:100BE00000000000010203040607080900000000DD
:100BF00001020304010203040607080902040608AF
:100C000000000000000000000000000000000000E4
:0400000508000131BD
:00000001FF
